{
  "contractName": "ExpectedRate",
  "abi": [
    {
      "constant": false,
      "inputs": [
        {
          "name": "alerter",
          "type": "address"
        }
      ],
      "name": "removeAlerter",
      "outputs": [],
      "payable": false,
      "stateMutability": "nonpayable",
      "type": "function",
      "signature": "0x01a12fd3"
    },
    {
      "constant": true,
      "inputs": [],
      "name": "pendingAdmin",
      "outputs": [
        {
          "name": "",
          "type": "address"
        }
      ],
      "payable": false,
      "stateMutability": "view",
      "type": "function",
      "signature": "0x26782247"
    },
    {
      "constant": true,
      "inputs": [],
      "name": "getOperators",
      "outputs": [
        {
          "name": "",
          "type": "address[]"
        }
      ],
      "payable": false,
      "stateMutability": "view",
      "type": "function",
      "signature": "0x27a099d8"
    },
    {
      "constant": false,
      "inputs": [
        {
          "name": "token",
          "type": "address"
        },
        {
          "name": "amount",
          "type": "uint256"
        },
        {
          "name": "sendTo",
          "type": "address"
        }
      ],
      "name": "withdrawToken",
      "outputs": [],
      "payable": false,
      "stateMutability": "nonpayable",
      "type": "function",
      "signature": "0x3ccdbb28"
    },
    {
      "constant": false,
      "inputs": [
        {
          "name": "newAlerter",
          "type": "address"
        }
      ],
      "name": "addAlerter",
      "outputs": [],
      "payable": false,
      "stateMutability": "nonpayable",
      "type": "function",
      "signature": "0x408ee7fe"
    },
    {
      "constant": false,
      "inputs": [
        {
          "name": "newAdmin",
          "type": "address"
        }
      ],
      "name": "transferAdmin",
      "outputs": [],
      "payable": false,
      "stateMutability": "nonpayable",
      "type": "function",
      "signature": "0x75829def"
    },
    {
      "constant": false,
      "inputs": [],
      "name": "claimAdmin",
      "outputs": [],
      "payable": false,
      "stateMutability": "nonpayable",
      "type": "function",
      "signature": "0x77f50f97"
    },
    {
      "constant": false,
      "inputs": [
        {
          "name": "newAdmin",
          "type": "address"
        }
      ],
      "name": "transferAdminQuickly",
      "outputs": [],
      "payable": false,
      "stateMutability": "nonpayable",
      "type": "function",
      "signature": "0x7acc8678"
    },
    {
      "constant": true,
      "inputs": [],
      "name": "getAlerters",
      "outputs": [
        {
          "name": "",
          "type": "address[]"
        }
      ],
      "payable": false,
      "stateMutability": "view",
      "type": "function",
      "signature": "0x7c423f54"
    },
    {
      "constant": false,
      "inputs": [
        {
          "name": "newOperator",
          "type": "address"
        }
      ],
      "name": "addOperator",
      "outputs": [],
      "payable": false,
      "stateMutability": "nonpayable",
      "type": "function",
      "signature": "0x9870d7fe"
    },
    {
      "constant": true,
      "inputs": [],
      "name": "worstCaseRateFactorInBps",
      "outputs": [
        {
          "name": "",
          "type": "uint256"
        }
      ],
      "payable": false,
      "stateMutability": "view",
      "type": "function",
      "signature": "0x9bc72d5f"
    },
    {
      "constant": true,
      "inputs": [],
      "name": "quantityFactor",
      "outputs": [
        {
          "name": "",
          "type": "uint256"
        }
      ],
      "payable": false,
      "stateMutability": "view",
      "type": "function",
      "signature": "0xa7de9c63"
    },
    {
      "constant": false,
      "inputs": [
        {
          "name": "operator",
          "type": "address"
        }
      ],
      "name": "removeOperator",
      "outputs": [],
      "payable": false,
      "stateMutability": "nonpayable",
      "type": "function",
      "signature": "0xac8a584a"
    },
    {
      "constant": true,
      "inputs": [],
      "name": "kyberNetwork",
      "outputs": [
        {
          "name": "",
          "type": "address"
        }
      ],
      "payable": false,
      "stateMutability": "view",
      "type": "function",
      "signature": "0xb78b842d"
    },
    {
      "constant": false,
      "inputs": [
        {
          "name": "amount",
          "type": "uint256"
        },
        {
          "name": "sendTo",
          "type": "address"
        }
      ],
      "name": "withdrawEther",
      "outputs": [],
      "payable": false,
      "stateMutability": "nonpayable",
      "type": "function",
      "signature": "0xce56c454"
    },
    {
      "constant": true,
      "inputs": [
        {
          "name": "token",
          "type": "address"
        },
        {
          "name": "user",
          "type": "address"
        }
      ],
      "name": "getBalance",
      "outputs": [
        {
          "name": "",
          "type": "uint256"
        }
      ],
      "payable": false,
      "stateMutability": "view",
      "type": "function",
      "signature": "0xd4fac45d"
    },
    {
      "constant": true,
      "inputs": [],
      "name": "admin",
      "outputs": [
        {
          "name": "",
          "type": "address"
        }
      ],
      "payable": false,
      "stateMutability": "view",
      "type": "function",
      "signature": "0xf851a440"
    },
    {
      "inputs": [
        {
          "name": "_kyberNetwork",
          "type": "address"
        },
        {
          "name": "_admin",
          "type": "address"
        }
      ],
      "payable": false,
      "stateMutability": "nonpayable",
      "type": "constructor",
      "signature": "constructor"
    },
    {
      "anonymous": false,
      "inputs": [
        {
          "indexed": false,
          "name": "newFactor",
          "type": "uint256"
        },
        {
          "indexed": false,
          "name": "oldFactor",
          "type": "uint256"
        },
        {
          "indexed": false,
          "name": "sender",
          "type": "address"
        }
      ],
      "name": "QuantityFactorSet",
      "type": "event",
      "signature": "0xd0f6fc40d497232b5aab1b7a34ea00ea45886e52d2fed39ad62af798a870fae3"
    },
    {
      "anonymous": false,
      "inputs": [
        {
          "indexed": false,
          "name": "newMin",
          "type": "uint256"
        },
        {
          "indexed": false,
          "name": "oldMin",
          "type": "uint256"
        },
        {
          "indexed": false,
          "name": "sender",
          "type": "address"
        }
      ],
      "name": "MinSlippageFactorSet",
      "type": "event",
      "signature": "0x4357e20f1241d972328c5b3239d9ef4ac96f0f4fce8e10fd3bf9053690dad0ac"
    },
    {
      "anonymous": false,
      "inputs": [
        {
          "indexed": false,
          "name": "token",
          "type": "address"
        },
        {
          "indexed": false,
          "name": "amount",
          "type": "uint256"
        },
        {
          "indexed": false,
          "name": "sendTo",
          "type": "address"
        }
      ],
      "name": "TokenWithdraw",
      "type": "event",
      "signature": "0x72cb8a894ddb372ceec3d2a7648d86f17d5a15caae0e986c53109b8a9a9385e6"
    },
    {
      "anonymous": false,
      "inputs": [
        {
          "indexed": false,
          "name": "amount",
          "type": "uint256"
        },
        {
          "indexed": false,
          "name": "sendTo",
          "type": "address"
        }
      ],
      "name": "EtherWithdraw",
      "type": "event",
      "signature": "0xec47e7ed86c86774d1a72c19f35c639911393fe7c1a34031fdbd260890da90de"
    },
    {
      "anonymous": false,
      "inputs": [
        {
          "indexed": false,
          "name": "pendingAdmin",
          "type": "address"
        }
      ],
      "name": "TransferAdminPending",
      "type": "event",
      "signature": "0x3b81caf78fa51ecbc8acb482fd7012a277b428d9b80f9d156e8a54107496cc40"
    },
    {
      "anonymous": false,
      "inputs": [
        {
          "indexed": false,
          "name": "newAdmin",
          "type": "address"
        },
        {
          "indexed": false,
          "name": "previousAdmin",
          "type": "address"
        }
      ],
      "name": "AdminClaimed",
      "type": "event",
      "signature": "0x65da1cfc2c2e81576ad96afb24a581f8e109b7a403b35cbd3243a1c99efdb9ed"
    },
    {
      "anonymous": false,
      "inputs": [
        {
          "indexed": false,
          "name": "newAlerter",
          "type": "address"
        },
        {
          "indexed": false,
          "name": "isAdd",
          "type": "bool"
        }
      ],
      "name": "AlerterAdded",
      "type": "event",
      "signature": "0x5611bf3e417d124f97bf2c788843ea8bb502b66079fbee02158ef30b172cb762"
    },
    {
      "anonymous": false,
      "inputs": [
        {
          "indexed": false,
          "name": "newOperator",
          "type": "address"
        },
        {
          "indexed": false,
          "name": "isAdd",
          "type": "bool"
        }
      ],
      "name": "OperatorAdded",
      "type": "event",
      "signature": "0x091a7a4b85135fdd7e8dbc18b12fabe5cc191ea867aa3c2e1a24a102af61d58b"
    },
    {
      "constant": false,
      "inputs": [
        {
          "name": "newFactor",
          "type": "uint256"
        }
      ],
      "name": "setQuantityFactor",
      "outputs": [],
      "payable": false,
      "stateMutability": "nonpayable",
      "type": "function",
      "signature": "0x7658c574"
    },
    {
      "constant": false,
      "inputs": [
        {
          "name": "bps",
          "type": "uint256"
        }
      ],
      "name": "setWorstCaseRateFactor",
      "outputs": [],
      "payable": false,
      "stateMutability": "nonpayable",
      "type": "function",
      "signature": "0xdcb46e38"
    },
    {
      "constant": true,
      "inputs": [
        {
          "name": "src",
          "type": "address"
        },
        {
          "name": "dest",
          "type": "address"
        },
        {
          "name": "srcQty",
          "type": "uint256"
        }
      ],
      "name": "getExpectedRate",
      "outputs": [
        {
          "name": "expectedRate",
          "type": "uint256"
        },
        {
          "name": "slippageRate",
          "type": "uint256"
        }
      ],
      "payable": false,
      "stateMutability": "view",
      "type": "function",
      "signature": "0x809a9e55"
    }
  ],
  "bytecode": "0x606060405260026008556032600955341561001957600080fd5b6040516040806114e4833981016040528080519190602001805160008054600160a060020a03191633600160a060020a039081169190911790915590925082161515905061006657600080fd5b600160a060020a038216151561007b57600080fd5b60078054600160a060020a03938416600160a060020a0319918216179091556000805492909316911617905561142e806100b66000396000f3006060604052600436106100f85763ffffffff60e060020a60003504166301a12fd381146100fd578063267822471461011e57806327a099d81461014d5780633ccdbb28146101b3578063408ee7fe146101dc57806375829def146101fb5780637658c5741461021a57806377f50f97146102305780637acc8678146102435780637c423f5414610262578063809a9e55146102755780639870d7fe146102b55780639bc72d5f146102d4578063a7de9c63146102f9578063ac8a584a1461030c578063b78b842d1461032b578063ce56c4541461033e578063d4fac45d14610360578063dcb46e3814610385578063f851a4401461039b575b600080fd5b341561010857600080fd5b61011c600160a060020a03600435166103ae565b005b341561012957600080fd5b61013161051e565b604051600160a060020a03909116815260200160405180910390f35b341561015857600080fd5b61016061052d565b60405160208082528190810183818151815260200191508051906020019060200280838360005b8381101561019f578082015183820152602001610187565b505050509050019250505060405180910390f35b34156101be57600080fd5b61011c600160a060020a036004358116906024359060443516610596565b34156101e757600080fd5b61011c600160a060020a036004351661068d565b341561020657600080fd5b61011c600160a060020a0360043516610789565b341561022557600080fd5b61011c600435610824565b341561023b57600080fd5b61011c6108b0565b341561024e57600080fd5b61011c600160a060020a036004351661094a565b341561026d57600080fd5b610160610a2c565b341561028057600080fd5b61029d600160a060020a0360043581169060243516604435610a92565b60405191825260208201526040908101905180910390f35b34156102c057600080fd5b61011c600160a060020a0360043516610c66565b34156102df57600080fd5b6102e7610d36565b60405190815260200160405180910390f35b341561030457600080fd5b6102e7610d3c565b341561031757600080fd5b61011c600160a060020a0360043516610d42565b341561033657600080fd5b610131610eae565b341561034957600080fd5b61011c600435600160a060020a0360243516610ebd565b341561036b57600080fd5b6102e7600160a060020a0360043581169060243516610f50565b341561039057600080fd5b61011c600435611002565b34156103a657600080fd5b61013161108f565b6000805433600160a060020a039081169116146103ca57600080fd5b600160a060020a03821660009081526003602052604090205460ff1615156103f157600080fd5b50600160a060020a0381166000908152600360205260408120805460ff191690555b60055481101561051a5781600160a060020a031660058281548110151561043657fe5b600091825260209091200154600160a060020a031614156105125760058054600019810190811061046357fe5b60009182526020909120015460058054600160a060020a03909216918390811061048957fe5b60009182526020909120018054600160a060020a031916600160a060020a039290921691909117905560058054906104c59060001983016113a9565b507f5611bf3e417d124f97bf2c788843ea8bb502b66079fbee02158ef30b172cb762826000604051600160a060020a039092168252151560208201526040908101905180910390a161051a565b600101610413565b5050565b600154600160a060020a031681565b6105356113d2565b600480548060200260200160405190810160405280929190818152602001828054801561058b57602002820191906000526020600020905b8154600160a060020a0316815260019091019060200180831161056d575b505050505090505b90565b60005433600160a060020a039081169116146105b157600080fd5b82600160a060020a031663a9059cbb828460006040516020015260405160e060020a63ffffffff8516028152600160a060020a0390921660048301526024820152604401602060405180830381600087803b151561060e57600080fd5b6102c65a03f1151561061f57600080fd5b50505060405180519050151561063457600080fd5b7f72cb8a894ddb372ceec3d2a7648d86f17d5a15caae0e986c53109b8a9a9385e6838383604051600160a060020a03938416815260208101929092529091166040808301919091526060909101905180910390a1505050565b60005433600160a060020a039081169116146106a857600080fd5b600160a060020a03811660009081526003602052604090205460ff16156106ce57600080fd5b600554603290106106de57600080fd5b7f5611bf3e417d124f97bf2c788843ea8bb502b66079fbee02158ef30b172cb762816001604051600160a060020a039092168252151560208201526040908101905180910390a1600160a060020a0381166000908152600360205260409020805460ff19166001908117909155600580549091810161075d83826113a9565b5060009182526020909120018054600160a060020a031916600160a060020a0392909216919091179055565b60005433600160a060020a039081169116146107a457600080fd5b600160a060020a03811615156107b957600080fd5b6001547f3b81caf78fa51ecbc8acb482fd7012a277b428d9b80f9d156e8a54107496cc4090600160a060020a0316604051600160a060020a03909116815260200160405180910390a160018054600160a060020a031916600160a060020a0392909216919091179055565b600160a060020a03331660009081526002602052604090205460ff16151561084b57600080fd5b606481111561085957600080fd5b7fd0f6fc40d497232b5aab1b7a34ea00ea45886e52d2fed39ad62af798a870fae381600854336040519283526020830191909152600160a060020a03166040808301919091526060909101905180910390a1600855565b60015433600160a060020a039081169116146108cb57600080fd5b6001546000547f65da1cfc2c2e81576ad96afb24a581f8e109b7a403b35cbd3243a1c99efdb9ed91600160a060020a039081169116604051600160a060020a039283168152911660208201526040908101905180910390a16001805460008054600160a060020a0319908116600160a060020a03841617909155169055565b60005433600160a060020a0390811691161461096557600080fd5b600160a060020a038116151561097a57600080fd5b7f3b81caf78fa51ecbc8acb482fd7012a277b428d9b80f9d156e8a54107496cc4081604051600160a060020a03909116815260200160405180910390a16000547f65da1cfc2c2e81576ad96afb24a581f8e109b7a403b35cbd3243a1c99efdb9ed908290600160a060020a0316604051600160a060020a039283168152911660208201526040908101905180910390a160008054600160a060020a031916600160a060020a0392909216919091179055565b610a346113d2565b600580548060200260200160405190810160405280929190818152602001828054801561058b57602002820191906000526020600020908154600160a060020a0316815260019091019060200180831161056d575050505050905090565b600080600080600854600014151515610aaa57600080fd5b6b204fce5e3e25026110000000851115610ac357600080fd5b6008546b204fce5e3e250261100000009086021115610ae157600080fd5b841515610aed57600194505b600754600160a060020a031663b8388aca88888860006040516040015260405160e060020a63ffffffff8616028152600160a060020a03938416600482015291909216602482015260448101919091526064016040805180830381600087803b1515610b5857600080fd5b6102c65a03f11515610b6957600080fd5b5050506040518051906020018051600754600854919750929450600160a060020a039092169163b8388aca915089908990890260006040516040015260405160e060020a63ffffffff8616028152600160a060020a03938416600482015291909216602482015260448101919091526064016040805180830381600087803b1515610bf357600080fd5b6102c65a03f11515610c0457600080fd5b5050506040518051906020018051945090925050831515610c2d57610c2a87878761109e565b93505b69d3c21bcecceda1000000841115610c4457600080fd5b50600954612710908103840204808310610c5c578092505b5050935093915050565b60005433600160a060020a03908116911614610c8157600080fd5b600160a060020a03811660009081526002602052604090205460ff1615610ca757600080fd5b60045460329010610cb757600080fd5b7f091a7a4b85135fdd7e8dbc18b12fabe5cc191ea867aa3c2e1a24a102af61d58b816001604051600160a060020a039092168252151560208201526040908101905180910390a1600160a060020a0381166000908152600260205260409020805460ff19166001908117909155600480549091810161075d83826113a9565b60095481565b60085481565b6000805433600160a060020a03908116911614610d5e57600080fd5b600160a060020a03821660009081526002602052604090205460ff161515610d8557600080fd5b50600160a060020a0381166000908152600260205260408120805460ff191690555b60045481101561051a5781600160a060020a0316600482815481101515610dca57fe5b600091825260209091200154600160a060020a03161415610ea657600480546000198101908110610df757fe5b60009182526020909120015460048054600160a060020a039092169183908110610e1d57fe5b60009182526020909120018054600160a060020a031916600160a060020a0392909216919091179055600480546000190190610e5990826113a9565b507f091a7a4b85135fdd7e8dbc18b12fabe5cc191ea867aa3c2e1a24a102af61d58b826000604051600160a060020a039092168252151560208201526040908101905180910390a161051a565b600101610da7565b600754600160a060020a031681565b60005433600160a060020a03908116911614610ed857600080fd5b600160a060020a03811682156108fc0283604051600060405180830381858888f193505050501515610f0957600080fd5b7fec47e7ed86c86774d1a72c19f35c639911393fe7c1a34031fdbd260890da90de8282604051918252600160a060020a031660208201526040908101905180910390a15050565b6000600160a060020a03831673eeeeeeeeeeeeeeeeeeeeeeeeeeeeeeeeeeeeeeee1415610f885750600160a060020a03811631610ffc565b82600160a060020a03166370a082318360006040516020015260405160e060020a63ffffffff8416028152600160a060020a039091166004820152602401602060405180830381600087803b1515610fdf57600080fd5b6102c65a03f11515610ff057600080fd5b50505060405180519150505b92915050565b600160a060020a03331660009081526002602052604090205460ff16151561102957600080fd5b61271081111561103857600080fd5b7f4357e20f1241d972328c5b3239d9ef4ac96f0f4fce8e10fd3bf9053690dad0ac81600954336040519283526020830191909152600160a060020a03166040808301919091526060909101905180910390a1600955565b600054600160a060020a031681565b6007546000908190819081908190600160a060020a031663ab127a0c8973eeeeeeeeeeeeeeeeeeeeeeeeeeeeeeeeeeeeeeee89856040516040015260405160e060020a63ffffffff8616028152600160a060020a03938416600482015291909216602482015260448101919091526064016040805180830381600087803b151561112757600080fd5b6102c65a03f1151561113857600080fd5b505050604051805190602001805191955090935061116e90508873eeeeeeeeeeeeeeeeeeeeeeeeeeeeeeeeeeeeeeee888661122b565b600754909150600160a060020a031663ab127a0c73eeeeeeeeeeeeeeeeeeeeeeeeeeeeeeeeeeeeeeee898460006040516040015260405160e060020a63ffffffff8616028152600160a060020a03938416600482015291909216602482015260448101919091526064016040805180830381600087803b15156111f057600080fd5b6102c65a03f1151561120157600080fd5b5050506040518051906020018051670de0b6b3a76400009502949094049998505050505050505050565b60006112498361123a87611254565b61124387611254565b85611318565b90505b949350505050565b600080600160a060020a03831673eeeeeeeeeeeeeeeeeeeeeeeeeeeeeeeeeeeeeeee14156112855760129150611312565b50600160a060020a03821660009081526006602052604090205480151561130e5782600160a060020a031663313ce5676000604051602001526040518163ffffffff1660e060020a028152600401602060405180830381600087803b15156112ec57600080fd5b6102c65a03f115156112fd57600080fd5b505050604051805190509150611312565b8091505b50919050565b60006b204fce5e3e2502611000000085111561133357600080fd5b69d3c21bcecceda100000082111561134a57600080fd5b83831061137d576012848403111561136157600080fd5b670de0b6b3a7640000858302858503600a0a025b04905061124c565b6012838503111561138d57600080fd5b828403600a0a670de0b6b3a76400000282860281151561137557fe5b8154818355818115116113cd576000838152602090206113cd9181019083016113e4565b505050565b60206040519081016040526000815290565b61059391905b808211156113fe57600081556001016113ea565b50905600a165627a7a72305820bce5e68a3229c2a1655cfefc7641c19e71fdbfc73e488de529b6ca02cfb615610029",
  "source": "pragma solidity 0.4.18;\r\n\r\n\r\nimport \"./ERC20Interface.sol\";\r\nimport \"./KyberNetwork.sol\";\r\nimport \"./Withdrawable.sol\";\r\nimport \"./ExpectedRateInterface.sol\";\r\n\r\n\r\ncontract ExpectedRate is Withdrawable, ExpectedRateInterface, Utils2 {\r\n\r\n    KyberNetwork public kyberNetwork;\r\n    uint public quantityFactor = 2;\r\n    uint public worstCaseRateFactorInBps = 50;\r\n\r\n    function ExpectedRate(KyberNetwork _kyberNetwork, address _admin) public {\r\n        require(_admin != address(0));\r\n        require(_kyberNetwork != address(0));\r\n        kyberNetwork = _kyberNetwork;\r\n        admin = _admin;\r\n    }\r\n\r\n    event QuantityFactorSet (uint newFactor, uint oldFactor, address sender);\r\n\r\n    function setQuantityFactor(uint newFactor) public onlyOperator {\r\n        require(newFactor <= 100);\r\n\r\n        QuantityFactorSet(newFactor, quantityFactor, msg.sender);\r\n        quantityFactor = newFactor;\r\n    }\r\n\r\n    event MinSlippageFactorSet (uint newMin, uint oldMin, address sender);\r\n\r\n    function setWorstCaseRateFactor(uint bps) public onlyOperator {\r\n        require(bps <= 100 * 100);\r\n\r\n        MinSlippageFactorSet(bps, worstCaseRateFactorInBps, msg.sender);\r\n        worstCaseRateFactorInBps = bps;\r\n    }\r\n\r\n    //@dev when srcQty too small or 0 the expected rate will be calculated without quantity,\r\n    // will enable rate reference before committing to any quantity\r\n    //@dev when srcQty too small (no actual dest qty) slippage rate will be 0.\r\n    function getExpectedRate(ERC20 src, ERC20 dest, uint srcQty)\r\n        public view\r\n        returns (uint expectedRate, uint slippageRate)\r\n    {\r\n        require(quantityFactor != 0);\r\n        require(srcQty <= MAX_QTY);\r\n        require(srcQty * quantityFactor <= MAX_QTY);\r\n\r\n        if (srcQty == 0) srcQty = 1;\r\n\r\n        uint bestReserve;\r\n        uint worstCaseSlippageRate;\r\n\r\n        (bestReserve, expectedRate) = kyberNetwork.findBestRate(src, dest, srcQty);\r\n        (bestReserve, slippageRate) = kyberNetwork.findBestRate(src, dest, (srcQty * quantityFactor));\r\n\r\n        if (expectedRate == 0) {\r\n            expectedRate = expectedRateSmallQty(src, dest, srcQty);\r\n        }\r\n\r\n        require(expectedRate <= MAX_RATE);\r\n\r\n        worstCaseSlippageRate = ((10000 - worstCaseRateFactorInBps) * expectedRate) / 10000;\r\n        if (slippageRate >= worstCaseSlippageRate) {\r\n            slippageRate = worstCaseSlippageRate;\r\n        }\r\n\r\n        return (expectedRate, slippageRate);\r\n    }\r\n\r\n    //@dev for small src quantities dest qty might be 0, then returned rate is zero.\r\n    //@dev for backward compatibility we would like to return non zero rate (correct one) for small src qty\r\n    function expectedRateSmallQty(ERC20 src, ERC20 dest, uint srcQty) internal view returns(uint) {\r\n        address reserve;\r\n        uint rateSrcToEth;\r\n        uint rateEthToDest;\r\n        (reserve, rateSrcToEth) = kyberNetwork.searchBestRate(src, ETH_TOKEN_ADDRESS, srcQty);\r\n\r\n        uint ethQty = calcDestAmount(src, ETH_TOKEN_ADDRESS, srcQty, rateSrcToEth);\r\n\r\n        (reserve, rateEthToDest) = kyberNetwork.searchBestRate(ETH_TOKEN_ADDRESS, dest, ethQty);\r\n        return rateSrcToEth * rateEthToDest / PRECISION;\r\n    }\r\n}\r\n",
  "sourcePath": "C:/Users/phangjunyu/desktop/ethsg-lenXe/kyber/contracts/ExpectedRate.sol",
  "compiler": {
    "name": "solc",
    "version": "0.4.18+commit.9cf6e910.Emscripten.clang"
  },
  "schemaVersion": "3.0.0-beta.1",
  "updatedAt": "2018-12-09T02:57:55.444Z"
}