{
  "contractName": "FeeBurner",
  "abi": [
    {
      "constant": false,
      "inputs": [
        {
          "name": "alerter",
          "type": "address"
        }
      ],
      "name": "removeAlerter",
      "outputs": [],
      "payable": false,
      "stateMutability": "nonpayable",
      "type": "function",
      "signature": "0x01a12fd3"
    },
    {
      "constant": true,
      "inputs": [
        {
          "name": "",
          "type": "address"
        }
      ],
      "name": "reserveKNCWallet",
      "outputs": [
        {
          "name": "",
          "type": "address"
        }
      ],
      "payable": false,
      "stateMutability": "view",
      "type": "function",
      "signature": "0x0a377f3a"
    },
    {
      "constant": true,
      "inputs": [
        {
          "name": "",
          "type": "address"
        },
        {
          "name": "",
          "type": "address"
        }
      ],
      "name": "reserveFeeToWallet",
      "outputs": [
        {
          "name": "",
          "type": "uint256"
        }
      ],
      "payable": false,
      "stateMutability": "view",
      "type": "function",
      "signature": "0x22dbf6d2"
    },
    {
      "constant": true,
      "inputs": [],
      "name": "pendingAdmin",
      "outputs": [
        {
          "name": "",
          "type": "address"
        }
      ],
      "payable": false,
      "stateMutability": "view",
      "type": "function",
      "signature": "0x26782247"
    },
    {
      "constant": true,
      "inputs": [],
      "name": "getOperators",
      "outputs": [
        {
          "name": "",
          "type": "address[]"
        }
      ],
      "payable": false,
      "stateMutability": "view",
      "type": "function",
      "signature": "0x27a099d8"
    },
    {
      "constant": true,
      "inputs": [
        {
          "name": "",
          "type": "address"
        }
      ],
      "name": "reserveFeeToBurn",
      "outputs": [
        {
          "name": "",
          "type": "uint256"
        }
      ],
      "payable": false,
      "stateMutability": "view",
      "type": "function",
      "signature": "0x2b84fe83"
    },
    {
      "constant": true,
      "inputs": [],
      "name": "taxWallet",
      "outputs": [
        {
          "name": "",
          "type": "address"
        }
      ],
      "payable": false,
      "stateMutability": "view",
      "type": "function",
      "signature": "0x2dc0562d"
    },
    {
      "constant": true,
      "inputs": [
        {
          "name": "",
          "type": "address"
        }
      ],
      "name": "reserveFeesInBps",
      "outputs": [
        {
          "name": "",
          "type": "uint256"
        }
      ],
      "payable": false,
      "stateMutability": "view",
      "type": "function",
      "signature": "0x384c4d2f"
    },
    {
      "constant": true,
      "inputs": [],
      "name": "taxFeeBps",
      "outputs": [
        {
          "name": "",
          "type": "uint256"
        }
      ],
      "payable": false,
      "stateMutability": "view",
      "type": "function",
      "signature": "0x3b215823"
    },
    {
      "constant": false,
      "inputs": [
        {
          "name": "token",
          "type": "address"
        },
        {
          "name": "amount",
          "type": "uint256"
        },
        {
          "name": "sendTo",
          "type": "address"
        }
      ],
      "name": "withdrawToken",
      "outputs": [],
      "payable": false,
      "stateMutability": "nonpayable",
      "type": "function",
      "signature": "0x3ccdbb28"
    },
    {
      "constant": false,
      "inputs": [
        {
          "name": "newAlerter",
          "type": "address"
        }
      ],
      "name": "addAlerter",
      "outputs": [],
      "payable": false,
      "stateMutability": "nonpayable",
      "type": "function",
      "signature": "0x408ee7fe"
    },
    {
      "constant": true,
      "inputs": [
        {
          "name": "",
          "type": "address"
        }
      ],
      "name": "walletFeesInBps",
      "outputs": [
        {
          "name": "",
          "type": "uint256"
        }
      ],
      "payable": false,
      "stateMutability": "view",
      "type": "function",
      "signature": "0x45ab63b9"
    },
    {
      "constant": false,
      "inputs": [
        {
          "name": "newAdmin",
          "type": "address"
        }
      ],
      "name": "transferAdmin",
      "outputs": [],
      "payable": false,
      "stateMutability": "nonpayable",
      "type": "function",
      "signature": "0x75829def"
    },
    {
      "constant": false,
      "inputs": [],
      "name": "claimAdmin",
      "outputs": [],
      "payable": false,
      "stateMutability": "nonpayable",
      "type": "function",
      "signature": "0x77f50f97"
    },
    {
      "constant": false,
      "inputs": [
        {
          "name": "newAdmin",
          "type": "address"
        }
      ],
      "name": "transferAdminQuickly",
      "outputs": [],
      "payable": false,
      "stateMutability": "nonpayable",
      "type": "function",
      "signature": "0x7acc8678"
    },
    {
      "constant": true,
      "inputs": [],
      "name": "getAlerters",
      "outputs": [
        {
          "name": "",
          "type": "address[]"
        }
      ],
      "payable": false,
      "stateMutability": "view",
      "type": "function",
      "signature": "0x7c423f54"
    },
    {
      "constant": true,
      "inputs": [],
      "name": "kncPerETHRate",
      "outputs": [
        {
          "name": "",
          "type": "uint256"
        }
      ],
      "payable": false,
      "stateMutability": "view",
      "type": "function",
      "signature": "0x820b9f1e"
    },
    {
      "constant": false,
      "inputs": [
        {
          "name": "newOperator",
          "type": "address"
        }
      ],
      "name": "addOperator",
      "outputs": [],
      "payable": false,
      "stateMutability": "nonpayable",
      "type": "function",
      "signature": "0x9870d7fe"
    },
    {
      "constant": false,
      "inputs": [
        {
          "name": "operator",
          "type": "address"
        }
      ],
      "name": "removeOperator",
      "outputs": [],
      "payable": false,
      "stateMutability": "nonpayable",
      "type": "function",
      "signature": "0xac8a584a"
    },
    {
      "constant": true,
      "inputs": [],
      "name": "kyberNetwork",
      "outputs": [
        {
          "name": "",
          "type": "address"
        }
      ],
      "payable": false,
      "stateMutability": "view",
      "type": "function",
      "signature": "0xb78b842d"
    },
    {
      "constant": false,
      "inputs": [
        {
          "name": "amount",
          "type": "uint256"
        },
        {
          "name": "sendTo",
          "type": "address"
        }
      ],
      "name": "withdrawEther",
      "outputs": [],
      "payable": false,
      "stateMutability": "nonpayable",
      "type": "function",
      "signature": "0xce56c454"
    },
    {
      "constant": true,
      "inputs": [
        {
          "name": "",
          "type": "address"
        }
      ],
      "name": "feePayedPerReserve",
      "outputs": [
        {
          "name": "",
          "type": "uint256"
        }
      ],
      "payable": false,
      "stateMutability": "view",
      "type": "function",
      "signature": "0xdc93f7c9"
    },
    {
      "constant": true,
      "inputs": [],
      "name": "knc",
      "outputs": [
        {
          "name": "",
          "type": "address"
        }
      ],
      "payable": false,
      "stateMutability": "view",
      "type": "function",
      "signature": "0xe61387e0"
    },
    {
      "constant": true,
      "inputs": [],
      "name": "admin",
      "outputs": [
        {
          "name": "",
          "type": "address"
        }
      ],
      "payable": false,
      "stateMutability": "view",
      "type": "function",
      "signature": "0xf851a440"
    },
    {
      "inputs": [
        {
          "name": "_admin",
          "type": "address"
        },
        {
          "name": "kncToken",
          "type": "address"
        },
        {
          "name": "_kyberNetwork",
          "type": "address"
        }
      ],
      "payable": false,
      "stateMutability": "nonpayable",
      "type": "constructor",
      "signature": "constructor"
    },
    {
      "anonymous": false,
      "inputs": [
        {
          "indexed": false,
          "name": "reserve",
          "type": "address"
        },
        {
          "indexed": false,
          "name": "feeInBps",
          "type": "uint256"
        },
        {
          "indexed": false,
          "name": "kncWallet",
          "type": "address"
        }
      ],
      "name": "ReserveDataSet",
      "type": "event",
      "signature": "0x999efec8241b9b7a1d9c2d2e207cde178cb3a02ca6a94d070eecb369674ead6f"
    },
    {
      "anonymous": false,
      "inputs": [
        {
          "indexed": false,
          "name": "wallet",
          "type": "address"
        },
        {
          "indexed": false,
          "name": "feesInBps",
          "type": "uint256"
        }
      ],
      "name": "WalletFeesSet",
      "type": "event",
      "signature": "0x19f0c31fd2313f709ad6b9f15595720ff5765b72b394025288ac4f355fee0952"
    },
    {
      "anonymous": false,
      "inputs": [
        {
          "indexed": false,
          "name": "feesInBps",
          "type": "uint256"
        }
      ],
      "name": "TaxFeesSet",
      "type": "event",
      "signature": "0x560f2dab6b3f89e548b63a9eabb6e43ec0e70bb81bdc69e5dc578c72bab629f5"
    },
    {
      "anonymous": false,
      "inputs": [
        {
          "indexed": false,
          "name": "taxWallet",
          "type": "address"
        }
      ],
      "name": "TaxWalletSet",
      "type": "event",
      "signature": "0x847d0f7f2b16c8dd0b72c0606e65e8bf1b624633d37905b0e08145a295ab8758"
    },
    {
      "anonymous": false,
      "inputs": [
        {
          "indexed": false,
          "name": "reserve",
          "type": "address"
        },
        {
          "indexed": false,
          "name": "wallet",
          "type": "address"
        },
        {
          "indexed": false,
          "name": "walletFee",
          "type": "uint256"
        }
      ],
      "name": "AssignFeeToWallet",
      "type": "event",
      "signature": "0x366bc34352215bf0bd3b527cfd6718605e1f5938777e42bcd8ed92f578368f52"
    },
    {
      "anonymous": false,
      "inputs": [
        {
          "indexed": false,
          "name": "reserve",
          "type": "address"
        },
        {
          "indexed": false,
          "name": "burnFee",
          "type": "uint256"
        }
      ],
      "name": "AssignBurnFees",
      "type": "event",
      "signature": "0xf838f6ddc89706878e3c3e698e9b5cbfbf2c0e3d3dcd0bd2e00f1ccf313e0185"
    },
    {
      "anonymous": false,
      "inputs": [
        {
          "indexed": true,
          "name": "reserve",
          "type": "address"
        },
        {
          "indexed": false,
          "name": "sender",
          "type": "address"
        },
        {
          "indexed": false,
          "name": "quantity",
          "type": "uint256"
        }
      ],
      "name": "BurnAssignedFees",
      "type": "event",
      "signature": "0x2f8d2d194cbe1816411754a2fc9478a11f0707da481b11cff7c69791eb877ee1"
    },
    {
      "anonymous": false,
      "inputs": [
        {
          "indexed": true,
          "name": "reserve",
          "type": "address"
        },
        {
          "indexed": false,
          "name": "sender",
          "type": "address"
        },
        {
          "indexed": false,
          "name": "taxWallet",
          "type": "address"
        },
        {
          "indexed": false,
          "name": "quantity",
          "type": "uint256"
        }
      ],
      "name": "SendTaxFee",
      "type": "event",
      "signature": "0x540d888e67a7f36992e365be9fddab5e2fd60e27b220d330c18f04650fd562e0"
    },
    {
      "anonymous": false,
      "inputs": [
        {
          "indexed": true,
          "name": "wallet",
          "type": "address"
        },
        {
          "indexed": false,
          "name": "reserve",
          "type": "address"
        },
        {
          "indexed": false,
          "name": "sender",
          "type": "address"
        }
      ],
      "name": "SendWalletFees",
      "type": "event",
      "signature": "0xb3f3e7375c0c0c4f7dd94069a5a4e68667827491318da786c818b8c7a794924e"
    },
    {
      "anonymous": false,
      "inputs": [
        {
          "indexed": false,
          "name": "token",
          "type": "address"
        },
        {
          "indexed": false,
          "name": "amount",
          "type": "uint256"
        },
        {
          "indexed": false,
          "name": "sendTo",
          "type": "address"
        }
      ],
      "name": "TokenWithdraw",
      "type": "event",
      "signature": "0x72cb8a894ddb372ceec3d2a7648d86f17d5a15caae0e986c53109b8a9a9385e6"
    },
    {
      "anonymous": false,
      "inputs": [
        {
          "indexed": false,
          "name": "amount",
          "type": "uint256"
        },
        {
          "indexed": false,
          "name": "sendTo",
          "type": "address"
        }
      ],
      "name": "EtherWithdraw",
      "type": "event",
      "signature": "0xec47e7ed86c86774d1a72c19f35c639911393fe7c1a34031fdbd260890da90de"
    },
    {
      "anonymous": false,
      "inputs": [
        {
          "indexed": false,
          "name": "pendingAdmin",
          "type": "address"
        }
      ],
      "name": "TransferAdminPending",
      "type": "event",
      "signature": "0x3b81caf78fa51ecbc8acb482fd7012a277b428d9b80f9d156e8a54107496cc40"
    },
    {
      "anonymous": false,
      "inputs": [
        {
          "indexed": false,
          "name": "newAdmin",
          "type": "address"
        },
        {
          "indexed": false,
          "name": "previousAdmin",
          "type": "address"
        }
      ],
      "name": "AdminClaimed",
      "type": "event",
      "signature": "0x65da1cfc2c2e81576ad96afb24a581f8e109b7a403b35cbd3243a1c99efdb9ed"
    },
    {
      "anonymous": false,
      "inputs": [
        {
          "indexed": false,
          "name": "newAlerter",
          "type": "address"
        },
        {
          "indexed": false,
          "name": "isAdd",
          "type": "bool"
        }
      ],
      "name": "AlerterAdded",
      "type": "event",
      "signature": "0x5611bf3e417d124f97bf2c788843ea8bb502b66079fbee02158ef30b172cb762"
    },
    {
      "anonymous": false,
      "inputs": [
        {
          "indexed": false,
          "name": "newOperator",
          "type": "address"
        },
        {
          "indexed": false,
          "name": "isAdd",
          "type": "bool"
        }
      ],
      "name": "OperatorAdded",
      "type": "event",
      "signature": "0x091a7a4b85135fdd7e8dbc18b12fabe5cc191ea867aa3c2e1a24a102af61d58b"
    },
    {
      "constant": false,
      "inputs": [
        {
          "name": "reserve",
          "type": "address"
        },
        {
          "name": "feesInBps",
          "type": "uint256"
        },
        {
          "name": "kncWallet",
          "type": "address"
        }
      ],
      "name": "setReserveData",
      "outputs": [],
      "payable": false,
      "stateMutability": "nonpayable",
      "type": "function",
      "signature": "0x46b8c49e"
    },
    {
      "constant": false,
      "inputs": [
        {
          "name": "wallet",
          "type": "address"
        },
        {
          "name": "feesInBps",
          "type": "uint256"
        }
      ],
      "name": "setWalletFees",
      "outputs": [],
      "payable": false,
      "stateMutability": "nonpayable",
      "type": "function",
      "signature": "0x65dfc20f"
    },
    {
      "constant": false,
      "inputs": [
        {
          "name": "_taxFeeBps",
          "type": "uint256"
        }
      ],
      "name": "setTaxInBps",
      "outputs": [],
      "payable": false,
      "stateMutability": "nonpayable",
      "type": "function",
      "signature": "0x9fad2dcb"
    },
    {
      "constant": false,
      "inputs": [
        {
          "name": "_taxWallet",
          "type": "address"
        }
      ],
      "name": "setTaxWallet",
      "outputs": [],
      "payable": false,
      "stateMutability": "nonpayable",
      "type": "function",
      "signature": "0xea414b28"
    },
    {
      "constant": false,
      "inputs": [
        {
          "name": "rate",
          "type": "uint256"
        }
      ],
      "name": "setKNCRate",
      "outputs": [],
      "payable": false,
      "stateMutability": "nonpayable",
      "type": "function",
      "signature": "0x1e4b5652"
    },
    {
      "constant": false,
      "inputs": [
        {
          "name": "tradeWeiAmount",
          "type": "uint256"
        },
        {
          "name": "reserve",
          "type": "address"
        },
        {
          "name": "wallet",
          "type": "address"
        }
      ],
      "name": "handleFees",
      "outputs": [
        {
          "name": "",
          "type": "bool"
        }
      ],
      "payable": false,
      "stateMutability": "nonpayable",
      "type": "function",
      "signature": "0xfd062d3b"
    },
    {
      "constant": false,
      "inputs": [
        {
          "name": "reserve",
          "type": "address"
        }
      ],
      "name": "burnReserveFees",
      "outputs": [],
      "payable": false,
      "stateMutability": "nonpayable",
      "type": "function",
      "signature": "0xf6486cad"
    },
    {
      "constant": false,
      "inputs": [
        {
          "name": "wallet",
          "type": "address"
        },
        {
          "name": "reserve",
          "type": "address"
        }
      ],
      "name": "sendFeeToWallet",
      "outputs": [],
      "payable": false,
      "stateMutability": "nonpayable",
      "type": "function",
      "signature": "0xdd3ff4f6"
    }
  ],
  "bytecode": "0x60606040526000600e5561012c601155341561001a57600080fd5b60405160608061195783398101604052808051919060200180519190602001805160008054600160a060020a03191633600160a060020a039081169190911790915590925084161515905061006e57600080fd5b600160a060020a038216151561008357600080fd5b600160a060020a038116151561009857600080fd5b60108054600160a060020a03928316600160a060020a0319918216179091556000805494831694821694909417909355600f80549290911691909216179055611871806100e66000396000f30060606040526004361061017c5763ffffffff60e060020a60003504166301a12fd381146101815780630a377f3a146101a25780631e4b5652146101dd57806322dbf6d2146101f3578063267822471461022a57806327a099d81461023d5780632b84fe83146102a35780632dc0562d146102c2578063384c4d2f146102d55780633b215823146102f45780633ccdbb2814610307578063408ee7fe1461033057806345ab63b91461034f57806346b8c49e1461036e57806365dfc20f1461039757806375829def146103b957806377f50f97146103d85780637acc8678146103eb5780637c423f541461040a578063820b9f1e1461041d5780639870d7fe146104305780639fad2dcb1461044f578063ac8a584a14610465578063b78b842d14610484578063ce56c45414610497578063dc93f7c9146104b9578063dd3ff4f6146104d8578063e61387e0146104fd578063ea414b2814610510578063f6486cad1461052f578063f851a4401461054e578063fd062d3b14610561575b600080fd5b341561018c57600080fd5b6101a0600160a060020a036004351661059d565b005b34156101ad57600080fd5b6101c1600160a060020a036004351661070d565b604051600160a060020a03909116815260200160405180910390f35b34156101e857600080fd5b6101a0600435610728565b34156101fe57600080fd5b610218600160a060020a036004358116906024351661075f565b60405190815260200160405180910390f35b341561023557600080fd5b6101c161077c565b341561024857600080fd5b61025061078b565b60405160208082528190810183818151815260200191508051906020019060200280838360005b8381101561028f578082015183820152602001610277565b505050509050019250505060405180910390f35b34156102ae57600080fd5b610218600160a060020a03600435166107f4565b34156102cd57600080fd5b6101c1610806565b34156102e057600080fd5b610218600160a060020a0360043516610815565b34156102ff57600080fd5b610218610827565b341561031257600080fd5b6101a0600160a060020a03600435811690602435906044351661082d565b341561033b57600080fd5b6101a0600160a060020a0360043516610924565b341561035a57600080fd5b610218600160a060020a0360043516610a20565b341561037957600080fd5b6101a0600160a060020a036004358116906024359060443516610a32565b34156103a257600080fd5b6101a0600160a060020a0360043516602435610b08565b34156103c457600080fd5b6101a0600160a060020a0360043516610b97565b34156103e357600080fd5b6101a0610c32565b34156103f657600080fd5b6101a0600160a060020a0360043516610ccc565b341561041557600080fd5b610250610dae565b341561042857600080fd5b610218610e14565b341561043b57600080fd5b6101a0600160a060020a0360043516610e1a565b341561045a57600080fd5b6101a0600435610eea565b341561047057600080fd5b6101a0600160a060020a0360043516610f4e565b341561048f57600080fd5b6101c16110ba565b34156104a257600080fd5b6101a0600435600160a060020a03602435166110c9565b34156104c457600080fd5b610218600160a060020a036004351661115c565b34156104e357600080fd5b6101a0600160a060020a036004358116906024351661116e565b341561050857600080fd5b6101c16112de565b341561051b57600080fd5b6101a0600160a060020a03600435166112ed565b341561053a57600080fd5b6101a0600160a060020a0360043516611378565b341561055957600080fd5b6101c1611622565b341561056c57600080fd5b610589600435600160a060020a0360243581169060443516611631565b604051901515815260200160405180910390f35b6000805433600160a060020a039081169116146105b957600080fd5b600160a060020a03821660009081526003602052604090205460ff1615156105e057600080fd5b50600160a060020a0381166000908152600360205260408120805460ff191690555b6005548110156107095781600160a060020a031660058281548110151561062557fe5b600091825260209091200154600160a060020a031614156107015760058054600019810190811061065257fe5b60009182526020909120015460058054600160a060020a03909216918390811061067857fe5b60009182526020909120018054600160a060020a031916600160a060020a039290921691909117905560058054906106b49060001983016117ec565b507f5611bf3e417d124f97bf2c788843ea8bb502b66079fbee02158ef30b172cb762826000604051600160a060020a039092168252151560208201526040908101905180910390a1610709565b600101610602565b5050565b600860205260009081526040902054600160a060020a031681565b60005433600160a060020a0390811691161461074357600080fd5b69d3c21bcecceda100000081111561075a57600080fd5b601155565b600c60209081526000928352604080842090915290825290205481565b600154600160a060020a031681565b610793611815565b60048054806020026020016040519081016040528092919081815260200182805480156107e957602002820191906000526020600020905b8154600160a060020a031681526001909101906020018083116107cb575b505050505090505b90565b600a6020526000908152604090205481565b600d54600160a060020a031681565b60076020526000908152604090205481565b600e5481565b60005433600160a060020a0390811691161461084857600080fd5b82600160a060020a031663a9059cbb828460006040516020015260405160e060020a63ffffffff8516028152600160a060020a0390921660048301526024820152604401602060405180830381600087803b15156108a557600080fd5b6102c65a03f115156108b657600080fd5b5050506040518051905015156108cb57600080fd5b7f72cb8a894ddb372ceec3d2a7648d86f17d5a15caae0e986c53109b8a9a9385e6838383604051600160a060020a03938416815260208101929092529091166040808301919091526060909101905180910390a1505050565b60005433600160a060020a0390811691161461093f57600080fd5b600160a060020a03811660009081526003602052604090205460ff161561096557600080fd5b6005546032901061097557600080fd5b7f5611bf3e417d124f97bf2c788843ea8bb502b66079fbee02158ef30b172cb762816001604051600160a060020a039092168252151560208201526040908101905180910390a1600160a060020a0381166000908152600360205260409020805460ff1916600190811790915560058054909181016109f483826117ec565b5060009182526020909120018054600160a060020a031916600160a060020a0392909216919091179055565b60096020526000908152604090205481565b60005433600160a060020a03908116911614610a4d57600080fd5b60648210610a5a57600080fd5b600160a060020a0381161515610a6f57600080fd5b600160a060020a0383811660009081526007602090815260408083208690556008909152908190208054600160a060020a031916928416929092179091557f999efec8241b9b7a1d9c2d2e207cde178cb3a02ca6a94d070eecb369674ead6f9084908490849051600160a060020a03938416815260208101929092529091166040808301919091526060909101905180910390a1505050565b60005433600160a060020a03908116911614610b2357600080fd5b6127108110610b3157600080fd5b600160a060020a038216600090815260096020526040908190208290557f19f0c31fd2313f709ad6b9f15595720ff5765b72b394025288ac4f355fee0952908390839051600160a060020a03909216825260208201526040908101905180910390a15050565b60005433600160a060020a03908116911614610bb257600080fd5b600160a060020a0381161515610bc757600080fd5b6001547f3b81caf78fa51ecbc8acb482fd7012a277b428d9b80f9d156e8a54107496cc4090600160a060020a0316604051600160a060020a03909116815260200160405180910390a160018054600160a060020a031916600160a060020a0392909216919091179055565b60015433600160a060020a03908116911614610c4d57600080fd5b6001546000547f65da1cfc2c2e81576ad96afb24a581f8e109b7a403b35cbd3243a1c99efdb9ed91600160a060020a039081169116604051600160a060020a039283168152911660208201526040908101905180910390a16001805460008054600160a060020a0319908116600160a060020a03841617909155169055565b60005433600160a060020a03908116911614610ce757600080fd5b600160a060020a0381161515610cfc57600080fd5b7f3b81caf78fa51ecbc8acb482fd7012a277b428d9b80f9d156e8a54107496cc4081604051600160a060020a03909116815260200160405180910390a16000547f65da1cfc2c2e81576ad96afb24a581f8e109b7a403b35cbd3243a1c99efdb9ed908290600160a060020a0316604051600160a060020a039283168152911660208201526040908101905180910390a160008054600160a060020a031916600160a060020a0392909216919091179055565b610db6611815565b60058054806020026020016040519081016040528092919081815260200182805480156107e957602002820191906000526020600020908154600160a060020a031681526001909101906020018083116107cb575050505050905090565b60115481565b60005433600160a060020a03908116911614610e3557600080fd5b600160a060020a03811660009081526002602052604090205460ff1615610e5b57600080fd5b60045460329010610e6b57600080fd5b7f091a7a4b85135fdd7e8dbc18b12fabe5cc191ea867aa3c2e1a24a102af61d58b816001604051600160a060020a039092168252151560208201526040908101905180910390a1600160a060020a0381166000908152600260205260409020805460ff1916600190811790915560048054909181016109f483826117ec565b60005433600160a060020a03908116911614610f0557600080fd5b6127108110610f1357600080fd5b600e8190557f560f2dab6b3f89e548b63a9eabb6e43ec0e70bb81bdc69e5dc578c72bab629f58160405190815260200160405180910390a150565b6000805433600160a060020a03908116911614610f6a57600080fd5b600160a060020a03821660009081526002602052604090205460ff161515610f9157600080fd5b50600160a060020a0381166000908152600260205260408120805460ff191690555b6004548110156107095781600160a060020a0316600482815481101515610fd657fe5b600091825260209091200154600160a060020a031614156110b25760048054600019810190811061100357fe5b60009182526020909120015460048054600160a060020a03909216918390811061102957fe5b60009182526020909120018054600160a060020a031916600160a060020a039290921691909117905560048054600019019061106590826117ec565b507f091a7a4b85135fdd7e8dbc18b12fabe5cc191ea867aa3c2e1a24a102af61d58b826000604051600160a060020a039092168252151560208201526040908101905180910390a1610709565b600101610fb3565b601054600160a060020a031681565b60005433600160a060020a039081169116146110e457600080fd5b600160a060020a03811682156108fc0283604051600060405180830381858888f19350505050151561111557600080fd5b7fec47e7ed86c86774d1a72c19f35c639911393fe7c1a34031fdbd260890da90de8282604051918252600160a060020a031660208201526040908101905180910390a15050565b600b6020526000908152604090205481565b600160a060020a038082166000908152600c6020908152604080832093861683529290522054600181116111a157600080fd5b600160a060020a038083166000818152600c602090815260408083208886168452825280832060019055600f54938352600890915280822054928416936323b872dd931691879160001987019190516020015260405160e060020a63ffffffff8616028152600160a060020a0393841660048201529190921660248201526044810191909152606401602060405180830381600087803b151561124357600080fd5b6102c65a03f1151561125457600080fd5b50505060405180519050151561126957600080fd5b600160a060020a038083166000908152600b60205260409081902080548401600019019055908416907fb3f3e7375c0c0c4f7dd94069a5a4e68667827491318da786c818b8c7a794924e908490339051600160a060020a039283168152911660208201526040908101905180910390a2505050565b600f54600160a060020a031681565b60005433600160a060020a0390811691161461130857600080fd5b600160a060020a038116151561131d57600080fd5b600d8054600160a060020a031916600160a060020a0383161790557f847d0f7f2b16c8dd0b72c0606e65e8bf1b624633d37905b0e08145a295ab875881604051600160a060020a03909116815260200160405180910390a150565b600160a060020a0381166000908152600a6020526040812054906002821161139f57600080fd5b600160a060020a038084166000908152600a6020526040902060019055600d5416158015906113cf5750600e5415155b156115105750600e54612710600019830191820204908190116113f157600080fd5b8082039150600081111561151057600f54600160a060020a0384811660009081526008602052604080822054600d54948416946323b872dd9491821693911691869190516020015260405160e060020a63ffffffff8616028152600160a060020a0393841660048201529190921660248201526044810191909152606401602060405180830381600087803b151561148857600080fd5b6102c65a03f1151561149957600080fd5b5050506040518051905015156114ae57600080fd5b600d54600160a060020a03808516917f540d888e67a7f36992e365be9fddab5e2fd60e27b220d330c18f04650fd562e09133911684604051600160a060020a039384168152919092166020820152604080820192909252606001905180910390a25b600f54600160a060020a0384811660009081526008602052604080822054938316936379cc6790931691600019870191516020015260405160e060020a63ffffffff8516028152600160a060020a0390921660048301526024820152604401602060405180830381600087803b151561158857600080fd5b6102c65a03f1151561159957600080fd5b5050506040518051905015156115ae57600080fd5b600160a060020a0383166000818152600b6020526040908190208054848601016000199081019091557f2f8d2d194cbe1816411754a2fc9478a11f0707da481b11cff7c69791eb877ee191339186019051600160a060020a03909216825260208201526040908101905180910390a2505050565b600054600160a060020a031681565b601054600090819081908190819033600160a060020a0390811691161461165757600080fd5b6b204fce5e3e2502611000000088111561167057600080fd5b60115469d3c21bcecceda100000090111561168a57600080fd5b601154600160a060020a0388166000908152600760205260409020549089029450612710908502600160a060020a0388166000908152600960205260409020549190049350612710908402049150818310156116e557600080fd5b50808203600082111561177257600160a060020a038088166000908152600c60209081526040808320938a1683529290528190208054840190557f366bc34352215bf0bd3b527cfd6718605e1f5938777e42bcd8ed92f578368f529088908890859051600160a060020a039384168152919092166020820152604080820192909252606001905180910390a15b60008111156117de577ff838f6ddc89706878e3c3e698e9b5cbfbf2c0e3d3dcd0bd2e00f1ccf313e01858782604051600160a060020a03909216825260208201526040908101905180910390a1600160a060020a0387166000908152600a602052604090208054820190555b506001979650505050505050565b81548183558181151161181057600083815260209020611810918101908301611827565b505050565b60206040519081016040526000815290565b6107f191905b80821115611841576000815560010161182d565b50905600a165627a7a723058209ef13f85bdb2c82cdd865d5506c263829631a0579b33caa93c2433db55eb6a7f0029",
  "source": "pragma solidity 0.4.18;\r\n\r\n\r\nimport \"./FeeBurnerInterface.sol\";\r\nimport \"./Withdrawable.sol\";\r\nimport \"./Utils.sol\";\r\n\r\n\r\ninterface BurnableToken {\r\n    function transferFrom(address _from, address _to, uint _value) public returns (bool);\r\n    function burnFrom(address _from, uint256 _value) public returns (bool);\r\n}\r\n\r\n\r\ncontract FeeBurner is Withdrawable, FeeBurnerInterface, Utils {\r\n\r\n    mapping(address=>uint) public reserveFeesInBps;\r\n    mapping(address=>address) public reserveKNCWallet; //wallet holding knc per reserve. from here burn and send fees.\r\n    mapping(address=>uint) public walletFeesInBps; // wallet that is the source of tx is entitled so some fees.\r\n    mapping(address=>uint) public reserveFeeToBurn;\r\n    mapping(address=>uint) public feePayedPerReserve; // track burned fees and sent wallet fees per reserve.\r\n    mapping(address=>mapping(address=>uint)) public reserveFeeToWallet;\r\n    address public taxWallet;\r\n    uint public taxFeeBps = 0; // burned fees are taxed. % out of burned fees.\r\n\r\n    BurnableToken public knc;\r\n    address public kyberNetwork;\r\n    uint public kncPerETHRate = 300;\r\n\r\n    function FeeBurner(address _admin, BurnableToken kncToken, address _kyberNetwork) public {\r\n        require(_admin != address(0));\r\n        require(kncToken != address(0));\r\n        require(_kyberNetwork != address(0));\r\n        kyberNetwork = _kyberNetwork;\r\n        admin = _admin;\r\n        knc = kncToken;\r\n    }\r\n\r\n    event ReserveDataSet(address reserve, uint feeInBps, address kncWallet);\r\n    function setReserveData(address reserve, uint feesInBps, address kncWallet) public onlyAdmin {\r\n        require(feesInBps < 100); // make sure it is always < 1%\r\n        require(kncWallet != address(0));\r\n        reserveFeesInBps[reserve] = feesInBps;\r\n        reserveKNCWallet[reserve] = kncWallet;\r\n        ReserveDataSet(reserve, feesInBps, kncWallet);\r\n    }\r\n\r\n    event WalletFeesSet(address wallet, uint feesInBps);\r\n    function setWalletFees(address wallet, uint feesInBps) public onlyAdmin {\r\n        require(feesInBps < 10000); // under 100%\r\n        walletFeesInBps[wallet] = feesInBps;\r\n        WalletFeesSet(wallet, feesInBps);\r\n    }\r\n\r\n    event TaxFeesSet(uint feesInBps);\r\n    function setTaxInBps(uint _taxFeeBps) public onlyAdmin {\r\n        require(_taxFeeBps < 10000); // under 100%\r\n        taxFeeBps = _taxFeeBps;\r\n        TaxFeesSet(_taxFeeBps);\r\n    }\r\n\r\n    event TaxWalletSet(address taxWallet);\r\n    function setTaxWallet(address _taxWallet) public onlyAdmin {\r\n        require(_taxWallet != address(0));\r\n        taxWallet = _taxWallet;\r\n        TaxWalletSet(_taxWallet);\r\n    }\r\n\r\n    function setKNCRate(uint rate) public onlyAdmin {\r\n        require(rate <= MAX_RATE);\r\n        kncPerETHRate = rate;\r\n    }\r\n\r\n    event AssignFeeToWallet(address reserve, address wallet, uint walletFee);\r\n    event AssignBurnFees(address reserve, uint burnFee);\r\n\r\n    function handleFees(uint tradeWeiAmount, address reserve, address wallet) public returns(bool) {\r\n        require(msg.sender == kyberNetwork);\r\n        require(tradeWeiAmount <= MAX_QTY);\r\n        require(kncPerETHRate <= MAX_RATE);\r\n\r\n        uint kncAmount = tradeWeiAmount * kncPerETHRate;\r\n        uint fee = kncAmount * reserveFeesInBps[reserve] / 10000;\r\n\r\n        uint walletFee = fee * walletFeesInBps[wallet] / 10000;\r\n        require(fee >= walletFee);\r\n        uint feeToBurn = fee - walletFee;\r\n\r\n        if (walletFee > 0) {\r\n            reserveFeeToWallet[reserve][wallet] += walletFee;\r\n            AssignFeeToWallet(reserve, wallet, walletFee);\r\n        }\r\n\r\n        if (feeToBurn > 0) {\r\n            AssignBurnFees(reserve, feeToBurn);\r\n            reserveFeeToBurn[reserve] += feeToBurn;\r\n        }\r\n\r\n        return true;\r\n    }\r\n\r\n    event BurnAssignedFees(address indexed reserve, address sender, uint quantity);\r\n\r\n    event SendTaxFee(address indexed reserve, address sender, address taxWallet, uint quantity);\r\n\r\n    // this function is callable by anyone\r\n    function burnReserveFees(address reserve) public {\r\n        uint burnAmount = reserveFeeToBurn[reserve];\r\n        uint taxToSend = 0;\r\n        require(burnAmount > 2);\r\n        reserveFeeToBurn[reserve] = 1; // leave 1 twei to avoid spikes in gas fee\r\n        if (taxWallet != address(0) && taxFeeBps != 0) {\r\n            taxToSend = (burnAmount - 1) * taxFeeBps / 10000;\r\n            require(burnAmount - 1 > taxToSend);\r\n            burnAmount -= taxToSend;\r\n            if (taxToSend > 0) {\r\n                require(knc.transferFrom(reserveKNCWallet[reserve], taxWallet, taxToSend));\r\n                SendTaxFee(reserve, msg.sender, taxWallet, taxToSend);\r\n            }\r\n        }\r\n        require(knc.burnFrom(reserveKNCWallet[reserve], burnAmount - 1));\r\n\r\n        //update reserve \"payments\" so far\r\n        feePayedPerReserve[reserve] += (taxToSend + burnAmount - 1);\r\n\r\n        BurnAssignedFees(reserve, msg.sender, (burnAmount - 1));\r\n    }\r\n\r\n    event SendWalletFees(address indexed wallet, address reserve, address sender);\r\n\r\n    // this function is callable by anyone\r\n    function sendFeeToWallet(address wallet, address reserve) public {\r\n        uint feeAmount = reserveFeeToWallet[reserve][wallet];\r\n        require(feeAmount > 1);\r\n        reserveFeeToWallet[reserve][wallet] = 1; // leave 1 twei to avoid spikes in gas fee\r\n        require(knc.transferFrom(reserveKNCWallet[reserve], wallet, feeAmount - 1));\r\n\r\n        feePayedPerReserve[reserve] += (feeAmount - 1);\r\n        SendWalletFees(wallet, reserve, msg.sender);\r\n    }\r\n}\r\n",
  "sourcePath": "C:/Users/phangjunyu/desktop/ethsg-lenXe/kyber/contracts/FeeBurner.sol",
  "compiler": {
    "name": "solc",
    "version": "0.4.18+commit.9cf6e910.Emscripten.clang"
  },
  "schemaVersion": "3.0.0-beta.1",
  "updatedAt": "2018-12-08T20:25:56.212Z"
}