{
  "contractName": "KyberNetwork",
  "abi": [
    {
      "constant": false,
      "inputs": [
        {
          "name": "alerter",
          "type": "address"
        }
      ],
      "name": "removeAlerter",
      "outputs": [],
      "payable": false,
      "stateMutability": "nonpayable",
      "type": "function",
      "signature": "0x01a12fd3"
    },
    {
      "constant": true,
      "inputs": [
        {
          "name": "",
          "type": "bytes32"
        }
      ],
      "name": "infoFields",
      "outputs": [
        {
          "name": "",
          "type": "uint256"
        }
      ],
      "payable": false,
      "stateMutability": "view",
      "type": "function",
      "signature": "0x1610b59b"
    },
    {
      "constant": true,
      "inputs": [],
      "name": "pendingAdmin",
      "outputs": [
        {
          "name": "",
          "type": "address"
        }
      ],
      "payable": false,
      "stateMutability": "view",
      "type": "function",
      "signature": "0x26782247"
    },
    {
      "constant": true,
      "inputs": [],
      "name": "getOperators",
      "outputs": [
        {
          "name": "",
          "type": "address[]"
        }
      ],
      "payable": false,
      "stateMutability": "view",
      "type": "function",
      "signature": "0x27a099d8"
    },
    {
      "constant": true,
      "inputs": [
        {
          "name": "",
          "type": "address"
        },
        {
          "name": "",
          "type": "uint256"
        }
      ],
      "name": "reservesPerTokenSrc",
      "outputs": [
        {
          "name": "",
          "type": "address"
        }
      ],
      "payable": false,
      "stateMutability": "view",
      "type": "function",
      "signature": "0x2ab8fc2d"
    },
    {
      "constant": false,
      "inputs": [
        {
          "name": "token",
          "type": "address"
        },
        {
          "name": "amount",
          "type": "uint256"
        },
        {
          "name": "sendTo",
          "type": "address"
        }
      ],
      "name": "withdrawToken",
      "outputs": [],
      "payable": false,
      "stateMutability": "nonpayable",
      "type": "function",
      "signature": "0x3ccdbb28"
    },
    {
      "constant": false,
      "inputs": [
        {
          "name": "newAlerter",
          "type": "address"
        }
      ],
      "name": "addAlerter",
      "outputs": [],
      "payable": false,
      "stateMutability": "nonpayable",
      "type": "function",
      "signature": "0x408ee7fe"
    },
    {
      "constant": true,
      "inputs": [],
      "name": "negligibleRateDiff",
      "outputs": [
        {
          "name": "",
          "type": "uint256"
        }
      ],
      "payable": false,
      "stateMutability": "view",
      "type": "function",
      "signature": "0x4cef5a5c"
    },
    {
      "constant": true,
      "inputs": [],
      "name": "feeBurnerContract",
      "outputs": [
        {
          "name": "",
          "type": "address"
        }
      ],
      "payable": false,
      "stateMutability": "view",
      "type": "function",
      "signature": "0x579425b7"
    },
    {
      "constant": true,
      "inputs": [],
      "name": "expectedRateContract",
      "outputs": [
        {
          "name": "",
          "type": "address"
        }
      ],
      "payable": false,
      "stateMutability": "view",
      "type": "function",
      "signature": "0x5dada964"
    },
    {
      "constant": true,
      "inputs": [],
      "name": "whiteListContract",
      "outputs": [
        {
          "name": "",
          "type": "address"
        }
      ],
      "payable": false,
      "stateMutability": "view",
      "type": "function",
      "signature": "0x5ed5ea28"
    },
    {
      "constant": true,
      "inputs": [],
      "name": "isEnabled",
      "outputs": [
        {
          "name": "",
          "type": "bool"
        }
      ],
      "payable": false,
      "stateMutability": "view",
      "type": "function",
      "signature": "0x6aa633b6"
    },
    {
      "constant": false,
      "inputs": [
        {
          "name": "newAdmin",
          "type": "address"
        }
      ],
      "name": "transferAdmin",
      "outputs": [],
      "payable": false,
      "stateMutability": "nonpayable",
      "type": "function",
      "signature": "0x75829def"
    },
    {
      "constant": false,
      "inputs": [],
      "name": "claimAdmin",
      "outputs": [],
      "payable": false,
      "stateMutability": "nonpayable",
      "type": "function",
      "signature": "0x77f50f97"
    },
    {
      "constant": true,
      "inputs": [],
      "name": "kyberNetworkProxyContract",
      "outputs": [
        {
          "name": "",
          "type": "address"
        }
      ],
      "payable": false,
      "stateMutability": "view",
      "type": "function",
      "signature": "0x785250da"
    },
    {
      "constant": true,
      "inputs": [
        {
          "name": "",
          "type": "address"
        }
      ],
      "name": "isReserve",
      "outputs": [
        {
          "name": "",
          "type": "bool"
        }
      ],
      "payable": false,
      "stateMutability": "view",
      "type": "function",
      "signature": "0x7a2b0587"
    },
    {
      "constant": false,
      "inputs": [
        {
          "name": "newAdmin",
          "type": "address"
        }
      ],
      "name": "transferAdminQuickly",
      "outputs": [],
      "payable": false,
      "stateMutability": "nonpayable",
      "type": "function",
      "signature": "0x7acc8678"
    },
    {
      "constant": true,
      "inputs": [],
      "name": "getAlerters",
      "outputs": [
        {
          "name": "",
          "type": "address[]"
        }
      ],
      "payable": false,
      "stateMutability": "view",
      "type": "function",
      "signature": "0x7c423f54"
    },
    {
      "constant": true,
      "inputs": [
        {
          "name": "",
          "type": "uint256"
        }
      ],
      "name": "reserves",
      "outputs": [
        {
          "name": "",
          "type": "address"
        }
      ],
      "payable": false,
      "stateMutability": "view",
      "type": "function",
      "signature": "0x8334278d"
    },
    {
      "constant": true,
      "inputs": [
        {
          "name": "",
          "type": "address"
        },
        {
          "name": "",
          "type": "uint256"
        }
      ],
      "name": "reservesPerTokenDest",
      "outputs": [
        {
          "name": "",
          "type": "address"
        }
      ],
      "payable": false,
      "stateMutability": "view",
      "type": "function",
      "signature": "0x937e909b"
    },
    {
      "constant": false,
      "inputs": [
        {
          "name": "newOperator",
          "type": "address"
        }
      ],
      "name": "addOperator",
      "outputs": [],
      "payable": false,
      "stateMutability": "nonpayable",
      "type": "function",
      "signature": "0x9870d7fe"
    },
    {
      "constant": false,
      "inputs": [
        {
          "name": "operator",
          "type": "address"
        }
      ],
      "name": "removeOperator",
      "outputs": [],
      "payable": false,
      "stateMutability": "nonpayable",
      "type": "function",
      "signature": "0xac8a584a"
    },
    {
      "constant": true,
      "inputs": [],
      "name": "maxGasPriceValue",
      "outputs": [
        {
          "name": "",
          "type": "uint256"
        }
      ],
      "payable": false,
      "stateMutability": "view",
      "type": "function",
      "signature": "0xb2d111f6"
    },
    {
      "constant": false,
      "inputs": [
        {
          "name": "amount",
          "type": "uint256"
        },
        {
          "name": "sendTo",
          "type": "address"
        }
      ],
      "name": "withdrawEther",
      "outputs": [],
      "payable": false,
      "stateMutability": "nonpayable",
      "type": "function",
      "signature": "0xce56c454"
    },
    {
      "constant": true,
      "inputs": [
        {
          "name": "token",
          "type": "address"
        },
        {
          "name": "user",
          "type": "address"
        }
      ],
      "name": "getBalance",
      "outputs": [
        {
          "name": "",
          "type": "uint256"
        }
      ],
      "payable": false,
      "stateMutability": "view",
      "type": "function",
      "signature": "0xd4fac45d"
    },
    {
      "constant": true,
      "inputs": [],
      "name": "admin",
      "outputs": [
        {
          "name": "",
          "type": "address"
        }
      ],
      "payable": false,
      "stateMutability": "view",
      "type": "function",
      "signature": "0xf851a440"
    },
    {
      "inputs": [
        {
          "name": "_admin",
          "type": "address"
        }
      ],
      "payable": false,
      "stateMutability": "nonpayable",
      "type": "constructor",
      "signature": "constructor"
    },
    {
      "payable": true,
      "stateMutability": "payable",
      "type": "fallback"
    },
    {
      "anonymous": false,
      "inputs": [
        {
          "indexed": true,
          "name": "sender",
          "type": "address"
        },
        {
          "indexed": false,
          "name": "amount",
          "type": "uint256"
        }
      ],
      "name": "EtherReceival",
      "type": "event",
      "signature": "0x75f33ed68675112c77094e7c5b073890598be1d23e27cd7f6907b4a7d98ac619"
    },
    {
      "anonymous": false,
      "inputs": [
        {
          "indexed": false,
          "name": "reserve",
          "type": "address"
        },
        {
          "indexed": false,
          "name": "add",
          "type": "bool"
        }
      ],
      "name": "AddReserveToNetwork",
      "type": "event",
      "signature": "0x7752182b29e356eb432239f464340b4481e1b0bfad97f06aa2ff8cdc74611449"
    },
    {
      "anonymous": false,
      "inputs": [
        {
          "indexed": false,
          "name": "reserve",
          "type": "address"
        },
        {
          "indexed": false,
          "name": "src",
          "type": "address"
        },
        {
          "indexed": false,
          "name": "dest",
          "type": "address"
        },
        {
          "indexed": false,
          "name": "add",
          "type": "bool"
        }
      ],
      "name": "ListReservePairs",
      "type": "event",
      "signature": "0xadb5a4f14d89b3a5ffb3900ac1ea4574d991f93887f6199fabaf25393644e01c"
    },
    {
      "anonymous": false,
      "inputs": [
        {
          "indexed": false,
          "name": "proxy",
          "type": "address"
        },
        {
          "indexed": false,
          "name": "sender",
          "type": "address"
        }
      ],
      "name": "KyberProxySet",
      "type": "event",
      "signature": "0xfdd305502f7797ff3390aa08825f7f6aec92c27a94e103bfaf45452b4cf1d4f4"
    },
    {
      "anonymous": false,
      "inputs": [
        {
          "indexed": false,
          "name": "srcAddress",
          "type": "address"
        },
        {
          "indexed": false,
          "name": "srcToken",
          "type": "address"
        },
        {
          "indexed": false,
          "name": "srcAmount",
          "type": "uint256"
        },
        {
          "indexed": false,
          "name": "destAddress",
          "type": "address"
        },
        {
          "indexed": false,
          "name": "destToken",
          "type": "address"
        },
        {
          "indexed": false,
          "name": "destAmount",
          "type": "uint256"
        }
      ],
      "name": "KyberTrade",
      "type": "event",
      "signature": "0x1c8399ecc5c956b9cb18c820248b10b634cca4af308755e07cd467655e8ec3c7"
    },
    {
      "anonymous": false,
      "inputs": [
        {
          "indexed": false,
          "name": "token",
          "type": "address"
        },
        {
          "indexed": false,
          "name": "amount",
          "type": "uint256"
        },
        {
          "indexed": false,
          "name": "sendTo",
          "type": "address"
        }
      ],
      "name": "TokenWithdraw",
      "type": "event",
      "signature": "0x72cb8a894ddb372ceec3d2a7648d86f17d5a15caae0e986c53109b8a9a9385e6"
    },
    {
      "anonymous": false,
      "inputs": [
        {
          "indexed": false,
          "name": "amount",
          "type": "uint256"
        },
        {
          "indexed": false,
          "name": "sendTo",
          "type": "address"
        }
      ],
      "name": "EtherWithdraw",
      "type": "event",
      "signature": "0xec47e7ed86c86774d1a72c19f35c639911393fe7c1a34031fdbd260890da90de"
    },
    {
      "anonymous": false,
      "inputs": [
        {
          "indexed": false,
          "name": "pendingAdmin",
          "type": "address"
        }
      ],
      "name": "TransferAdminPending",
      "type": "event",
      "signature": "0x3b81caf78fa51ecbc8acb482fd7012a277b428d9b80f9d156e8a54107496cc40"
    },
    {
      "anonymous": false,
      "inputs": [
        {
          "indexed": false,
          "name": "newAdmin",
          "type": "address"
        },
        {
          "indexed": false,
          "name": "previousAdmin",
          "type": "address"
        }
      ],
      "name": "AdminClaimed",
      "type": "event",
      "signature": "0x65da1cfc2c2e81576ad96afb24a581f8e109b7a403b35cbd3243a1c99efdb9ed"
    },
    {
      "anonymous": false,
      "inputs": [
        {
          "indexed": false,
          "name": "newAlerter",
          "type": "address"
        },
        {
          "indexed": false,
          "name": "isAdd",
          "type": "bool"
        }
      ],
      "name": "AlerterAdded",
      "type": "event",
      "signature": "0x5611bf3e417d124f97bf2c788843ea8bb502b66079fbee02158ef30b172cb762"
    },
    {
      "anonymous": false,
      "inputs": [
        {
          "indexed": false,
          "name": "newOperator",
          "type": "address"
        },
        {
          "indexed": false,
          "name": "isAdd",
          "type": "bool"
        }
      ],
      "name": "OperatorAdded",
      "type": "event",
      "signature": "0x091a7a4b85135fdd7e8dbc18b12fabe5cc191ea867aa3c2e1a24a102af61d58b"
    },
    {
      "constant": false,
      "inputs": [
        {
          "name": "trader",
          "type": "address"
        },
        {
          "name": "src",
          "type": "address"
        },
        {
          "name": "srcAmount",
          "type": "uint256"
        },
        {
          "name": "dest",
          "type": "address"
        },
        {
          "name": "destAddress",
          "type": "address"
        },
        {
          "name": "maxDestAmount",
          "type": "uint256"
        },
        {
          "name": "minConversionRate",
          "type": "uint256"
        },
        {
          "name": "walletId",
          "type": "address"
        },
        {
          "name": "hint",
          "type": "bytes"
        }
      ],
      "name": "tradeWithHint",
      "outputs": [
        {
          "name": "",
          "type": "uint256"
        }
      ],
      "payable": true,
      "stateMutability": "payable",
      "type": "function",
      "signature": "0x088322ef"
    },
    {
      "constant": false,
      "inputs": [
        {
          "name": "reserve",
          "type": "address"
        },
        {
          "name": "add",
          "type": "bool"
        }
      ],
      "name": "addReserve",
      "outputs": [],
      "payable": false,
      "stateMutability": "nonpayable",
      "type": "function",
      "signature": "0xa0d7bb1b"
    },
    {
      "constant": false,
      "inputs": [
        {
          "name": "reserve",
          "type": "address"
        },
        {
          "name": "token",
          "type": "address"
        },
        {
          "name": "ethToToken",
          "type": "bool"
        },
        {
          "name": "tokenToEth",
          "type": "bool"
        },
        {
          "name": "add",
          "type": "bool"
        }
      ],
      "name": "listPairForReserve",
      "outputs": [],
      "payable": false,
      "stateMutability": "nonpayable",
      "type": "function",
      "signature": "0xe02584bf"
    },
    {
      "constant": false,
      "inputs": [
        {
          "name": "whiteList",
          "type": "address"
        }
      ],
      "name": "setWhiteList",
      "outputs": [],
      "payable": false,
      "stateMutability": "nonpayable",
      "type": "function",
      "signature": "0x39e899ee"
    },
    {
      "constant": false,
      "inputs": [
        {
          "name": "expectedRate",
          "type": "address"
        }
      ],
      "name": "setExpectedRate",
      "outputs": [],
      "payable": false,
      "stateMutability": "nonpayable",
      "type": "function",
      "signature": "0x5d270cdc"
    },
    {
      "constant": false,
      "inputs": [
        {
          "name": "feeBurner",
          "type": "address"
        }
      ],
      "name": "setFeeBurner",
      "outputs": [],
      "payable": false,
      "stateMutability": "nonpayable",
      "type": "function",
      "signature": "0x1a79464e"
    },
    {
      "constant": false,
      "inputs": [
        {
          "name": "_maxGasPrice",
          "type": "uint256"
        },
        {
          "name": "_negligibleRateDiff",
          "type": "uint256"
        }
      ],
      "name": "setParams",
      "outputs": [],
      "payable": false,
      "stateMutability": "nonpayable",
      "type": "function",
      "signature": "0xc0324c77"
    },
    {
      "constant": false,
      "inputs": [
        {
          "name": "_enable",
          "type": "bool"
        }
      ],
      "name": "setEnable",
      "outputs": [],
      "payable": false,
      "stateMutability": "nonpayable",
      "type": "function",
      "signature": "0x7726bed3"
    },
    {
      "constant": false,
      "inputs": [
        {
          "name": "field",
          "type": "bytes32"
        },
        {
          "name": "value",
          "type": "uint256"
        }
      ],
      "name": "setInfo",
      "outputs": [],
      "payable": false,
      "stateMutability": "nonpayable",
      "type": "function",
      "signature": "0x5f65d703"
    },
    {
      "constant": false,
      "inputs": [
        {
          "name": "networkProxy",
          "type": "address"
        }
      ],
      "name": "setKyberProxy",
      "outputs": [],
      "payable": false,
      "stateMutability": "nonpayable",
      "type": "function",
      "signature": "0xc6c3f3f9"
    },
    {
      "constant": true,
      "inputs": [],
      "name": "getNumReserves",
      "outputs": [
        {
          "name": "",
          "type": "uint256"
        }
      ],
      "payable": false,
      "stateMutability": "view",
      "type": "function",
      "signature": "0xcfff25bb"
    },
    {
      "constant": true,
      "inputs": [],
      "name": "getReserves",
      "outputs": [
        {
          "name": "",
          "type": "address[]"
        }
      ],
      "payable": false,
      "stateMutability": "view",
      "type": "function",
      "signature": "0x0902f1ac"
    },
    {
      "constant": true,
      "inputs": [],
      "name": "maxGasPrice",
      "outputs": [
        {
          "name": "",
          "type": "uint256"
        }
      ],
      "payable": false,
      "stateMutability": "view",
      "type": "function",
      "signature": "0x3de39c11"
    },
    {
      "constant": true,
      "inputs": [
        {
          "name": "src",
          "type": "address"
        },
        {
          "name": "dest",
          "type": "address"
        },
        {
          "name": "srcQty",
          "type": "uint256"
        }
      ],
      "name": "getExpectedRate",
      "outputs": [
        {
          "name": "expectedRate",
          "type": "uint256"
        },
        {
          "name": "slippageRate",
          "type": "uint256"
        }
      ],
      "payable": false,
      "stateMutability": "view",
      "type": "function",
      "signature": "0x809a9e55"
    },
    {
      "constant": true,
      "inputs": [
        {
          "name": "user",
          "type": "address"
        }
      ],
      "name": "getUserCapInWei",
      "outputs": [
        {
          "name": "",
          "type": "uint256"
        }
      ],
      "payable": false,
      "stateMutability": "view",
      "type": "function",
      "signature": "0x6432679f"
    },
    {
      "constant": true,
      "inputs": [
        {
          "name": "user",
          "type": "address"
        },
        {
          "name": "token",
          "type": "address"
        }
      ],
      "name": "getUserCapInTokenWei",
      "outputs": [
        {
          "name": "",
          "type": "uint256"
        }
      ],
      "payable": false,
      "stateMutability": "view",
      "type": "function",
      "signature": "0x8eaaeecf"
    },
    {
      "constant": true,
      "inputs": [
        {
          "name": "src",
          "type": "address"
        },
        {
          "name": "dest",
          "type": "address"
        },
        {
          "name": "srcAmount",
          "type": "uint256"
        }
      ],
      "name": "findBestRate",
      "outputs": [
        {
          "name": "obsolete",
          "type": "uint256"
        },
        {
          "name": "rate",
          "type": "uint256"
        }
      ],
      "payable": false,
      "stateMutability": "view",
      "type": "function",
      "signature": "0xb8388aca"
    },
    {
      "constant": true,
      "inputs": [],
      "name": "enabled",
      "outputs": [
        {
          "name": "",
          "type": "bool"
        }
      ],
      "payable": false,
      "stateMutability": "view",
      "type": "function",
      "signature": "0x238dafe0"
    },
    {
      "constant": true,
      "inputs": [
        {
          "name": "field",
          "type": "bytes32"
        }
      ],
      "name": "info",
      "outputs": [
        {
          "name": "",
          "type": "uint256"
        }
      ],
      "payable": false,
      "stateMutability": "view",
      "type": "function",
      "signature": "0xb64a097e"
    },
    {
      "constant": true,
      "inputs": [
        {
          "name": "src",
          "type": "address"
        },
        {
          "name": "dest",
          "type": "address"
        },
        {
          "name": "srcAmount",
          "type": "uint256"
        }
      ],
      "name": "searchBestRate",
      "outputs": [
        {
          "name": "",
          "type": "address"
        },
        {
          "name": "",
          "type": "uint256"
        }
      ],
      "payable": false,
      "stateMutability": "view",
      "type": "function",
      "signature": "0xab127a0c"
    }
  ],
  "bytecode": "0x6060604052600a600755640ba43b7400600e55600f805460ff19169055341561002757600080fd5b6040516020806130c98339810160405280805160008054600160a060020a03191633600160a060020a039081169190911790915590925082161515905061006d57600080fd5b60008054600160a060020a03909216600160a060020a031990921691909117905561302c8061009d6000396000f3006060604052600436106102165763ffffffff60e060020a60003504166301a12fd3811461027c578063088322ef1461029d5780630902f1ac1461032d5780631610b59b146103935780631a79464e146103a9578063238dafe0146103c857806326782247146103ef57806327a099d81461041e5780632ab8fc2d1461043157806339e899ee146104535780633ccdbb28146104725780633de39c111461049b578063408ee7fe146104ae5780634cef5a5c146104cd578063579425b7146104e05780635d270cdc146104f35780635dada964146105125780635ed5ea28146105255780635f65d703146105385780636432679f146105515780636aa633b61461057057806375829def146105835780637726bed3146105a257806377f50f97146105ba578063785250da146105cd5780637a2b0587146105e05780637acc8678146105ff5780637c423f541461061e578063809a9e55146106315780638334278d146106715780638eaaeecf14610687578063937e909b146106ac5780639870d7fe146106ce578063a0d7bb1b146106ed578063ab127a0c14610711578063ac8a584a1461075b578063b2d111f61461077a578063b64a097e1461078d578063b8388aca146107a3578063c0324c77146107cb578063c6c3f3f9146107e4578063ce56c45414610803578063cfff25bb14610825578063d4fac45d14610838578063e02584bf1461085d578063f851a44014610891575b600160a060020a03331660009081526009602052604090205460ff16151561023d57600080fd5b33600160a060020a03167f75f33ed68675112c77094e7c5b073890598be1d23e27cd7f6907b4a7d98ac6193460405190815260200160405180910390a2005b341561028757600080fd5b61029b600160a060020a03600435166108a4565b005b61031b600160a060020a0360048035821691602480358216926044359260643581169260843582169260a4359260c4359260e4359091169190610124906101043590810190830135806020601f82018190048102016040519081016040528181529291906020840183838082843750949650610a1495505050505050565b60405190815260200160405180910390f35b341561033857600080fd5b610340610aa6565b60405160208082528190810183818151815260200191508051906020019060200280838360005b8381101561037f578082015183820152602001610367565b505050509050019250505060405180910390f35b341561039e57600080fd5b61031b600435610b0f565b34156103b457600080fd5b61029b600160a060020a0360043516610b21565b34156103d357600080fd5b6103db610b73565b604051901515815260200160405180910390f35b34156103fa57600080fd5b610402610b7c565b604051600160a060020a03909116815260200160405180910390f35b341561042957600080fd5b610340610b8b565b341561043c57600080fd5b610402600160a060020a0360043516602435610bf1565b341561045e57600080fd5b61029b600160a060020a0360043516610c28565b341561047d57600080fd5b61029b600160a060020a036004358116906024359060443516610c7a565b34156104a657600080fd5b61031b610d71565b34156104b957600080fd5b61029b600160a060020a0360043516610d77565b34156104d857600080fd5b61031b610e73565b34156104eb57600080fd5b610402610e79565b34156104fe57600080fd5b61029b600160a060020a0360043516610e88565b341561051d57600080fd5b610402610eda565b341561053057600080fd5b610402610ee9565b341561054357600080fd5b61029b600435602435610ef8565b341561055c57600080fd5b61031b600160a060020a0360043516610f31565b341561057b57600080fd5b6103db610fac565b341561058e57600080fd5b61029b600160a060020a0360043516610fb5565b34156105ad57600080fd5b61029b6004351515611050565b34156105c557600080fd5b61029b6110e0565b34156105d857600080fd5b61040261117a565b34156105eb57600080fd5b6103db600160a060020a0360043516611189565b341561060a57600080fd5b61029b600160a060020a036004351661119e565b341561062957600080fd5b610340611280565b341561063c57600080fd5b610659600160a060020a03600435811690602435166044356112e6565b60405191825260208201526040908101905180910390f35b341561067c57600080fd5b61040260043561139a565b341561069257600080fd5b61031b600160a060020a03600435811690602435166113c2565b34156106b757600080fd5b610402600160a060020a03600435166024356113ce565b34156106d957600080fd5b61029b600160a060020a03600435166113e9565b34156106f857600080fd5b61029b600160a060020a036004351660243515156114b9565b341561071c57600080fd5b610739600160a060020a03600435811690602435166044356116d1565b604051600160a060020a03909216825260208201526040908101905180910390f35b341561076657600080fd5b61029b600160a060020a0360043516611ae8565b341561078557600080fd5b61031b611c54565b341561079857600080fd5b61031b600435611c5a565b34156107ae57600080fd5b610659600160a060020a0360043581169060243516604435611c6c565b34156107d657600080fd5b61029b600435602435611c95565b34156107ef57600080fd5b61029b600160a060020a0360043516611cca565b341561080e57600080fd5b61029b600435600160a060020a0360243516611d65565b341561083057600080fd5b61031b611df8565b341561084357600080fd5b61031b600160a060020a0360043581169060243516611dfe565b341561086857600080fd5b61029b600160a060020a0360043581169060243516604435151560643515156084351515611ea9565b341561089c57600080fd5b610402612110565b6000805433600160a060020a039081169116146108c057600080fd5b600160a060020a03821660009081526003602052604090205460ff1615156108e757600080fd5b50600160a060020a0381166000908152600360205260408120805460ff191690555b600554811015610a105781600160a060020a031660058281548110151561092c57fe5b600091825260209091200154600160a060020a03161415610a085760058054600019810190811061095957fe5b60009182526020909120015460058054600160a060020a03909216918390811061097f57fe5b60009182526020909120018054600160a060020a031916600160a060020a039290921691909117905560058054906109bb906000198301612ee9565b507f5611bf3e417d124f97bf2c788843ea8bb502b66079fbee02158ef30b172cb762826000604051600160a060020a039092168252151560208201526040908101905180910390a1610a10565b600101610909565b5050565b6000610a1e612f0d565b825115610a2a57600080fd5b600d5433600160a060020a03908116911614610a4557600080fd5b600160a060020a03808c1682528a81166020830152604082018a90528881166060830152878116608083015260a0820187905260c08201869052841660e08201526101008101839052610a978161211f565b9b9a5050505050505050505050565b610aae612f60565b6008805480602002602001604051908101604052809291908181526020018280548015610b0457602002820191906000526020600020905b8154600160a060020a03168152600190910190602001808311610ae6575b505050505090505b90565b60106020526000908152604090205481565b60005433600160a060020a03908116911614610b3c57600080fd5b600160a060020a0381161515610b5157600080fd5b600c8054600160a060020a031916600160a060020a0392909216919091179055565b600f5460ff1690565b600154600160a060020a031681565b610b93612f60565b6004805480602002602001604051908101604052809291908181526020018280548015610b0457602002820191906000526020600020908154600160a060020a03168152600190910190602001808311610ae6575050505050905090565b601160205281600052604060002081815481101515610c0c57fe5b600091825260209091200154600160a060020a03169150829050565b60005433600160a060020a03908116911614610c4357600080fd5b600160a060020a0381161515610c5857600080fd5b600a8054600160a060020a031916600160a060020a0392909216919091179055565b60005433600160a060020a03908116911614610c9557600080fd5b82600160a060020a031663a9059cbb828460006040516020015260405160e060020a63ffffffff8516028152600160a060020a0390921660048301526024820152604401602060405180830381600087803b1515610cf257600080fd5b6102c65a03f11515610d0357600080fd5b505050604051805190501515610d1857600080fd5b7f72cb8a894ddb372ceec3d2a7648d86f17d5a15caae0e986c53109b8a9a9385e6838383604051600160a060020a03938416815260208101929092529091166040808301919091526060909101905180910390a1505050565b600e5490565b60005433600160a060020a03908116911614610d9257600080fd5b600160a060020a03811660009081526003602052604090205460ff1615610db857600080fd5b60055460329010610dc857600080fd5b7f5611bf3e417d124f97bf2c788843ea8bb502b66079fbee02158ef30b172cb762816001604051600160a060020a039092168252151560208201526040908101905180910390a1600160a060020a0381166000908152600360205260409020805460ff191660019081179091556005805490918101610e478382612ee9565b5060009182526020909120018054600160a060020a031916600160a060020a0392909216919091179055565b60075481565b600c54600160a060020a031681565b60005433600160a060020a03908116911614610ea357600080fd5b600160a060020a0381161515610eb857600080fd5b600b8054600160a060020a031916600160a060020a0392909216919091179055565b600b54600160a060020a031681565b600a54600160a060020a031681565b600160a060020a03331660009081526002602052604090205460ff161515610f1f57600080fd5b60009182526010602052604090912055565b600a54600090600160a060020a0316636432679f83836040516020015260405160e060020a63ffffffff8416028152600160a060020a039091166004820152602401602060405180830381600087803b1515610f8c57600080fd5b6102c65a03f11515610f9d57600080fd5b50505060405180519392505050565b600f5460ff1681565b60005433600160a060020a03908116911614610fd057600080fd5b600160a060020a0381161515610fe557600080fd5b6001547f3b81caf78fa51ecbc8acb482fd7012a277b428d9b80f9d156e8a54107496cc4090600160a060020a0316604051600160a060020a03909116815260200160405180910390a160018054600160a060020a031916600160a060020a0392909216919091179055565b60005433600160a060020a0390811691161461106b57600080fd5b80156110cd57600a54600160a060020a0316151561108857600080fd5b600c54600160a060020a0316151561109f57600080fd5b600b54600160a060020a031615156110b657600080fd5b600d54600160a060020a031615156110cd57600080fd5b600f805460ff1916911515919091179055565b60015433600160a060020a039081169116146110fb57600080fd5b6001546000547f65da1cfc2c2e81576ad96afb24a581f8e109b7a403b35cbd3243a1c99efdb9ed91600160a060020a039081169116604051600160a060020a039283168152911660208201526040908101905180910390a16001805460008054600160a060020a0319908116600160a060020a03841617909155169055565b600d54600160a060020a031681565b60096020526000908152604090205460ff1681565b60005433600160a060020a039081169116146111b957600080fd5b600160a060020a03811615156111ce57600080fd5b7f3b81caf78fa51ecbc8acb482fd7012a277b428d9b80f9d156e8a54107496cc4081604051600160a060020a03909116815260200160405180910390a16000547f65da1cfc2c2e81576ad96afb24a581f8e109b7a403b35cbd3243a1c99efdb9ed908290600160a060020a0316604051600160a060020a039283168152911660208201526040908101905180910390a160008054600160a060020a031916600160a060020a0392909216919091179055565b611288612f60565b6005805480602002602001604051908101604052809291908181526020018280548015610b0457602002820191906000526020600020908154600160a060020a03168152600190910190602001808311610ae6575050505050905090565b600b546000908190600160a060020a0316151561130257600080fd5b600b54600160a060020a031663809a9e5586868660006040516040015260405160e060020a63ffffffff8616028152600160a060020a03938416600482015291909216602482015260448101919091526064016040805180830381600087803b151561136d57600080fd5b6102c65a03f1151561137e57600080fd5b5050506040518051906020018051905091509150935093915050565b60088054829081106113a857fe5b600091825260209091200154600160a060020a0316905081565b60008080fd5b92915050565b601260205281600052604060002081815481101515610c0c57fe5b60005433600160a060020a0390811691161461140457600080fd5b600160a060020a03811660009081526002602052604090205460ff161561142a57600080fd5b6004546032901061143a57600080fd5b7f091a7a4b85135fdd7e8dbc18b12fabe5cc191ea867aa3c2e1a24a102af61d58b816001604051600160a060020a039092168252151560208201526040908101905180910390a1600160a060020a0381166000908152600260205260409020805460ff191660019081179091556004805490918101610e478382612ee9565b6000805433600160a060020a039081169116146114d557600080fd5b81156115a357600160a060020a03831660009081526009602052604090205460ff161561150157600080fd5b60088054600181016115138382612ee9565b5060009182526020808320919091018054600160a060020a031916600160a060020a038716908117909155825260099052604090819020805460ff191660019081179091557f7752182b29e356eb432239f464340b4481e1b0bfad97f06aa2ff8cdc746114499185919051600160a060020a039092168252151560208201526040908101905180910390a16116cc565b50600160a060020a0382166000908152600960205260408120805460ff191690555b6008548110156116cc5782600160a060020a03166008828154811015156115e857fe5b600091825260209091200154600160a060020a031614156116c45760088054600019810190811061161557fe5b60009182526020909120015460088054600160a060020a03909216918390811061163b57fe5b60009182526020909120018054600160a060020a031916600160a060020a03929092169190911790556008805490611677906000198301612ee9565b507f7752182b29e356eb432239f464340b4481e1b0bfad97f06aa2ff8cdc74611449836000604051600160a060020a039092168252151560208201526040908101905180910390a16116cc565b6001016115c5565b505050565b60008060008060006116e1612f60565b6116e9612f60565b6116f1612f60565b600080600080985060009750600096508c600160a060020a03168e600160a060020a0316141561175057600880548990811061172957fe5b600091825260209091200154600160a060020a03169a50670de0b6b3a76400009950611ad7565b600160a060020a038e16600080516020612fe183398151915214156117f457601260008e600160a060020a0316600160a060020a031681526020019081526020016000208054806020026020016040519081016040528092919081815260200182805480156117e857602002820191906000526020600020905b8154600160a060020a031681526001909101906020018083116117ca575b50505050509550611875565b601160008f600160a060020a0316600160a060020a0316815260200190815260200160002080548060200260200160405190810160405280929190818152602001828054801561186d57602002820191906000526020600020905b8154600160a060020a0316815260019091019060200180831161184f575b505050505095505b855115156118ac57600880548990811061188b57fe5b600091825260209091200154600160a060020a03169a509798508897611ad7565b85516040518059106118bb5750595b9080825280602002602001820160405250945085516040518059106118dd5750595b90808252806020026020018201604052509350600092505b85518310156119f55785838151811061190a57fe5b90602001906020020151600160a060020a0316637cd442728f8f8f4360006040516020015260405160e060020a63ffffffff8716028152600160a060020a03948516600482015292909316602483015260448201526064810191909152608401602060405180830381600087803b151561198357600080fd5b6102c65a03f1151561199457600080fd5b505050604051805190508584815181106119aa57fe5b60209081029091010152888584815181106119c157fe5b9060200190602002015111156119ea578483815181106119dd57fe5b9060200190602002015198505b6001909201916118f5565b6000891115611abb5760009150600754612710018961271002811515611a1757fe5b049050600092505b8551831015611a6d5780858481518110611a3557fe5b9060200190602002015110611a625782848880600101995081518110611a5757fe5b602090810290910101525b600190920191611a1f565b6001871115611a8a5786600019430140811515611a8657fe5b0691505b838281518110611a9657fe5b906020019060200201519750848881518110611aae57fe5b9060200190602002015198505b858881518110611ac757fe5b90602001906020020151899a509a505b505050505050505050935093915050565b6000805433600160a060020a03908116911614611b0457600080fd5b600160a060020a03821660009081526002602052604090205460ff161515611b2b57600080fd5b50600160a060020a0381166000908152600260205260408120805460ff191690555b600454811015610a105781600160a060020a0316600482815481101515611b7057fe5b600091825260209091200154600160a060020a03161415611c4c57600480546000198101908110611b9d57fe5b60009182526020909120015460048054600160a060020a039092169183908110611bc357fe5b60009182526020909120018054600160a060020a031916600160a060020a0392909216919091179055600480546000190190611bff9082612ee9565b507f091a7a4b85135fdd7e8dbc18b12fabe5cc191ea867aa3c2e1a24a102af61d58b826000604051600160a060020a039092168252151560208201526040908101905180910390a1610a10565b600101611b4d565b600e5481565b60009081526010602052604090205490565b600080611c77612f72565b611c82868686612555565b9050600081519097909650945050505050565b60005433600160a060020a03908116911614611cb057600080fd5b612710811115611cbf57600080fd5b600e91909155600755565b60005433600160a060020a03908116911614611ce557600080fd5b600160a060020a0381161515611cfa57600080fd5b600d8054600160a060020a031916600160a060020a0383811691909117918290557ffdd305502f7797ff3390aa08825f7f6aec92c27a94e103bfaf45452b4cf1d4f4911633604051600160a060020a039283168152911660208201526040908101905180910390a150565b60005433600160a060020a03908116911614611d8057600080fd5b600160a060020a03811682156108fc0283604051600060405180830381858888f193505050501515611db157600080fd5b7fec47e7ed86c86774d1a72c19f35c639911393fe7c1a34031fdbd260890da90de8282604051918252600160a060020a031660208201526040908101905180910390a15050565b60085490565b6000600160a060020a038316600080516020612fe18339815191521415611e305750600160a060020a038116316113c8565b82600160a060020a03166370a082318360006040516020015260405160e060020a63ffffffff8416028152600160a060020a039091166004820152602401602060405180830381600087803b1515611e8757600080fd5b6102c65a03f11515611e9857600080fd5b5050506040518051905090506113c8565b60005433600160a060020a03908116911614611ec457600080fd5b600160a060020a03851660009081526009602052604090205460ff161515611eeb57600080fd5b8215611f6757611efe8585600084612631565b7fadb5a4f14d89b3a5ffb3900ac1ea4574d991f93887f6199fabaf25393644e01c85600080516020612fe18339815191528684604051600160a060020a039485168152928416602084015292166040808301919091529115156060820152608001905180910390a15b811561210057611f7a8585600184612631565b801561201e5783600160a060020a031663095ea7b3867f800000000000000000000000000000000000000000000000000000000000000060006040516020015260405160e060020a63ffffffff8516028152600160a060020a0390921660048301526024820152604401602060405180830381600087803b1515611ffd57600080fd5b6102c65a03f1151561200e57600080fd5b5050506040518051905050612097565b83600160a060020a031663095ea7b3866000806040516020015260405160e060020a63ffffffff8516028152600160a060020a0390921660048301526024820152604401602060405180830381600087803b151561207b57600080fd5b6102c65a03f1151561208c57600080fd5b505050604051805150505b7fadb5a4f14d89b3a5ffb3900ac1ea4574d991f93887f6199fabaf25393644e01c8585600080516020612fe183398151915284604051600160a060020a039485168152928416602084015292166040808301919091529115156060820152608001905180910390a15b6121098461277f565b5050505050565b600054600160a060020a031681565b6000612129612f72565b600f546000908190819060ff16151561214157600080fd5b600e543a111561215057600080fd5b61216c866020015187604001518860600151896080015161283c565b151561217757600080fd5b61218e866020015187606001518860400151612555565b9350600084511161219e57600080fd5b69d3c21bcecceda10000008451106121b557600080fd5b8560c00151845110156121c757600080fd5b6121e48660200151876060015188604001518960a0015188612958565b94509250905060408601518110156122dc57600080516020612fe18339815191526020870151600160a060020a03161415612258578551600160a060020a03166108fc828860400151039081150290604051600060405180830381858888f19350505050151561225357600080fd5b6122dc565b8560200151600160a060020a031663a9059cbb87518389604001510360006040516020015260405160e060020a63ffffffff8516028152600160a060020a0390921660048301526024820152604401602060405180830381600087803b15156122c057600080fd5b6102c65a03f115156122d157600080fd5b505050604051805150505b6122e68651610f31565b8211156122f257600080fd5b61231d866020015182600080516020612fe1833981519152308689602001518a6080015160016129da565b151561232857600080fd5b612357600080516020612fe183398151915283886060015189608001518789604001518a60a0015160016129da565b151561236257600080fd5b600080516020612fe18339815191526020870151600160a060020a03161461241b57600c54600160a060020a031663fd062d3b8360208701518960e0015160006040516020015260405160e060020a63ffffffff86160281526004810193909352600160a060020a039182166024840152166044820152606401602060405180830381600087803b15156123f557600080fd5b6102c65a03f1151561240657600080fd5b50505060405180519050151561241b57600080fd5b600080516020612fe18339815191526060870151600160a060020a0316146124d457600c54600160a060020a031663fd062d3b8360408701518960e0015160006040516020015260405160e060020a63ffffffff86160281526004810193909352600160a060020a039182166024840152166044820152606401602060405180830381600087803b15156124ae57600080fd5b6102c65a03f115156124bf57600080fd5b5050506040518051905015156124d457600080fd5b7f1c8399ecc5c956b9cb18c820248b10b634cca4af308755e07cd467655e8ec3c7865187602001518389608001518a6060015188604051600160a060020a03968716815294861660208601526040808601949094529185166060850152909316608083015260a082019290925260c001905180910390a15090949350505050565b61255d612f72565b61257684600080516020612fe1833981519152846116d1565b60808301908152600160a060020a0390911660208301526125ab908590600080516020612fe183398151915290859051612c17565b606082019081526125ce90600080516020612fe1833981519152908590516116d1565b60a0830152600160a060020a03166040820152612603600080516020612fe18339815191528460608401518460a00151612c17565b60c082019081526126289083905161261a87612c3e565b61262387612c3e565b612cfc565b81529392505050565b600160a060020a038316600090815260126020526040812083156126695750600160a060020a03841660009081526011602052604090205b600091505b805482101561272d57808281548110151561268557fe5b600091825260209091200154600160a060020a03878116911614156127225782156126af5761272d565b8054819060001981019081106126c157fe5b6000918252602090912001548154600160a060020a03909116908290849081106126e757fe5b60009182526020909120018054600160a060020a031916600160a060020a03929092169190911790558054612720826000198301612ee9565b505b60019091019061266e565b82801561273a5750805482145b156127775780548190600181016127518382612ee9565b5060009182526020909120018054600160a060020a031916600160a060020a0388161790555b505050505050565b600160a060020a038116600080516020612fe183398151915214156127bf57600160a060020a038116600090815260066020526040902060129055612839565b80600160a060020a031663313ce5676000604051602001526040518163ffffffff1660e060020a028152600401602060405180830381600087803b151561280557600080fd5b6102c65a03f1151561281657600080fd5b5050506040518051600160a060020a038316600090815260066020526040902055505b50565b60006b204fce5e3e2502611000000084111561285757600080fd5b83151561286357600080fd5b600160a060020a038216151561287857600080fd5b600160a060020a03858116908416141561289157600080fd5b600160a060020a038516600080516020612fe183398151915214156128c1573484146128bc57600080fd5b61294c565b34156128cc57600080fd5b8385600160a060020a03166370a082313060006040516020015260405160e060020a63ffffffff8416028152600160a060020a039091166004820152602401602060405180830381600087803b151561292457600080fd5b6102c65a03f1151561293557600080fd5b505050604051805190501015151561294c57600080fd5b5060015b949350505050565b6000806000848460c0015111156129bd575083612989600080516020612fe1833981519152888360a0880151612d97565b91506129a988600080516020612fe1833981519152848760800151612d97565b9250858311156129b857600080fd5b6129cf565b8360c001519050859250836060015191505b955095509592505050565b600080600160a060020a038a81169089161415612a465730600160a060020a031687600160a060020a0316141515612a3d57600160a060020a03871689156108fc028a604051600060405180830381858888f193505050501515612a3d57600080fd5b60019150612c0a565b600160a060020a038a16600080516020612fe18339815191521415612a685750875b84600160a060020a0316636cf69811828c8c8c308a8a60006040516020015260405160e060020a63ffffffff8a16028152600160a060020a0396871660048201526024810195909552928516604485015293166064830152608482019290925290151560a482015260c4016020604051808303818588803b1515612aeb57600080fd5b6125ee5a03f11515612afc57600080fd5b50505050604051805190501515612b1257600080fd5b30600160a060020a031687600160a060020a0316141515612c0557600160a060020a038816600080516020612fe18339815191521415612b8257600160a060020a03871686156108fc0287604051600060405180830381858888f193505050501515612b7d57600080fd5b612c05565b87600160a060020a031663a9059cbb888860006040516020015260405160e060020a63ffffffff8516028152600160a060020a0390921660048301526024820152604401602060405180830381600087803b1515612bdf57600080fd5b6102c65a03f11515612bf057600080fd5b505050604051805190501515612c0557600080fd5b600191505b5098975050505050505050565b6000612c3583612c2687612c3e565b612c2f87612c3e565b85612db5565b95945050505050565b600080600160a060020a038316600080516020612fe18339815191521415612c695760129150612cf6565b50600160a060020a038216600090815260066020526040902054801515612cf25782600160a060020a031663313ce5676000604051602001526040518163ffffffff1660e060020a028152600401602060405180830381600087803b1515612cd057600080fd5b6102c65a03f11515612ce157600080fd5b505050604051805190509150612cf6565b8091505b50919050565b60006b204fce5e3e25026110000000851115612d1757600080fd5b6b204fce5e3e25026110000000841115612d3057600080fd5b828210612d6b5760128383031115612d4757600080fd5b84838303600a0a02670de0b6b3a76400008502811515612d6357fe5b049050612950565b60128284031115612d7b57600080fd5b84828403600a0a670de0b6b3a7640000860202811515612d6357fe5b6000612c3583612da687612c3e565b612daf87612c3e565b85612e42565b60006b204fce5e3e25026110000000851115612dd057600080fd5b69d3c21bcecceda1000000821115612de757600080fd5b838310612e165760128484031115612dfe57600080fd5b670de0b6b3a7640000858302858503600a0a02612d63565b60128385031115612e2657600080fd5b828403600a0a670de0b6b3a764000002828602811515612d6357fe5b600080806b204fce5e3e25026110000000871115612e5f57600080fd5b69d3c21bcecceda1000000841115612e7657600080fd5b848610612ea75760128587031115612e8d57600080fd5b5050828403600a0a8502670de0b6b3a76400000282612ecd565b60128686031115612eb757600080fd5b5050670de0b6b3a76400008502848403600a0a83025b80600182840103811515612edd57fe5b04979650505050505050565b8154818355818115116116cc576000838152602090206116cc918101908301612fc2565b6101206040519081016040908152600080835260208301819052908201819052606082018190526080820181905260a0820181905260c0820181905260e08201526101008101612f5b612f60565b905290565b60206040519081016040526000815290565b60e060405190810160405280600081526020016000600160a060020a031681526020016000600160a060020a03168152602001600081526020016000815260200160008152602001600081525090565b610b0c91905b80821115612fdc5760008155600101612fc8565b50905600000000000000000000000000eeeeeeeeeeeeeeeeeeeeeeeeeeeeeeeeeeeeeeeea165627a7a7230582058ad026c10437c6c89d4ce72910fa7204d9acbb0538a71e5044d26f39c05d2830029",
  "source": "pragma solidity 0.4.18;\r\n\r\n\r\nimport \"./ERC20Interface.sol\";\r\nimport \"./KyberReserveInterface.sol\";\r\nimport \"./KyberNetworkInterface.sol\";\r\nimport \"./Withdrawable.sol\";\r\nimport \"./Utils2.sol\";\r\nimport \"./WhiteListInterface.sol\";\r\nimport \"./ExpectedRateInterface.sol\";\r\nimport \"./FeeBurnerInterface.sol\";\r\n\r\n\r\n////////////////////////////////////////////////////////////////////////////////////////////////////////\r\n/// @title Kyber Network main contract\r\ncontract KyberNetwork is Withdrawable, Utils2, KyberNetworkInterface {\r\n\r\n    uint public negligibleRateDiff = 10; // basic rate steps will be in 0.01%\r\n    KyberReserveInterface[] public reserves;\r\n    mapping(address=>bool) public isReserve;\r\n    WhiteListInterface public whiteListContract;\r\n    ExpectedRateInterface public expectedRateContract;\r\n    FeeBurnerInterface    public feeBurnerContract;\r\n    address               public kyberNetworkProxyContract;\r\n    uint                  public maxGasPriceValue = 50 * 1000 * 1000 * 1000; // 50 gwei\r\n    bool                  public isEnabled = false; // network is enabled\r\n    mapping(bytes32=>uint) public infoFields; // this is only a UI field for external app.\r\n    mapping(address=>address[]) public reservesPerTokenSrc; //reserves supporting token to eth\r\n    mapping(address=>address[]) public reservesPerTokenDest;//reserves support eth to token\r\n\r\n    function KyberNetwork(address _admin) public {\r\n        require(_admin != address(0));\r\n        admin = _admin;\r\n    }\r\n\r\n    event EtherReceival(address indexed sender, uint amount);\r\n\r\n    /* solhint-disable no-complex-fallback */\r\n    // To avoid users trying to swap tokens using default payable function. We added this short code\r\n    //  to verify Ethers will be received only from reserves if transferred without a specific function call.\r\n    function() public payable {\r\n        require(isReserve[msg.sender]);\r\n        EtherReceival(msg.sender, msg.value);\r\n    }\r\n    /* solhint-enable no-complex-fallback */\r\n\r\n    struct TradeInput {\r\n        address trader;\r\n        ERC20 src;\r\n        uint srcAmount;\r\n        ERC20 dest;\r\n        address destAddress;\r\n        uint maxDestAmount;\r\n        uint minConversionRate;\r\n        address walletId;\r\n        bytes hint;\r\n    }\r\n\r\n    function tradeWithHint(\r\n        address trader,\r\n        ERC20 src,\r\n        uint srcAmount,\r\n        ERC20 dest,\r\n        address destAddress,\r\n        uint maxDestAmount,\r\n        uint minConversionRate,\r\n        address walletId,\r\n        bytes hint\r\n    )\r\n        public\r\n        payable\r\n        returns(uint)\r\n    {\r\n        require(hint.length == 0);\r\n        require(msg.sender == kyberNetworkProxyContract);\r\n\r\n        TradeInput memory tradeInput;\r\n\r\n        tradeInput.trader = trader;\r\n        tradeInput.src = src;\r\n        tradeInput.srcAmount = srcAmount;\r\n        tradeInput.dest = dest;\r\n        tradeInput.destAddress = destAddress;\r\n        tradeInput.maxDestAmount = maxDestAmount;\r\n        tradeInput.minConversionRate = minConversionRate;\r\n        tradeInput.walletId = walletId;\r\n        tradeInput.hint = hint;\r\n\r\n        return trade(tradeInput);\r\n    }\r\n\r\n    event AddReserveToNetwork(KyberReserveInterface reserve, bool add);\r\n\r\n    /// @notice can be called only by admin\r\n    /// @dev add or deletes a reserve to/from the network.\r\n    /// @param reserve The reserve address.\r\n    /// @param add If true, the add reserve. Otherwise delete reserve.\r\n    function addReserve(KyberReserveInterface reserve, bool add) public onlyAdmin {\r\n\r\n        if (add) {\r\n            require(!isReserve[reserve]);\r\n            reserves.push(reserve);\r\n            isReserve[reserve] = true;\r\n            AddReserveToNetwork(reserve, true);\r\n        } else {\r\n            isReserve[reserve] = false;\r\n            // will have trouble if more than 50k reserves...\r\n            for (uint i = 0; i < reserves.length; i++) {\r\n                if (reserves[i] == reserve) {\r\n                    reserves[i] = reserves[reserves.length - 1];\r\n                    reserves.length--;\r\n                    AddReserveToNetwork(reserve, false);\r\n                    break;\r\n                }\r\n            }\r\n        }\r\n    }\r\n\r\n    event ListReservePairs(address reserve, ERC20 src, ERC20 dest, bool add);\r\n\r\n    /// @notice can be called only by admin\r\n    /// @dev allow or prevent a specific reserve to trade a pair of tokens\r\n    /// @param reserve The reserve address.\r\n    /// @param token token address\r\n    /// @param ethToToken will it support ether to token trade\r\n    /// @param tokenToEth will it support token to ether trade\r\n    /// @param add If true then list this pair, otherwise unlist it.\r\n    function listPairForReserve(address reserve, ERC20 token, bool ethToToken, bool tokenToEth, bool add)\r\n        public onlyAdmin\r\n    {\r\n        require(isReserve[reserve]);\r\n\r\n        if (ethToToken) {\r\n            listPairs(reserve, token, false, add);\r\n\r\n            ListReservePairs(reserve, ETH_TOKEN_ADDRESS, token, add);\r\n        }\r\n\r\n        if (tokenToEth) {\r\n            listPairs(reserve, token, true, add);\r\n            if (add) {\r\n                token.approve(reserve, 2**255); // approve infinity\r\n            } else {\r\n                token.approve(reserve, 0);\r\n            }\r\n\r\n            ListReservePairs(reserve, token, ETH_TOKEN_ADDRESS, add);\r\n        }\r\n\r\n        setDecimals(token);\r\n    }\r\n\r\n    function setWhiteList(WhiteListInterface whiteList) public onlyAdmin {\r\n        require(whiteList != address(0));\r\n        whiteListContract = whiteList;\r\n    }\r\n\r\n    function setExpectedRate(ExpectedRateInterface expectedRate) public onlyAdmin {\r\n        require(expectedRate != address(0));\r\n        expectedRateContract = expectedRate;\r\n    }\r\n\r\n    function setFeeBurner(FeeBurnerInterface feeBurner) public onlyAdmin {\r\n        require(feeBurner != address(0));\r\n        feeBurnerContract = feeBurner;\r\n    }\r\n\r\n    function setParams(\r\n        uint                  _maxGasPrice,\r\n        uint                  _negligibleRateDiff\r\n    )\r\n        public\r\n        onlyAdmin\r\n    {\r\n        require(_negligibleRateDiff <= 100 * 100); // at most 100%\r\n\r\n        maxGasPriceValue = _maxGasPrice;\r\n        negligibleRateDiff = _negligibleRateDiff;\r\n    }\r\n\r\n    function setEnable(bool _enable) public onlyAdmin {\r\n        if (_enable) {\r\n            require(whiteListContract != address(0));\r\n            require(feeBurnerContract != address(0));\r\n            require(expectedRateContract != address(0));\r\n            require(kyberNetworkProxyContract != address(0));\r\n        }\r\n        isEnabled = _enable;\r\n    }\r\n\r\n    function setInfo(bytes32 field, uint value) public onlyOperator {\r\n        infoFields[field] = value;\r\n    }\r\n\r\n    event KyberProxySet(address proxy, address sender);\r\n\r\n    function setKyberProxy(address networkProxy) public onlyAdmin {\r\n        require(networkProxy != address(0));\r\n        kyberNetworkProxyContract = networkProxy;\r\n        KyberProxySet(kyberNetworkProxyContract, msg.sender);\r\n    }\r\n\r\n    /// @dev returns number of reserves\r\n    /// @return number of reserves\r\n    function getNumReserves() public view returns(uint) {\r\n        return reserves.length;\r\n    }\r\n\r\n    /// @notice should be called off chain with as much gas as needed\r\n    /// @dev get an array of all reserves\r\n    /// @return An array of all reserves\r\n    function getReserves() public view returns(KyberReserveInterface[]) {\r\n        return reserves;\r\n    }\r\n\r\n    function maxGasPrice() public view returns(uint) {\r\n        return maxGasPriceValue;\r\n    }\r\n\r\n    function getExpectedRate(ERC20 src, ERC20 dest, uint srcQty)\r\n        public view\r\n        returns(uint expectedRate, uint slippageRate)\r\n    {\r\n        require(expectedRateContract != address(0));\r\n        return expectedRateContract.getExpectedRate(src, dest, srcQty);\r\n    }\r\n\r\n    function getUserCapInWei(address user) public view returns(uint) {\r\n        return whiteListContract.getUserCapInWei(user);\r\n    }\r\n\r\n    function getUserCapInTokenWei(address user, ERC20 token) public view returns(uint) {\r\n        //future feature\r\n        user;\r\n        token;\r\n        require(false);\r\n    }\r\n\r\n    struct BestRateResult {\r\n        uint rate;\r\n        address reserve1;\r\n        address reserve2;\r\n        uint weiAmount;\r\n        uint rateSrcToEth;\r\n        uint rateEthToDest;\r\n        uint destAmount;\r\n    }\r\n\r\n    /// @notice use token address ETH_TOKEN_ADDRESS for ether\r\n    /// @dev best conversion rate for a pair of tokens, if number of reserves have small differences. randomize\r\n    /// @param src Src token\r\n    /// @param dest Destination token\r\n    /// @return obsolete - used to return best reserve index. not relevant anymore for this API.\r\n    function findBestRate(ERC20 src, ERC20 dest, uint srcAmount) public view returns(uint obsolete, uint rate) {\r\n        BestRateResult memory result = findBestRateTokenToToken(src, dest, srcAmount);\r\n        return(0, result.rate);\r\n    }\r\n\r\n    function enabled() public view returns(bool) {\r\n        return isEnabled;\r\n    }\r\n\r\n    function info(bytes32 field) public view returns(uint) {\r\n        return infoFields[field];\r\n    }\r\n\r\n    /* solhint-disable code-complexity */\r\n    // Not sure how solhing defines complexity. Anyway, from our point of view, below code follows the required\r\n    //  algorithm to choose a reserve, it has been tested, reviewed and found to be clear enough.\r\n    //@dev this function always src or dest are ether. can't do token to token\r\n    function searchBestRate(ERC20 src, ERC20 dest, uint srcAmount) public view returns(address, uint) {\r\n        uint bestRate = 0;\r\n        uint bestReserve = 0;\r\n        uint numRelevantReserves = 0;\r\n\r\n        //return 1 for ether to ether\r\n        if (src == dest) return (reserves[bestReserve], PRECISION);\r\n\r\n        address[] memory reserveArr;\r\n\r\n        if (src == ETH_TOKEN_ADDRESS) {\r\n            reserveArr = reservesPerTokenDest[dest];\r\n        } else {\r\n            reserveArr = reservesPerTokenSrc[src];\r\n        }\r\n\r\n        if (reserveArr.length == 0) return (reserves[bestReserve], bestRate);\r\n\r\n        uint[] memory rates = new uint[](reserveArr.length);\r\n        uint[] memory reserveCandidates = new uint[](reserveArr.length);\r\n\r\n        for (uint i = 0; i < reserveArr.length; i++) {\r\n            //list all reserves that have this token.\r\n            rates[i] = (KyberReserveInterface(reserveArr[i])).getConversionRate(src, dest, srcAmount, block.number);\r\n\r\n            if (rates[i] > bestRate) {\r\n                //best rate is highest rate\r\n                bestRate = rates[i];\r\n            }\r\n        }\r\n\r\n        if (bestRate > 0) {\r\n            uint random = 0;\r\n            uint smallestRelevantRate = (bestRate * 10000) / (10000 + negligibleRateDiff);\r\n\r\n            for (i = 0; i < reserveArr.length; i++) {\r\n                if (rates[i] >= smallestRelevantRate) {\r\n                    reserveCandidates[numRelevantReserves++] = i;\r\n                }\r\n            }\r\n\r\n            if (numRelevantReserves > 1) {\r\n                //when encountering small rate diff from bestRate. draw from relevant reserves\r\n                random = uint(block.blockhash(block.number-1)) % numRelevantReserves;\r\n            }\r\n\r\n            bestReserve = reserveCandidates[random];\r\n            bestRate = rates[bestReserve];\r\n        }\r\n\r\n        return (reserveArr[bestReserve], bestRate);\r\n    }\r\n    /* solhint-enable code-complexity */\r\n\r\n    function findBestRateTokenToToken(ERC20 src, ERC20 dest, uint srcAmount) internal view\r\n        returns(BestRateResult result)\r\n    {\r\n        (result.reserve1, result.rateSrcToEth) = searchBestRate(src, ETH_TOKEN_ADDRESS, srcAmount);\r\n        result.weiAmount = calcDestAmount(src, ETH_TOKEN_ADDRESS, srcAmount, result.rateSrcToEth);\r\n\r\n        (result.reserve2, result.rateEthToDest) = searchBestRate(ETH_TOKEN_ADDRESS, dest, result.weiAmount);\r\n        result.destAmount = calcDestAmount(ETH_TOKEN_ADDRESS, dest, result.weiAmount, result.rateEthToDest);\r\n\r\n        result.rate = calcRateFromQty(srcAmount, result.destAmount, getDecimals(src), getDecimals(dest));\r\n    }\r\n\r\n    function listPairs(address reserve, ERC20 token, bool isTokenToEth, bool add) internal {\r\n        uint i;\r\n        address[] storage reserveArr = reservesPerTokenDest[token];\r\n\r\n        if (isTokenToEth) {\r\n            reserveArr = reservesPerTokenSrc[token];\r\n        }\r\n\r\n        for (i = 0; i < reserveArr.length; i++) {\r\n            if (reserve == reserveArr[i]) {\r\n                if (add) {\r\n                    break; //already added\r\n                } else {\r\n                    //remove\r\n                    reserveArr[i] = reserveArr[reserveArr.length - 1];\r\n                    reserveArr.length--;\r\n                }\r\n            }\r\n        }\r\n\r\n        if (add && i == reserveArr.length) {\r\n            //if reserve wasn't found add it\r\n            reserveArr.push(reserve);\r\n        }\r\n    }\r\n\r\n    event KyberTrade(address srcAddress, ERC20 srcToken, uint srcAmount, address destAddress, ERC20 destToken,\r\n        uint destAmount);\r\n    /* solhint-disable function-max-lines */\r\n    // Most of the lins here are functions calls spread over multiple lines. We find this function readable enough\r\n    //  and keep its size as is.\r\n    /// @notice use token address ETH_TOKEN_ADDRESS for ether\r\n    /// @dev trade api for kyber network.\r\n    /// @param tradeInput structure of trade inputs\r\n    function trade(TradeInput tradeInput) internal returns(uint) {\r\n        require(isEnabled);\r\n        require(tx.gasprice <= maxGasPriceValue);\r\n        require(validateTradeInput(tradeInput.src, tradeInput.srcAmount, tradeInput.dest, tradeInput.destAddress));\r\n\r\n        BestRateResult memory rateResult =\r\n        findBestRateTokenToToken(tradeInput.src, tradeInput.dest, tradeInput.srcAmount);\r\n\r\n        require(rateResult.rate > 0);\r\n        require(rateResult.rate < MAX_RATE);\r\n        require(rateResult.rate >= tradeInput.minConversionRate);\r\n\r\n        uint actualDestAmount;\r\n        uint weiAmount;\r\n        uint actualSrcAmount;\r\n\r\n        (actualSrcAmount, weiAmount, actualDestAmount) = calcActualAmounts(tradeInput.src,\r\n            tradeInput.dest,\r\n            tradeInput.srcAmount,\r\n            tradeInput.maxDestAmount,\r\n            rateResult);\r\n\r\n        if (actualSrcAmount < tradeInput.srcAmount) {\r\n            //if there is \"change\" send back to trader\r\n            if (tradeInput.src == ETH_TOKEN_ADDRESS) {\r\n                tradeInput.trader.transfer(tradeInput.srcAmount - actualSrcAmount);\r\n            } else {\r\n                tradeInput.src.transfer(tradeInput.trader, (tradeInput.srcAmount - actualSrcAmount));\r\n            }\r\n        }\r\n\r\n        // verify trade size is smaller than user cap\r\n        require(weiAmount <= getUserCapInWei(tradeInput.trader));\r\n\r\n        //do the trade\r\n        //src to ETH\r\n        require(doReserveTrade(\r\n                tradeInput.src,\r\n                actualSrcAmount,\r\n                ETH_TOKEN_ADDRESS,\r\n                this,\r\n                weiAmount,\r\n                KyberReserveInterface(rateResult.reserve1),\r\n                rateResult.rateSrcToEth,\r\n                true));\r\n\r\n        //Eth to dest\r\n        require(doReserveTrade(\r\n                ETH_TOKEN_ADDRESS,\r\n                weiAmount,\r\n                tradeInput.dest,\r\n                tradeInput.destAddress,\r\n                actualDestAmount,\r\n                KyberReserveInterface(rateResult.reserve2),\r\n                rateResult.rateEthToDest,\r\n                true));\r\n\r\n        //when src is ether, reserve1 is doing a \"fake\" trade. (ether to ether) - don't burn.\r\n        //when dest is ether, reserve2 is doing a \"fake\" trade. (ether to ether) - don't burn.\r\n        if (tradeInput.src != ETH_TOKEN_ADDRESS)\r\n            require(feeBurnerContract.handleFees(weiAmount, rateResult.reserve1, tradeInput.walletId));\r\n        if (tradeInput.dest != ETH_TOKEN_ADDRESS)\r\n            require(feeBurnerContract.handleFees(weiAmount, rateResult.reserve2, tradeInput.walletId));\r\n\r\n        KyberTrade(tradeInput.trader, tradeInput.src, actualSrcAmount, tradeInput.destAddress, tradeInput.dest,\r\n            actualDestAmount);\r\n\r\n        return actualDestAmount;\r\n    }\r\n    /* solhint-enable function-max-lines */\r\n\r\n    function calcActualAmounts (ERC20 src, ERC20 dest, uint srcAmount, uint maxDestAmount, BestRateResult rateResult)\r\n        internal view returns(uint actualSrcAmount, uint weiAmount, uint actualDestAmount)\r\n    {\r\n        if (rateResult.destAmount > maxDestAmount) {\r\n            actualDestAmount = maxDestAmount;\r\n            weiAmount = calcSrcAmount(ETH_TOKEN_ADDRESS, dest, actualDestAmount, rateResult.rateEthToDest);\r\n            actualSrcAmount = calcSrcAmount(src, ETH_TOKEN_ADDRESS, weiAmount, rateResult.rateSrcToEth);\r\n            require(actualSrcAmount <= srcAmount);\r\n        } else {\r\n            actualDestAmount = rateResult.destAmount;\r\n            actualSrcAmount = srcAmount;\r\n            weiAmount = rateResult.weiAmount;\r\n        }\r\n    }\r\n\r\n    /// @notice use token address ETH_TOKEN_ADDRESS for ether\r\n    /// @dev do one trade with a reserve\r\n    /// @param src Src token\r\n    /// @param amount amount of src tokens\r\n    /// @param dest   Destination token\r\n    /// @param destAddress Address to send tokens to\r\n    /// @param reserve Reserve to use\r\n    /// @param validate If true, additional validations are applicable\r\n    /// @return true if trade is successful\r\n    function doReserveTrade(\r\n        ERC20 src,\r\n        uint amount,\r\n        ERC20 dest,\r\n        address destAddress,\r\n        uint expectedDestAmount,\r\n        KyberReserveInterface reserve,\r\n        uint conversionRate,\r\n        bool validate\r\n    )\r\n        internal\r\n        returns(bool)\r\n    {\r\n        uint callValue = 0;\r\n\r\n        if (src == dest) {\r\n            //this is for a \"fake\" trade when both src and dest are ethers.\r\n            if (destAddress != (address(this)))\r\n                destAddress.transfer(amount);\r\n            return true;\r\n        }\r\n\r\n        if (src == ETH_TOKEN_ADDRESS) {\r\n            callValue = amount;\r\n        }\r\n\r\n        // reserve sends tokens/eth to network. network sends it to destination\r\n        require(reserve.trade.value(callValue)(src, amount, dest, this, conversionRate, validate));\r\n\r\n        if (destAddress != address(this)) {\r\n            //for token to token dest address is network. and Ether / token already here...\r\n            if (dest == ETH_TOKEN_ADDRESS) {\r\n                destAddress.transfer(expectedDestAmount);\r\n            } else {\r\n                require(dest.transfer(destAddress, expectedDestAmount));\r\n            }\r\n        }\r\n\r\n        return true;\r\n    }\r\n\r\n    /// @notice use token address ETH_TOKEN_ADDRESS for ether\r\n    /// @dev checks that user sent ether/tokens to contract before trade\r\n    /// @param src Src token\r\n    /// @param srcAmount amount of src tokens\r\n    /// @return true if tradeInput is valid\r\n    function validateTradeInput(ERC20 src, uint srcAmount, ERC20 dest, address destAddress)\r\n        internal\r\n        view\r\n        returns(bool)\r\n    {\r\n        require(srcAmount <= MAX_QTY);\r\n        require(srcAmount != 0);\r\n        require(destAddress != address(0));\r\n        require(src != dest);\r\n\r\n        if (src == ETH_TOKEN_ADDRESS) {\r\n            require(msg.value == srcAmount);\r\n        } else {\r\n            require(msg.value == 0);\r\n            //funds should have been moved to this contract already.\r\n            require(src.balanceOf(this) >= srcAmount);\r\n        }\r\n\r\n        return true;\r\n    }\r\n}\r\n",
  "sourcePath": "C:\\Users\\phangjunyu\\desktop\\ethsg-lenXe\\kyber\\contracts\\KyberNetwork.sol",
  "compiler": {
    "name": "solc",
    "version": "0.4.18+commit.9cf6e910.Emscripten.clang"
  },
  "schemaVersion": "3.0.0-beta.1",
  "updatedAt": "2018-12-08T20:25:56.261Z"
}