{
  "contractName": "KyberReserve",
  "abi": [
    {
      "constant": false,
      "inputs": [
        {
          "name": "alerter",
          "type": "address"
        }
      ],
      "name": "removeAlerter",
      "outputs": [],
      "payable": false,
      "stateMutability": "nonpayable",
      "type": "function",
      "signature": "0x01a12fd3"
    },
    {
      "constant": true,
      "inputs": [],
      "name": "pendingAdmin",
      "outputs": [
        {
          "name": "",
          "type": "address"
        }
      ],
      "payable": false,
      "stateMutability": "view",
      "type": "function",
      "signature": "0x26782247"
    },
    {
      "constant": true,
      "inputs": [],
      "name": "getOperators",
      "outputs": [
        {
          "name": "",
          "type": "address[]"
        }
      ],
      "payable": false,
      "stateMutability": "view",
      "type": "function",
      "signature": "0x27a099d8"
    },
    {
      "constant": false,
      "inputs": [
        {
          "name": "token",
          "type": "address"
        },
        {
          "name": "amount",
          "type": "uint256"
        },
        {
          "name": "sendTo",
          "type": "address"
        }
      ],
      "name": "withdrawToken",
      "outputs": [],
      "payable": false,
      "stateMutability": "nonpayable",
      "type": "function",
      "signature": "0x3ccdbb28"
    },
    {
      "constant": false,
      "inputs": [
        {
          "name": "newAlerter",
          "type": "address"
        }
      ],
      "name": "addAlerter",
      "outputs": [],
      "payable": false,
      "stateMutability": "nonpayable",
      "type": "function",
      "signature": "0x408ee7fe"
    },
    {
      "constant": true,
      "inputs": [],
      "name": "sanityRatesContract",
      "outputs": [
        {
          "name": "",
          "type": "address"
        }
      ],
      "payable": false,
      "stateMutability": "view",
      "type": "function",
      "signature": "0x47e6924f"
    },
    {
      "constant": false,
      "inputs": [
        {
          "name": "newAdmin",
          "type": "address"
        }
      ],
      "name": "transferAdmin",
      "outputs": [],
      "payable": false,
      "stateMutability": "nonpayable",
      "type": "function",
      "signature": "0x75829def"
    },
    {
      "constant": false,
      "inputs": [],
      "name": "claimAdmin",
      "outputs": [],
      "payable": false,
      "stateMutability": "nonpayable",
      "type": "function",
      "signature": "0x77f50f97"
    },
    {
      "constant": false,
      "inputs": [
        {
          "name": "newAdmin",
          "type": "address"
        }
      ],
      "name": "transferAdminQuickly",
      "outputs": [],
      "payable": false,
      "stateMutability": "nonpayable",
      "type": "function",
      "signature": "0x7acc8678"
    },
    {
      "constant": true,
      "inputs": [],
      "name": "getAlerters",
      "outputs": [
        {
          "name": "",
          "type": "address[]"
        }
      ],
      "payable": false,
      "stateMutability": "view",
      "type": "function",
      "signature": "0x7c423f54"
    },
    {
      "constant": false,
      "inputs": [
        {
          "name": "newOperator",
          "type": "address"
        }
      ],
      "name": "addOperator",
      "outputs": [],
      "payable": false,
      "stateMutability": "nonpayable",
      "type": "function",
      "signature": "0x9870d7fe"
    },
    {
      "constant": true,
      "inputs": [
        {
          "name": "",
          "type": "address"
        }
      ],
      "name": "tokenWallet",
      "outputs": [
        {
          "name": "",
          "type": "address"
        }
      ],
      "payable": false,
      "stateMutability": "view",
      "type": "function",
      "signature": "0xa80cbac6"
    },
    {
      "constant": false,
      "inputs": [
        {
          "name": "operator",
          "type": "address"
        }
      ],
      "name": "removeOperator",
      "outputs": [],
      "payable": false,
      "stateMutability": "nonpayable",
      "type": "function",
      "signature": "0xac8a584a"
    },
    {
      "constant": true,
      "inputs": [],
      "name": "kyberNetwork",
      "outputs": [
        {
          "name": "",
          "type": "address"
        }
      ],
      "payable": false,
      "stateMutability": "view",
      "type": "function",
      "signature": "0xb78b842d"
    },
    {
      "constant": false,
      "inputs": [
        {
          "name": "amount",
          "type": "uint256"
        },
        {
          "name": "sendTo",
          "type": "address"
        }
      ],
      "name": "withdrawEther",
      "outputs": [],
      "payable": false,
      "stateMutability": "nonpayable",
      "type": "function",
      "signature": "0xce56c454"
    },
    {
      "constant": true,
      "inputs": [],
      "name": "conversionRatesContract",
      "outputs": [
        {
          "name": "",
          "type": "address"
        }
      ],
      "payable": false,
      "stateMutability": "view",
      "type": "function",
      "signature": "0xd5847d33"
    },
    {
      "constant": true,
      "inputs": [],
      "name": "tradeEnabled",
      "outputs": [
        {
          "name": "",
          "type": "bool"
        }
      ],
      "payable": false,
      "stateMutability": "view",
      "type": "function",
      "signature": "0xd621e813"
    },
    {
      "constant": true,
      "inputs": [
        {
          "name": "",
          "type": "bytes32"
        }
      ],
      "name": "approvedWithdrawAddresses",
      "outputs": [
        {
          "name": "",
          "type": "bool"
        }
      ],
      "payable": false,
      "stateMutability": "view",
      "type": "function",
      "signature": "0xd7b7024d"
    },
    {
      "constant": true,
      "inputs": [],
      "name": "admin",
      "outputs": [
        {
          "name": "",
          "type": "address"
        }
      ],
      "payable": false,
      "stateMutability": "view",
      "type": "function",
      "signature": "0xf851a440"
    },
    {
      "inputs": [
        {
          "name": "_kyberNetwork",
          "type": "address"
        },
        {
          "name": "_ratesContract",
          "type": "address"
        },
        {
          "name": "_admin",
          "type": "address"
        }
      ],
      "payable": false,
      "stateMutability": "nonpayable",
      "type": "constructor",
      "signature": "constructor"
    },
    {
      "payable": true,
      "stateMutability": "payable",
      "type": "fallback"
    },
    {
      "anonymous": false,
      "inputs": [
        {
          "indexed": false,
          "name": "token",
          "type": "address"
        },
        {
          "indexed": false,
          "name": "amount",
          "type": "uint256"
        }
      ],
      "name": "DepositToken",
      "type": "event",
      "signature": "0x2d0c0a8842b9944ece1495eb61121621b5e36bd6af3bba0318c695f525aef79f"
    },
    {
      "anonymous": false,
      "inputs": [
        {
          "indexed": true,
          "name": "origin",
          "type": "address"
        },
        {
          "indexed": false,
          "name": "src",
          "type": "address"
        },
        {
          "indexed": false,
          "name": "srcAmount",
          "type": "uint256"
        },
        {
          "indexed": false,
          "name": "destToken",
          "type": "address"
        },
        {
          "indexed": false,
          "name": "destAmount",
          "type": "uint256"
        },
        {
          "indexed": false,
          "name": "destAddress",
          "type": "address"
        }
      ],
      "name": "TradeExecute",
      "type": "event",
      "signature": "0xea9415385bae08fe9f6dc457b02577166790cde83bb18cc340aac6cb81b824de"
    },
    {
      "anonymous": false,
      "inputs": [
        {
          "indexed": false,
          "name": "enable",
          "type": "bool"
        }
      ],
      "name": "TradeEnabled",
      "type": "event",
      "signature": "0x7d7f00509dd73ac4449f698ae75ccc797895eff5fa9d446d3df387598a26e735"
    },
    {
      "anonymous": false,
      "inputs": [
        {
          "indexed": false,
          "name": "token",
          "type": "address"
        },
        {
          "indexed": false,
          "name": "addr",
          "type": "address"
        },
        {
          "indexed": false,
          "name": "approve",
          "type": "bool"
        }
      ],
      "name": "WithdrawAddressApproved",
      "type": "event",
      "signature": "0xd5fd5351efae1f4bb760079da9f0ff9589e2c3e216337ca9d39cdff573b245c4"
    },
    {
      "anonymous": false,
      "inputs": [
        {
          "indexed": false,
          "name": "token",
          "type": "address"
        },
        {
          "indexed": false,
          "name": "wallet",
          "type": "address"
        }
      ],
      "name": "NewTokenWallet",
      "type": "event",
      "signature": "0x81995c7b922889ac0a81e41866106d4046268ea3a9abaae9f9e080a6ce36ee7d"
    },
    {
      "anonymous": false,
      "inputs": [
        {
          "indexed": false,
          "name": "token",
          "type": "address"
        },
        {
          "indexed": false,
          "name": "amount",
          "type": "uint256"
        },
        {
          "indexed": false,
          "name": "destination",
          "type": "address"
        }
      ],
      "name": "WithdrawFunds",
      "type": "event",
      "signature": "0xb67719fc33c1f17d31bf3a698690d62066b1e0bae28fcd3c56cf2c015c2863d6"
    },
    {
      "anonymous": false,
      "inputs": [
        {
          "indexed": false,
          "name": "network",
          "type": "address"
        },
        {
          "indexed": false,
          "name": "rate",
          "type": "address"
        },
        {
          "indexed": false,
          "name": "sanity",
          "type": "address"
        }
      ],
      "name": "SetContractAddresses",
      "type": "event",
      "signature": "0x7a85322644a4462d8ff5482d2a841a4d231f8cfb3c9f4a50f66f8b2bd568c31c"
    },
    {
      "anonymous": false,
      "inputs": [
        {
          "indexed": false,
          "name": "token",
          "type": "address"
        },
        {
          "indexed": false,
          "name": "amount",
          "type": "uint256"
        },
        {
          "indexed": false,
          "name": "sendTo",
          "type": "address"
        }
      ],
      "name": "TokenWithdraw",
      "type": "event",
      "signature": "0x72cb8a894ddb372ceec3d2a7648d86f17d5a15caae0e986c53109b8a9a9385e6"
    },
    {
      "anonymous": false,
      "inputs": [
        {
          "indexed": false,
          "name": "amount",
          "type": "uint256"
        },
        {
          "indexed": false,
          "name": "sendTo",
          "type": "address"
        }
      ],
      "name": "EtherWithdraw",
      "type": "event",
      "signature": "0xec47e7ed86c86774d1a72c19f35c639911393fe7c1a34031fdbd260890da90de"
    },
    {
      "anonymous": false,
      "inputs": [
        {
          "indexed": false,
          "name": "pendingAdmin",
          "type": "address"
        }
      ],
      "name": "TransferAdminPending",
      "type": "event",
      "signature": "0x3b81caf78fa51ecbc8acb482fd7012a277b428d9b80f9d156e8a54107496cc40"
    },
    {
      "anonymous": false,
      "inputs": [
        {
          "indexed": false,
          "name": "newAdmin",
          "type": "address"
        },
        {
          "indexed": false,
          "name": "previousAdmin",
          "type": "address"
        }
      ],
      "name": "AdminClaimed",
      "type": "event",
      "signature": "0x65da1cfc2c2e81576ad96afb24a581f8e109b7a403b35cbd3243a1c99efdb9ed"
    },
    {
      "anonymous": false,
      "inputs": [
        {
          "indexed": false,
          "name": "newAlerter",
          "type": "address"
        },
        {
          "indexed": false,
          "name": "isAdd",
          "type": "bool"
        }
      ],
      "name": "AlerterAdded",
      "type": "event",
      "signature": "0x5611bf3e417d124f97bf2c788843ea8bb502b66079fbee02158ef30b172cb762"
    },
    {
      "anonymous": false,
      "inputs": [
        {
          "indexed": false,
          "name": "newOperator",
          "type": "address"
        },
        {
          "indexed": false,
          "name": "isAdd",
          "type": "bool"
        }
      ],
      "name": "OperatorAdded",
      "type": "event",
      "signature": "0x091a7a4b85135fdd7e8dbc18b12fabe5cc191ea867aa3c2e1a24a102af61d58b"
    },
    {
      "constant": false,
      "inputs": [
        {
          "name": "srcToken",
          "type": "address"
        },
        {
          "name": "srcAmount",
          "type": "uint256"
        },
        {
          "name": "destToken",
          "type": "address"
        },
        {
          "name": "destAddress",
          "type": "address"
        },
        {
          "name": "conversionRate",
          "type": "uint256"
        },
        {
          "name": "validate",
          "type": "bool"
        }
      ],
      "name": "trade",
      "outputs": [
        {
          "name": "",
          "type": "bool"
        }
      ],
      "payable": true,
      "stateMutability": "payable",
      "type": "function",
      "signature": "0x6cf69811"
    },
    {
      "constant": false,
      "inputs": [],
      "name": "enableTrade",
      "outputs": [
        {
          "name": "",
          "type": "bool"
        }
      ],
      "payable": false,
      "stateMutability": "nonpayable",
      "type": "function",
      "signature": "0x0099d386"
    },
    {
      "constant": false,
      "inputs": [],
      "name": "disableTrade",
      "outputs": [
        {
          "name": "",
          "type": "bool"
        }
      ],
      "payable": false,
      "stateMutability": "nonpayable",
      "type": "function",
      "signature": "0x6940030f"
    },
    {
      "constant": false,
      "inputs": [
        {
          "name": "token",
          "type": "address"
        },
        {
          "name": "addr",
          "type": "address"
        },
        {
          "name": "approve",
          "type": "bool"
        }
      ],
      "name": "approveWithdrawAddress",
      "outputs": [],
      "payable": false,
      "stateMutability": "nonpayable",
      "type": "function",
      "signature": "0x546dc71c"
    },
    {
      "constant": false,
      "inputs": [
        {
          "name": "token",
          "type": "address"
        },
        {
          "name": "wallet",
          "type": "address"
        }
      ],
      "name": "setTokenWallet",
      "outputs": [],
      "payable": false,
      "stateMutability": "nonpayable",
      "type": "function",
      "signature": "0x1bc7bfec"
    },
    {
      "constant": false,
      "inputs": [
        {
          "name": "token",
          "type": "address"
        },
        {
          "name": "amount",
          "type": "uint256"
        },
        {
          "name": "destination",
          "type": "address"
        }
      ],
      "name": "withdraw",
      "outputs": [
        {
          "name": "",
          "type": "bool"
        }
      ],
      "payable": false,
      "stateMutability": "nonpayable",
      "type": "function",
      "signature": "0x69328dec"
    },
    {
      "constant": false,
      "inputs": [
        {
          "name": "_kyberNetwork",
          "type": "address"
        },
        {
          "name": "_conversionRates",
          "type": "address"
        },
        {
          "name": "_sanityRates",
          "type": "address"
        }
      ],
      "name": "setContracts",
      "outputs": [],
      "payable": false,
      "stateMutability": "nonpayable",
      "type": "function",
      "signature": "0xb3066d49"
    },
    {
      "constant": true,
      "inputs": [
        {
          "name": "token",
          "type": "address"
        }
      ],
      "name": "getBalance",
      "outputs": [
        {
          "name": "",
          "type": "uint256"
        }
      ],
      "payable": false,
      "stateMutability": "view",
      "type": "function",
      "signature": "0xf8b2cb4f"
    },
    {
      "constant": true,
      "inputs": [
        {
          "name": "src",
          "type": "address"
        },
        {
          "name": "dest",
          "type": "address"
        },
        {
          "name": "srcQty",
          "type": "uint256"
        },
        {
          "name": "rate",
          "type": "uint256"
        }
      ],
      "name": "getDestQty",
      "outputs": [
        {
          "name": "",
          "type": "uint256"
        }
      ],
      "payable": false,
      "stateMutability": "view",
      "type": "function",
      "signature": "0xfa64dffa"
    },
    {
      "constant": true,
      "inputs": [
        {
          "name": "src",
          "type": "address"
        },
        {
          "name": "dest",
          "type": "address"
        },
        {
          "name": "dstQty",
          "type": "uint256"
        },
        {
          "name": "rate",
          "type": "uint256"
        }
      ],
      "name": "getSrcQty",
      "outputs": [
        {
          "name": "",
          "type": "uint256"
        }
      ],
      "payable": false,
      "stateMutability": "view",
      "type": "function",
      "signature": "0xa7fca953"
    },
    {
      "constant": true,
      "inputs": [
        {
          "name": "src",
          "type": "address"
        },
        {
          "name": "dest",
          "type": "address"
        },
        {
          "name": "srcQty",
          "type": "uint256"
        },
        {
          "name": "blockNumber",
          "type": "uint256"
        }
      ],
      "name": "getConversionRate",
      "outputs": [
        {
          "name": "",
          "type": "uint256"
        }
      ],
      "payable": false,
      "stateMutability": "view",
      "type": "function",
      "signature": "0x7cd44272"
    }
  ],
  "bytecode": "0x6060604052341561000f57600080fd5b60405160608061219083398101604052808051919060200180519190602001805160008054600160a060020a03191633600160a060020a039081169190911790915590925082161515905061006357600080fd5b600160a060020a038216151561007857600080fd5b600160a060020a038316151561008d57600080fd5b6007805460088054600160a060020a03958616600160a060020a031991821617909155600080549486169482169490941790935560a060020a60ff02199390941691909316171674010000000000000000000000000000000000000000179055612094806100fc6000396000f3006060604052600436106101655763ffffffff60e060020a60003504166299d38681146101b957806301a12fd3146101e05780631bc7bfec14610201578063267822471461022657806327a099d8146102555780633ccdbb28146102bb578063408ee7fe146102e457806347e6924f14610303578063546dc71c1461031657806369328dec146103405780636940030f146103695780636cf698111461037c57806375829def146103a857806377f50f97146103c75780637acc8678146103da5780637c423f54146103f95780637cd442721461040c5780639870d7fe14610449578063a7fca95314610468578063a80cbac614610493578063ac8a584a146104b2578063b3066d49146104d1578063b78b842d146104fc578063ce56c4541461050f578063d5847d3314610531578063d621e81314610544578063d7b7024d14610557578063f851a4401461056d578063f8b2cb4f14610580578063fa64dffa1461059f575b7f2d0c0a8842b9944ece1495eb61121621b5e36bd6af3bba0318c695f525aef79f60008051602061204983398151915234604051600160a060020a03909216825260208201526040908101905180910390a1005b34156101c457600080fd5b6101cc6105ca565b604051901515815260200160405180910390f35b34156101eb57600080fd5b6101ff600160a060020a0360043516610658565b005b341561020c57600080fd5b6101ff600160a060020a03600435811690602435166107c8565b341561023157600080fd5b610239610874565b604051600160a060020a03909116815260200160405180910390f35b341561026057600080fd5b610268610883565b60405160208082528190810183818151815260200191508051906020019060200280838360005b838110156102a757808201518382015260200161028f565b505050509050019250505060405180910390f35b34156102c657600080fd5b6101ff600160a060020a0360043581169060243590604435166108eb565b34156102ef57600080fd5b6101ff600160a060020a03600435166109e2565b341561030e57600080fd5b610239610ade565b341561032157600080fd5b6101ff600160a060020a03600435811690602435166044351515610aed565b341561034b57600080fd5b6101cc600160a060020a036004358116906024359060443516610cd7565b341561037457600080fd5b6101cc610eb0565b6101cc600160a060020a03600435811690602435906044358116906064351660843560a4351515610f31565b34156103b357600080fd5b6101ff600160a060020a0360043516610f9e565b34156103d257600080fd5b6101ff611039565b34156103e557600080fd5b6101ff600160a060020a03600435166110d3565b341561040457600080fd5b6102686111b5565b341561041757600080fd5b610437600160a060020a036004358116906024351660443560643561121b565b60405190815260200160405180910390f35b341561045457600080fd5b6101ff600160a060020a0360043516611406565b341561047357600080fd5b610437600160a060020a03600435811690602435166044356064356114d6565b341561049e57600080fd5b610239600160a060020a0360043516611508565b34156104bd57600080fd5b6101ff600160a060020a0360043516611523565b34156104dc57600080fd5b6101ff600160a060020a036004358116906024358116906044351661168f565b341561050757600080fd5b610239611773565b341561051a57600080fd5b6101ff600435600160a060020a0360243516611782565b341561053c57600080fd5b610239611815565b341561054f57600080fd5b6101cc611824565b341561056257600080fd5b6101cc600435611845565b341561057857600080fd5b61023961185a565b341561058b57600080fd5b610437600160a060020a0360043516611869565b34156105aa57600080fd5b610437600160a060020a03600435811690602435166044356064356119bd565b6000805433600160a060020a039081169116146105e657600080fd5b6007805474ff00000000000000000000000000000000000000001916740100000000000000000000000000000000000000001790557f7d7f00509dd73ac4449f698ae75ccc797895eff5fa9d446d3df387598a26e7356001604051901515815260200160405180910390a15060015b90565b6000805433600160a060020a0390811691161461067457600080fd5b600160a060020a03821660009081526003602052604090205460ff16151561069b57600080fd5b50600160a060020a0381166000908152600360205260408120805460ff191690555b6005548110156107c45781600160a060020a03166005828154811015156106e057fe5b600091825260209091200154600160a060020a031614156107bc5760058054600019810190811061070d57fe5b60009182526020909120015460058054600160a060020a03909216918390811061073357fe5b60009182526020909120018054600160a060020a031916600160a060020a0392909216919091179055600580549061076f906000198301611ff4565b507f5611bf3e417d124f97bf2c788843ea8bb502b66079fbee02158ef30b172cb762826000604051600160a060020a039092168252151560208201526040908101905180910390a16107c4565b6001016106bd565b5050565b60005433600160a060020a039081169116146107e357600080fd5b600160a060020a03811615156107f857600080fd5b600160a060020a038281166000908152600b6020526040908190208054600160a060020a031916928416929092179091557f81995c7b922889ac0a81e41866106d4046268ea3a9abaae9f9e080a6ce36ee7d908390839051600160a060020a039283168152911660208201526040908101905180910390a15050565b600154600160a060020a031681565b61088b612018565b60048054806020026020016040519081016040528092919081815260200182805480156108e157602002820191906000526020600020905b8154600160a060020a031681526001909101906020018083116108c3575b5050505050905090565b60005433600160a060020a0390811691161461090657600080fd5b82600160a060020a031663a9059cbb828460006040516020015260405160e060020a63ffffffff8516028152600160a060020a0390921660048301526024820152604401602060405180830381600087803b151561096357600080fd5b6102c65a03f1151561097457600080fd5b50505060405180519050151561098957600080fd5b7f72cb8a894ddb372ceec3d2a7648d86f17d5a15caae0e986c53109b8a9a9385e6838383604051600160a060020a03938416815260208101929092529091166040808301919091526060909101905180910390a1505050565b60005433600160a060020a039081169116146109fd57600080fd5b600160a060020a03811660009081526003602052604090205460ff1615610a2357600080fd5b60055460329010610a3357600080fd5b7f5611bf3e417d124f97bf2c788843ea8bb502b66079fbee02158ef30b172cb762816001604051600160a060020a039092168252151560208201526040908101905180910390a1600160a060020a0381166000908152600360205260409020805460ff191660019081179091556005805490918101610ab28382611ff4565b5060009182526020909120018054600160a060020a031916600160a060020a0392909216919091179055565b600954600160a060020a031681565b60005433600160a060020a03908116911614610b0857600080fd5b80600a600085856040516c01000000000000000000000000600160a060020a039384168102825291909216026014820152602801604051908190039020815260208101919091526040908101600020805460ff1916921515929092179091557fd5fd5351efae1f4bb760079da9f0ff9589e2c3e216337ca9d39cdff573b245c49084908490849051600160a060020a0393841681529190921660208201529015156040808301919091526060909101905180910390a1610bc7836119e4565b600160a060020a038381166000908152600b602052604090205416158015610c065750600160a060020a03831660008051602061204983398151915214155b15610cd257600160a060020a038381166000818152600b60205260408082208054600160a060020a03191630958616179055919263095ea7b39290917f800000000000000000000000000000000000000000000000000000000000000091516020015260405160e060020a63ffffffff8516028152600160a060020a0390921660048301526024820152604401602060405180830381600087803b1515610cac57600080fd5b6102c65a03f11515610cbd57600080fd5b505050604051805190501515610cd257600080fd5b505050565b600160a060020a03331660009081526002602052604081205460ff161515610cfe57600080fd5b600a600085846040516c01000000000000000000000000600160a060020a039384168102825291909216026014820152602801604051908190039020815260208101919091526040016000205460ff161515610d5957600080fd5b600160a060020a0384166000805160206120498339815191521415610dae57600160a060020a03821683156108fc0284604051600060405180830381858888f193505050501515610da957600080fd5b610e52565b600160a060020a038085166000818152600b60205260408082205492936323b872dd9316918691889190516020015260405160e060020a63ffffffff8616028152600160a060020a0393841660048201529190921660248201526044810191909152606401602060405180830381600087803b1515610e2c57600080fd5b6102c65a03f11515610e3d57600080fd5b505050604051805190501515610e5257600080fd5b7fb67719fc33c1f17d31bf3a698690d62066b1e0bae28fcd3c56cf2c015c2863d6848484604051600160a060020a03938416815260208101929092529091166040808301919091526060909101905180910390a15060019392505050565b600160a060020a03331660009081526003602052604081205460ff161515610ed757600080fd5b6007805474ff0000000000000000000000000000000000000000191690557f7d7f00509dd73ac4449f698ae75ccc797895eff5fa9d446d3df387598a26e7356000604051901515815260200160405180910390a150600190565b60075460009074010000000000000000000000000000000000000000900460ff161515610f5d57600080fd5b60075433600160a060020a03908116911614610f7857600080fd5b610f86878787878787611aa1565b1515610f9157600080fd5b5060019695505050505050565b60005433600160a060020a03908116911614610fb957600080fd5b600160a060020a0381161515610fce57600080fd5b6001547f3b81caf78fa51ecbc8acb482fd7012a277b428d9b80f9d156e8a54107496cc4090600160a060020a0316604051600160a060020a03909116815260200160405180910390a160018054600160a060020a031916600160a060020a0392909216919091179055565b60015433600160a060020a0390811691161461105457600080fd5b6001546000547f65da1cfc2c2e81576ad96afb24a581f8e109b7a403b35cbd3243a1c99efdb9ed91600160a060020a039081169116604051600160a060020a039283168152911660208201526040908101905180910390a16001805460008054600160a060020a0319908116600160a060020a03841617909155169055565b60005433600160a060020a039081169116146110ee57600080fd5b600160a060020a038116151561110357600080fd5b7f3b81caf78fa51ecbc8acb482fd7012a277b428d9b80f9d156e8a54107496cc4081604051600160a060020a03909116815260200160405180910390a16000547f65da1cfc2c2e81576ad96afb24a581f8e109b7a403b35cbd3243a1c99efdb9ed908290600160a060020a0316604051600160a060020a039283168152911660208201526040908101905180910390a160008054600160a060020a031916600160a060020a0392909216919091179055565b6111bd612018565b60058054806020026020016040519081016040528092919081815260200182805480156108e157602002820191906000526020600020908154600160a060020a031681526001909101906020018083116108c3575050505050905090565b600080600080600080600760149054906101000a900460ff16151561124357600095506113f9565b600080516020612049833981519152600160a060020a038b16141561126e57600193508894506112a2565b600080516020612049833981519152600160a060020a038a16141561129957600093508994506112a2565b600095506113f9565b600854600160a060020a031663b8e9c22e8689878c60006040516020015260405160e060020a63ffffffff8716028152600160a060020a0390941660048501526024840192909252151560448301526064820152608401602060405180830381600087803b151561131257600080fd5b6102c65a03f1151561132357600080fd5b50505060405180519050925061133b8a8a8a866119bd565b9150816113478a611869565b101561135657600095506113f9565b600954600160a060020a0316156113f557600954600160a060020a031663a58092b78b8b60006040516020015260405160e060020a63ffffffff8516028152600160a060020a03928316600482015291166024820152604401602060405180830381600087803b15156113c857600080fd5b6102c65a03f115156113d957600080fd5b5050506040518051915050808311156113f557600095506113f9565b8295505b5050505050949350505050565b60005433600160a060020a0390811691161461142157600080fd5b600160a060020a03811660009081526002602052604090205460ff161561144757600080fd5b6004546032901061145757600080fd5b7f091a7a4b85135fdd7e8dbc18b12fabe5cc191ea867aa3c2e1a24a102af61d58b816001604051600160a060020a039092168252151560208201526040908101905180910390a1600160a060020a0381166000908152600260205260409020805460ff191660019081179091556004805490918101610ab28382611ff4565b60008060006114e486611df6565b91506114ef87611df6565b90506114fd85828487611eb4565b979650505050505050565b600b60205260009081526040902054600160a060020a031681565b6000805433600160a060020a0390811691161461153f57600080fd5b600160a060020a03821660009081526002602052604090205460ff16151561156657600080fd5b50600160a060020a0381166000908152600260205260408120805460ff191690555b6004548110156107c45781600160a060020a03166004828154811015156115ab57fe5b600091825260209091200154600160a060020a03161415611687576004805460001981019081106115d857fe5b60009182526020909120015460048054600160a060020a0390921691839081106115fe57fe5b60009182526020909120018054600160a060020a031916600160a060020a039290921691909117905560048054600019019061163a9082611ff4565b507f091a7a4b85135fdd7e8dbc18b12fabe5cc191ea867aa3c2e1a24a102af61d58b826000604051600160a060020a039092168252151560208201526040908101905180910390a16107c4565b600101611588565b60005433600160a060020a039081169116146116aa57600080fd5b600160a060020a03831615156116bf57600080fd5b600160a060020a03821615156116d457600080fd5b60078054600160a060020a03808616600160a060020a0319928316179283905560088054868316908416179081905560098054868416941693909317928390557f7a85322644a4462d8ff5482d2a841a4d231f8cfb3c9f4a50f66f8b2bd568c31c938216929082169116604051600160a060020a03938416815291831660208301529091166040808301919091526060909101905180910390a1505050565b600754600160a060020a031681565b60005433600160a060020a0390811691161461179d57600080fd5b600160a060020a03811682156108fc0283604051600060405180830381858888f1935050505015156117ce57600080fd5b7fec47e7ed86c86774d1a72c19f35c639911393fe7c1a34031fdbd260890da90de8282604051918252600160a060020a031660208201526040908101905180910390a15050565b600854600160a060020a031681565b60075474010000000000000000000000000000000000000000900460ff1681565b600a6020526000908152604090205460ff1681565b600054600160a060020a031681565b6000808080600160a060020a038516600080516020612049833981519152141561189f5730600160a060020a03163193506119b5565b600160a060020a038086166000818152600b602052604080822054909316955090916370a08231918691516020015260405160e060020a63ffffffff8416028152600160a060020a039091166004820152602401602060405180830381600087803b151561190c57600080fd5b6102c65a03f1151561191d57600080fd5b5050506040518051925050600160a060020a03851663dd62ed3e843060006040516020015260405160e060020a63ffffffff8516028152600160a060020a03928316600482015291166024820152604401602060405180830381600087803b151561198757600080fd5b6102c65a03f1151561199857600080fd5b50505060405180519150508082106119b057806119b2565b815b93505b505050919050565b60008060006119cb86611df6565b91506119d687611df6565b90506114fd85828487611f5b565b600160a060020a0381166000805160206120498339815191521415611a2457600160a060020a038116600090815260066020526040902060129055611a9e565b80600160a060020a031663313ce5676000604051602001526040518163ffffffff1660e060020a028152600401602060405180830381600087803b1515611a6a57600080fd5b6102c65a03f11515611a7b57600080fd5b5050506040518051600160a060020a038316600090815260066020526040902055505b50565b6000806000808415611af55760008611611aba57600080fd5b600160a060020a038a166000805160206120498339815191521415611aea57348914611ae557600080fd5b611af5565b3415611af557600080fd5b611b018a898b896119bd565b925060008311611b1057600080fd5b600160a060020a038a166000805160206120498339815191521415611b39575086905081611b43565b5088905060001988025b600854600160a060020a031663c6fd2103838360004360405160e060020a63ffffffff8716028152600160a060020a039094166004850152602484019290925260448301526064820152608401600060405180830381600087803b1515611ba957600080fd5b6102c65a03f11515611bba57600080fd5b505050600160a060020a038a1660008051602061204983398151915214611c8057600160a060020a03808b166000818152600b60205260408082205492936323b872dd9333939116918e9190516020015260405160e060020a63ffffffff8616028152600160a060020a0393841660048201529190921660248201526044810191909152606401602060405180830381600087803b1515611c5a57600080fd5b6102c65a03f11515611c6b57600080fd5b505050604051805190501515611c8057600080fd5b600160a060020a0388166000805160206120498339815191521415611cd557600160a060020a03871683156108fc0284604051600060405180830381858888f193505050501515611cd057600080fd5b611d79565b600160a060020a038089166000818152600b60205260408082205492936323b872dd9316918b91889190516020015260405160e060020a63ffffffff8616028152600160a060020a0393841660048201529190921660248201526044810191909152606401602060405180830381600087803b1515611d5357600080fd5b6102c65a03f11515611d6457600080fd5b505050604051805190501515611d7957600080fd5b33600160a060020a03167fea9415385bae08fe9f6dc457b02577166790cde83bb18cc340aac6cb81b824de8b8b8b878c604051600160a060020a039586168152602081019490945291841660408085019190915260608401919091529216608082015260a001905180910390a25060019998505050505050505050565b600080600160a060020a0383166000805160206120498339815191521415611e215760129150611eae565b50600160a060020a038216600090815260066020526040902054801515611eaa5782600160a060020a031663313ce5676000604051602001526040518163ffffffff1660e060020a028152600401602060405180830381600087803b1515611e8857600080fd5b6102c65a03f11515611e9957600080fd5b505050604051805190509150611eae565b8091505b50919050565b600080806b204fce5e3e25026110000000871115611ed157600080fd5b69d3c21bcecceda1000000841115611ee857600080fd5b848610611f195760128587031115611eff57600080fd5b5050828403600a0a8502670de0b6b3a76400000282611f3f565b60128686031115611f2957600080fd5b5050670de0b6b3a76400008502848403600a0a83025b80600182840103811515611f4f57fe5b04979650505050505050565b60006b204fce5e3e25026110000000851115611f7657600080fd5b69d3c21bcecceda1000000821115611f8d57600080fd5b838310611fc05760128484031115611fa457600080fd5b670de0b6b3a7640000858302858503600a0a025b049050611fec565b60128385031115611fd057600080fd5b828403600a0a670de0b6b3a764000002828602811515611fb857fe5b949350505050565b815481835581811511610cd257600083815260209020610cd291810190830161202a565b60206040519081016040526000815290565b61065591905b808211156120445760008155600101612030565b50905600000000000000000000000000eeeeeeeeeeeeeeeeeeeeeeeeeeeeeeeeeeeeeeeea165627a7a72305820c15aa3ace4d53f5e384a2d2a2197de6ee097fa5a10ccdaf8da1b163ce54f35da0029",
  "source": "pragma solidity 0.4.18;\r\n\r\n\r\nimport \"./ERC20Interface.sol\";\r\nimport \"./Utils.sol\";\r\nimport \"./Withdrawable.sol\";\r\nimport \"./ConversionRatesInterface.sol\";\r\nimport \"./SanityRatesInterface.sol\";\r\nimport \"./KyberReserveInterface.sol\";\r\n\r\n\r\n/// @title Kyber Reserve contract\r\ncontract KyberReserve is KyberReserveInterface, Withdrawable, Utils {\r\n\r\n    address public kyberNetwork;\r\n    bool public tradeEnabled;\r\n    ConversionRatesInterface public conversionRatesContract;\r\n    SanityRatesInterface public sanityRatesContract;\r\n    mapping(bytes32=>bool) public approvedWithdrawAddresses; // sha3(token,address)=>bool\r\n    mapping(address=>address) public tokenWallet;\r\n\r\n    function KyberReserve(address _kyberNetwork, ConversionRatesInterface _ratesContract, address _admin) public {\r\n        require(_admin != address(0));\r\n        require(_ratesContract != address(0));\r\n        require(_kyberNetwork != address(0));\r\n        kyberNetwork = _kyberNetwork;\r\n        conversionRatesContract = _ratesContract;\r\n        admin = _admin;\r\n        tradeEnabled = true;\r\n    }\r\n\r\n    event DepositToken(ERC20 token, uint amount);\r\n\r\n    function() public payable {\r\n        DepositToken(ETH_TOKEN_ADDRESS, msg.value);\r\n    }\r\n\r\n    event TradeExecute(\r\n        address indexed origin,\r\n        address src,\r\n        uint srcAmount,\r\n        address destToken,\r\n        uint destAmount,\r\n        address destAddress\r\n    );\r\n\r\n    function trade(\r\n        ERC20 srcToken,\r\n        uint srcAmount,\r\n        ERC20 destToken,\r\n        address destAddress,\r\n        uint conversionRate,\r\n        bool validate\r\n    )\r\n        public\r\n        payable\r\n        returns(bool)\r\n    {\r\n        require(tradeEnabled);\r\n        require(msg.sender == kyberNetwork);\r\n\r\n        require(doTrade(srcToken, srcAmount, destToken, destAddress, conversionRate, validate));\r\n\r\n        return true;\r\n    }\r\n\r\n    event TradeEnabled(bool enable);\r\n\r\n    function enableTrade() public onlyAdmin returns(bool) {\r\n        tradeEnabled = true;\r\n        TradeEnabled(true);\r\n\r\n        return true;\r\n    }\r\n\r\n    function disableTrade() public onlyAlerter returns(bool) {\r\n        tradeEnabled = false;\r\n        TradeEnabled(false);\r\n\r\n        return true;\r\n    }\r\n\r\n    event WithdrawAddressApproved(ERC20 token, address addr, bool approve);\r\n\r\n    function approveWithdrawAddress(ERC20 token, address addr, bool approve) public onlyAdmin {\r\n        approvedWithdrawAddresses[keccak256(token, addr)] = approve;\r\n        WithdrawAddressApproved(token, addr, approve);\r\n\r\n        setDecimals(token);\r\n        if ((tokenWallet[token] == address(0x0)) && (token != ETH_TOKEN_ADDRESS)) {\r\n            tokenWallet[token] = this; // by default\r\n            require(token.approve(this, 2 ** 255));\r\n        }\r\n    }\r\n\r\n    event NewTokenWallet(ERC20 token, address wallet);\r\n\r\n    function setTokenWallet(ERC20 token, address wallet) public onlyAdmin {\r\n        require(wallet != address(0x0));\r\n        tokenWallet[token] = wallet;\r\n        NewTokenWallet(token, wallet);\r\n    }\r\n\r\n    event WithdrawFunds(ERC20 token, uint amount, address destination);\r\n\r\n    function withdraw(ERC20 token, uint amount, address destination) public onlyOperator returns(bool) {\r\n        require(approvedWithdrawAddresses[keccak256(token, destination)]);\r\n\r\n        if (token == ETH_TOKEN_ADDRESS) {\r\n            destination.transfer(amount);\r\n        } else {\r\n            require(token.transferFrom(tokenWallet[token], destination, amount));\r\n        }\r\n\r\n        WithdrawFunds(token, amount, destination);\r\n\r\n        return true;\r\n    }\r\n\r\n    event SetContractAddresses(address network, address rate, address sanity);\r\n\r\n    function setContracts(\r\n        address _kyberNetwork,\r\n        ConversionRatesInterface _conversionRates,\r\n        SanityRatesInterface _sanityRates\r\n    )\r\n        public\r\n        onlyAdmin\r\n    {\r\n        require(_kyberNetwork != address(0));\r\n        require(_conversionRates != address(0));\r\n\r\n        kyberNetwork = _kyberNetwork;\r\n        conversionRatesContract = _conversionRates;\r\n        sanityRatesContract = _sanityRates;\r\n\r\n        SetContractAddresses(kyberNetwork, conversionRatesContract, sanityRatesContract);\r\n    }\r\n\r\n    ////////////////////////////////////////////////////////////////////////////\r\n    /// status functions ///////////////////////////////////////////////////////\r\n    ////////////////////////////////////////////////////////////////////////////\r\n    function getBalance(ERC20 token) public view returns(uint) {\r\n        if (token == ETH_TOKEN_ADDRESS)\r\n            return this.balance;\r\n        else {\r\n            address wallet = tokenWallet[token];\r\n            uint balanceOfWallet = token.balanceOf(wallet);\r\n            uint allowanceOfWallet = token.allowance(wallet, this);\r\n\r\n            return (balanceOfWallet < allowanceOfWallet) ? balanceOfWallet : allowanceOfWallet;\r\n        }\r\n    }\r\n\r\n    function getDestQty(ERC20 src, ERC20 dest, uint srcQty, uint rate) public view returns(uint) {\r\n        uint dstDecimals = getDecimals(dest);\r\n        uint srcDecimals = getDecimals(src);\r\n\r\n        return calcDstQty(srcQty, srcDecimals, dstDecimals, rate);\r\n    }\r\n\r\n    function getSrcQty(ERC20 src, ERC20 dest, uint dstQty, uint rate) public view returns(uint) {\r\n        uint dstDecimals = getDecimals(dest);\r\n        uint srcDecimals = getDecimals(src);\r\n\r\n        return calcSrcQty(dstQty, srcDecimals, dstDecimals, rate);\r\n    }\r\n\r\n    function getConversionRate(ERC20 src, ERC20 dest, uint srcQty, uint blockNumber) public view returns(uint) {\r\n        ERC20 token;\r\n        bool  isBuy;\r\n\r\n        if (!tradeEnabled) return 0;\r\n\r\n        if (ETH_TOKEN_ADDRESS == src) {\r\n            isBuy = true;\r\n            token = dest;\r\n        } else if (ETH_TOKEN_ADDRESS == dest) {\r\n            isBuy = false;\r\n            token = src;\r\n        } else {\r\n            return 0; // pair is not listed\r\n        }\r\n\r\n        uint rate = conversionRatesContract.getRate(token, blockNumber, isBuy, srcQty);\r\n        uint destQty = getDestQty(src, dest, srcQty, rate);\r\n\r\n        if (getBalance(dest) < destQty) return 0;\r\n\r\n        if (sanityRatesContract != address(0)) {\r\n            uint sanityRate = sanityRatesContract.getSanityRate(src, dest);\r\n            if (rate > sanityRate) return 0;\r\n        }\r\n\r\n        return rate;\r\n    }\r\n\r\n    /// @dev do a trade\r\n    /// @param srcToken Src token\r\n    /// @param srcAmount Amount of src token\r\n    /// @param destToken Destination token\r\n    /// @param destAddress Destination address to send tokens to\r\n    /// @param validate If true, additional validations are applicable\r\n    /// @return true iff trade is successful\r\n    function doTrade(\r\n        ERC20 srcToken,\r\n        uint srcAmount,\r\n        ERC20 destToken,\r\n        address destAddress,\r\n        uint conversionRate,\r\n        bool validate\r\n    )\r\n        internal\r\n        returns(bool)\r\n    {\r\n        // can skip validation if done at kyber network level\r\n        if (validate) {\r\n            require(conversionRate > 0);\r\n            if (srcToken == ETH_TOKEN_ADDRESS)\r\n                require(msg.value == srcAmount);\r\n            else\r\n                require(msg.value == 0);\r\n        }\r\n\r\n        uint destAmount = getDestQty(srcToken, destToken, srcAmount, conversionRate);\r\n        // sanity check\r\n        require(destAmount > 0);\r\n\r\n        // add to imbalance\r\n        ERC20 token;\r\n        int tradeAmount;\r\n        if (srcToken == ETH_TOKEN_ADDRESS) {\r\n            tradeAmount = int(destAmount);\r\n            token = destToken;\r\n        } else {\r\n            tradeAmount = -1 * int(srcAmount);\r\n            token = srcToken;\r\n        }\r\n\r\n        conversionRatesContract.recordImbalance(\r\n            token,\r\n            tradeAmount,\r\n            0,\r\n            block.number\r\n        );\r\n\r\n        // collect src tokens\r\n        if (srcToken != ETH_TOKEN_ADDRESS) {\r\n            require(srcToken.transferFrom(msg.sender, tokenWallet[srcToken], srcAmount));\r\n        }\r\n\r\n        // send dest tokens\r\n        if (destToken == ETH_TOKEN_ADDRESS) {\r\n            destAddress.transfer(destAmount);\r\n        } else {\r\n            require(destToken.transferFrom(tokenWallet[destToken], destAddress, destAmount));\r\n        }\r\n\r\n        TradeExecute(msg.sender, srcToken, srcAmount, destToken, destAmount, destAddress);\r\n\r\n        return true;\r\n    }\r\n}\r\n",
  "sourcePath": "C:/Users/phangjunyu/desktop/ethsg-lenXe/kyber/contracts/KyberReserve.sol",
  "compiler": {
    "name": "solc",
    "version": "0.4.18+commit.9cf6e910.Emscripten.clang"
  },
  "schemaVersion": "3.0.0-beta.1",
  "updatedAt": "2018-12-09T02:57:55.409Z"
}