{
  "contractName": "OmiseGo",
  "abi": [
    {
      "constant": true,
      "inputs": [],
      "name": "name",
      "outputs": [
        {
          "name": "",
          "type": "string"
        }
      ],
      "payable": false,
      "stateMutability": "view",
      "type": "function",
      "signature": "0x06fdde03"
    },
    {
      "constant": false,
      "inputs": [
        {
          "name": "_spender",
          "type": "address"
        },
        {
          "name": "_value",
          "type": "uint256"
        }
      ],
      "name": "approve",
      "outputs": [
        {
          "name": "",
          "type": "bool"
        }
      ],
      "payable": false,
      "stateMutability": "nonpayable",
      "type": "function",
      "signature": "0x095ea7b3"
    },
    {
      "constant": true,
      "inputs": [],
      "name": "totalSupply",
      "outputs": [
        {
          "name": "",
          "type": "uint256"
        }
      ],
      "payable": false,
      "stateMutability": "view",
      "type": "function",
      "signature": "0x18160ddd"
    },
    {
      "constant": false,
      "inputs": [
        {
          "name": "_from",
          "type": "address"
        },
        {
          "name": "_to",
          "type": "address"
        },
        {
          "name": "_value",
          "type": "uint256"
        }
      ],
      "name": "transferFrom",
      "outputs": [
        {
          "name": "",
          "type": "bool"
        }
      ],
      "payable": false,
      "stateMutability": "nonpayable",
      "type": "function",
      "signature": "0x23b872dd"
    },
    {
      "constant": true,
      "inputs": [
        {
          "name": "",
          "type": "address"
        }
      ],
      "name": "balances",
      "outputs": [
        {
          "name": "",
          "type": "uint256"
        }
      ],
      "payable": false,
      "stateMutability": "view",
      "type": "function",
      "signature": "0x27e235e3"
    },
    {
      "constant": true,
      "inputs": [],
      "name": "decimals",
      "outputs": [
        {
          "name": "",
          "type": "uint8"
        }
      ],
      "payable": false,
      "stateMutability": "view",
      "type": "function",
      "signature": "0x313ce567"
    },
    {
      "constant": false,
      "inputs": [
        {
          "name": "_value",
          "type": "uint256"
        }
      ],
      "name": "burn",
      "outputs": [
        {
          "name": "",
          "type": "bool"
        }
      ],
      "payable": false,
      "stateMutability": "nonpayable",
      "type": "function",
      "signature": "0x42966c68"
    },
    {
      "constant": true,
      "inputs": [
        {
          "name": "",
          "type": "address"
        },
        {
          "name": "",
          "type": "address"
        }
      ],
      "name": "allowed",
      "outputs": [
        {
          "name": "",
          "type": "uint256"
        }
      ],
      "payable": false,
      "stateMutability": "view",
      "type": "function",
      "signature": "0x5c658165"
    },
    {
      "constant": true,
      "inputs": [
        {
          "name": "_owner",
          "type": "address"
        }
      ],
      "name": "balanceOf",
      "outputs": [
        {
          "name": "balance",
          "type": "uint256"
        }
      ],
      "payable": false,
      "stateMutability": "view",
      "type": "function",
      "signature": "0x70a08231"
    },
    {
      "constant": false,
      "inputs": [
        {
          "name": "_from",
          "type": "address"
        },
        {
          "name": "_value",
          "type": "uint256"
        }
      ],
      "name": "burnFrom",
      "outputs": [
        {
          "name": "",
          "type": "bool"
        }
      ],
      "payable": false,
      "stateMutability": "nonpayable",
      "type": "function",
      "signature": "0x79cc6790"
    },
    {
      "constant": true,
      "inputs": [],
      "name": "symbol",
      "outputs": [
        {
          "name": "",
          "type": "string"
        }
      ],
      "payable": false,
      "stateMutability": "view",
      "type": "function",
      "signature": "0x95d89b41"
    },
    {
      "constant": false,
      "inputs": [
        {
          "name": "_to",
          "type": "address"
        },
        {
          "name": "_value",
          "type": "uint256"
        }
      ],
      "name": "transfer",
      "outputs": [
        {
          "name": "",
          "type": "bool"
        }
      ],
      "payable": false,
      "stateMutability": "nonpayable",
      "type": "function",
      "signature": "0xa9059cbb"
    },
    {
      "constant": true,
      "inputs": [
        {
          "name": "_owner",
          "type": "address"
        },
        {
          "name": "_spender",
          "type": "address"
        }
      ],
      "name": "allowance",
      "outputs": [
        {
          "name": "remaining",
          "type": "uint256"
        }
      ],
      "payable": false,
      "stateMutability": "view",
      "type": "function",
      "signature": "0xdd62ed3e"
    },
    {
      "inputs": [],
      "payable": false,
      "stateMutability": "nonpayable",
      "type": "constructor",
      "signature": "constructor"
    },
    {
      "anonymous": false,
      "inputs": [
        {
          "indexed": true,
          "name": "_burner",
          "type": "address"
        },
        {
          "indexed": false,
          "name": "_value",
          "type": "uint256"
        }
      ],
      "name": "Burn",
      "type": "event",
      "signature": "0xcc16f5dbb4873280815c1ee09dbd06736cffcc184412cf7a71a0fdb75d397ca5"
    },
    {
      "anonymous": false,
      "inputs": [
        {
          "indexed": true,
          "name": "owner",
          "type": "address"
        },
        {
          "indexed": true,
          "name": "spender",
          "type": "address"
        },
        {
          "indexed": false,
          "name": "value",
          "type": "uint256"
        }
      ],
      "name": "Approval",
      "type": "event",
      "signature": "0x8c5be1e5ebec7d5bd14f71427d1e84f3dd0314c0f7b2291e5b200ac8c7c3b925"
    },
    {
      "anonymous": false,
      "inputs": [
        {
          "indexed": true,
          "name": "from",
          "type": "address"
        },
        {
          "indexed": true,
          "name": "to",
          "type": "address"
        },
        {
          "indexed": false,
          "name": "value",
          "type": "uint256"
        }
      ],
      "name": "Transfer",
      "type": "event",
      "signature": "0xddf252ad1be2c89b69c2b068fc378daa952ba7f163c4a11628f55a4df523b3ef"
    }
  ],
  "bytecode": "0x606060405260408051908101604052600781527f4f6d697365476f000000000000000000000000000000000000000000000000006020820152600390805161004b9291602001906100dc565b5060408051908101604052600381527f4f4d470000000000000000000000000000000000000000000000000000000000602082015260049080516100939291602001906100dc565b506005805460ff191660121790556a115eec47f6cf7e3500000060065534156100bb57600080fd5b600654600160a060020a033316600090815260016020526040902055610177565b828054600181600116156101000203166002900490600052602060002090601f016020900481019282601f1061011d57805160ff191683800117855561014a565b8280016001018555821561014a579182015b8281111561014a57825182559160200191906001019061012f565b5061015692915061015a565b5090565b61017491905b808211156101565760008155600101610160565b90565b610838806101866000396000f3006060604052600436106100c45763ffffffff7c010000000000000000000000000000000000000000000000000000000060003504166306fdde0381146100c9578063095ea7b31461015357806318160ddd1461018957806323b872dd146101ae57806327e235e3146101d6578063313ce567146101f557806342966c681461021e5780635c6581651461023457806370a082311461025957806379cc67901461027857806395d89b411461029a578063a9059cbb146102ad578063dd62ed3e146102cf575b600080fd5b34156100d457600080fd5b6100dc6102f4565b60405160208082528190810183818151815260200191508051906020019080838360005b83811015610118578082015183820152602001610100565b50505050905090810190601f1680156101455780820380516001836020036101000a031916815260200191505b509250505060405180910390f35b341561015e57600080fd5b610175600160a060020a0360043516602435610392565b604051901515815260200160405180910390f35b341561019457600080fd5b61019c6103fe565b60405190815260200160405180910390f35b34156101b957600080fd5b610175600160a060020a0360043581169060243516604435610404565b34156101e157600080fd5b61019c600160a060020a036004351661052f565b341561020057600080fd5b610208610541565b60405160ff909116815260200160405180910390f35b341561022957600080fd5b61017560043561054a565b341561023f57600080fd5b61019c600160a060020a0360043581169060243516610627565b341561026457600080fd5b61019c600160a060020a0360043516610644565b341561028357600080fd5b610175600160a060020a036004351660243561065f565b34156102a557600080fd5b6100dc61067d565b34156102b857600080fd5b610175600160a060020a03600435166024356106e8565b34156102da57600080fd5b61019c600160a060020a03600435811690602435166107ba565b60038054600181600116156101000203166002900480601f01602080910402602001604051908101604052809291908181526020018280546001816001161561010002031660029004801561038a5780601f1061035f5761010080835404028352916020019161038a565b820191906000526020600020905b81548152906001019060200180831161036d57829003601f168201915b505050505081565b600160a060020a03338116600081815260026020908152604080832094871680845294909152808220859055909291907f8c5be1e5ebec7d5bd14f71427d1e84f3dd0314c0f7b2291e5b200ac8c7c3b9259085905190815260200160405180910390a350600192915050565b60065481565b600160a060020a038084166000908152600260209081526040808320339094168352929052908120548083111561043a57600080fd5b600160a060020a038416600090815260016020526040902054610463908463ffffffff6107e516565b600160a060020a038086166000908152600160205260408082209390935590871681522054610498908463ffffffff6107f716565b600160a060020a0386166000908152600160205260409020556104c1818463ffffffff6107f716565b600160a060020a03808716600081815260026020908152604080832033861684529091529081902093909355908616917fddf252ad1be2c89b69c2b068fc378daa952ba7f163c4a11628f55a4df523b3ef9086905190815260200160405180910390a3506001949350505050565b60016020526000908152604090205481565b60055460ff1681565b600160a060020a033316600090815260016020526040812054610573908363ffffffff6107f716565b600160a060020a033316600090815260016020526040812091909155546105a0908363ffffffff6107f716565b600055600160a060020a0333167fcc16f5dbb4873280815c1ee09dbd06736cffcc184412cf7a71a0fdb75d397ca58360405190815260200160405180910390a2600033600160a060020a03167fddf252ad1be2c89b69c2b068fc378daa952ba7f163c4a11628f55a4df523b3ef8460405190815260200160405180910390a3506001919050565b600260209081526000928352604080842090915290825290205481565b600160a060020a031660009081526001602052604090205490565b600061066c833384610404565b506106768261054a565b9392505050565b60048054600181600116156101000203166002900480601f01602080910402602001604051908101604052809291908181526020018280546001816001161561010002031660029004801561038a5780601f1061035f5761010080835404028352916020019161038a565b6000604060443610156106fa57600080fd5b600160a060020a033316600090815260016020526040902054610723908463ffffffff6107f716565b600160a060020a033381166000908152600160205260408082209390935590861681522054610758908463ffffffff6107e516565b600160a060020a0380861660008181526001602052604090819020939093559133909116907fddf252ad1be2c89b69c2b068fc378daa952ba7f163c4a11628f55a4df523b3ef9086905190815260200160405180910390a35060019392505050565b600160a060020a03918216600090815260026020908152604080832093909416825291909152205490565b60008282018381101561067657600080fd5b60008282111561080657600080fd5b509003905600a165627a7a723058205e20e70123ed26edae8d773093eb8e71f9c22328cf5fa520baf0bb615fdbe0d70029",
  "source": "pragma solidity 0.4.18;\r\n\r\n\r\nlibrary SafeMath {\r\n    function mul(uint a, uint b) internal pure returns (uint) {\r\n        uint c = a * b;\r\n        require(a == 0 || c / a == b);\r\n        return c;\r\n    }\r\n\r\n    function div(uint a, uint b) internal pure returns (uint) {\r\n        require(b > 0);\r\n        uint c = a / b;\r\n        require(a == b * c + a % b);\r\n        return c;\r\n    }\r\n\r\n    function sub(uint a, uint b) internal pure returns (uint) {\r\n        require(b <= a);\r\n        return a - b;\r\n    }\r\n\r\n    function add(uint a, uint b) internal pure returns (uint) {\r\n        uint c = a + b;\r\n        require(c >= a);\r\n        return c;\r\n    }\r\n\r\n    function max64(uint64 a, uint64 b) internal pure returns (uint64) {\r\n        return a >= b ? a : b;\r\n    }\r\n\r\n    function min64(uint64 a, uint64 b) internal pure returns (uint64) {\r\n        return a < b ? a : b;\r\n    }\r\n\r\n    function max256(uint256 a, uint256 b) internal pure returns (uint256) {\r\n        return a >= b ? a : b;\r\n    }\r\n\r\n    function min256(uint256 a, uint256 b) internal pure returns (uint256) {\r\n        return a < b ? a : b;\r\n    }\r\n}\r\n\r\n\r\ncontract ERC20Basic {\r\n    uint public totalSupply;\r\n    function balanceOf(address who) public view returns (uint);\r\n    function transfer(address to, uint value) public returns (bool);\r\n    event Transfer(address indexed from, address indexed to, uint value);\r\n}\r\n\r\n\r\ncontract ERC20 is ERC20Basic {\r\n    function allowance(address owner, address spender) public view returns (uint);\r\n    function transferFrom(address from, address to, uint value) public returns (bool);\r\n    function approve(address spender, uint value) public returns (bool);\r\n    event Approval(address indexed owner, address indexed spender, uint value);\r\n}\r\n\r\n\r\ncontract BasicToken is ERC20Basic {\r\n    using SafeMath for uint;\r\n\r\n    mapping(address => uint) public balances;\r\n\r\n    modifier onlyPayloadSize(uint size) {\r\n        if (msg.data.length < size + 4) {\r\n            revert();\r\n        }\r\n        _;\r\n    }\r\n\r\n    function transfer(address _to, uint _value)  public onlyPayloadSize(2 * 32) returns (bool) {\r\n        balances[msg.sender] = balances[msg.sender].sub(_value);\r\n        balances[_to] = balances[_to].add(_value);\r\n        Transfer(msg.sender, _to, _value);\r\n        return true;\r\n    }\r\n\r\n    function balanceOf(address _owner) public view returns (uint balance) {\r\n        return balances[_owner];\r\n    }\r\n}\r\n\r\n\r\ncontract StandardBurnableToken is BasicToken, ERC20 {\r\n    event Burn(address indexed _burner, uint _value);\r\n\r\n    function burn(uint _value) public returns (bool) {\r\n        balances[msg.sender] = balances[msg.sender].sub(_value);\r\n        totalSupply = totalSupply.sub(_value);\r\n        Burn(msg.sender, _value);\r\n        Transfer(msg.sender, address(0x0), _value);\r\n        return true;\r\n    }\r\n\r\n    // save some gas by making only one contract call\r\n    function burnFrom(address _from, uint256 _value) public returns (bool) {\r\n        transferFrom(_from, msg.sender, _value);\r\n        return burn(_value);\r\n    }\r\n}\r\n\r\n\r\ncontract StandardToken is BasicToken, ERC20 {\r\n    mapping (address => mapping (address => uint)) public allowed;\r\n\r\n    function transferFrom(address _from, address _to, uint _value) public returns (bool) {\r\n        var _allowance = allowed[_from][msg.sender];\r\n\r\n        // Check is not needed because sub(_allowance, _value) will already revert if this condition is not met\r\n        if (_value > _allowance) revert();\r\n\r\n        balances[_to] = balances[_to].add(_value);\r\n        balances[_from] = balances[_from].sub(_value);\r\n        allowed[_from][msg.sender] = _allowance.sub(_value);\r\n        Transfer(_from, _to, _value);\r\n        return true;\r\n    }\r\n\r\n    function approve(address _spender, uint _value) public returns (bool) {\r\n        allowed[msg.sender][_spender] = _value;\r\n        Approval(msg.sender, _spender, _value);\r\n        return true;\r\n    }\r\n\r\n    function allowance(address _owner, address _spender) public view returns (uint remaining) {\r\n        return allowed[_owner][_spender];\r\n    }\r\n}\r\n\r\n\r\ncontract OmiseGo is StandardToken, StandardBurnableToken {\r\n    string public name = \"OmiseGo\";\r\n    string public symbol = \"OMG\";\r\n    uint8 public decimals = 18;\r\n    uint public totalSupply = 21 * (10 ** 24);\r\n\r\n    function OmiseGo() public {\r\n        balances[msg.sender] = totalSupply;\r\n    }\r\n}\r\n",
  "sourcePath": "C:/Users/phangjunyu/desktop/ethsg-lenXe/kyber/contracts/mockTokens/OmiseGo.sol",
  "compiler": {
    "name": "solc",
    "version": "0.4.18+commit.9cf6e910.Emscripten.clang"
  },
  "schemaVersion": "3.0.0-beta.1",
  "updatedAt": "2018-12-08T20:25:56.286Z"
}