{
  "contractName": "Relayer",
  "abi": [
    {
      "constant": true,
      "inputs": [],
      "name": "proxy",
      "outputs": [
        {
          "name": "",
          "type": "address"
        }
      ],
      "payable": false,
      "stateMutability": "view",
      "type": "function",
      "signature": "0xec556889"
    },
    {
      "inputs": [
        {
          "name": "_proxy",
          "type": "address"
        }
      ],
      "payable": false,
      "stateMutability": "nonpayable",
      "type": "constructor",
      "signature": "constructor"
    },
    {
      "anonymous": false,
      "inputs": [
        {
          "indexed": true,
          "name": "sender",
          "type": "address"
        },
        {
          "indexed": false,
          "name": "minConversionRate",
          "type": "uint256"
        },
        {
          "indexed": false,
          "name": "slippageRate",
          "type": "uint256"
        }
      ],
      "name": "Rates",
      "type": "event",
      "signature": "0x323bb360434bac8ae1fc351ee9728d1d0fee547648b9033fa2ef85c3e5e1ab73"
    },
    {
      "constant": false,
      "inputs": [
        {
          "name": "srcToken",
          "type": "address"
        },
        {
          "name": "srcQty",
          "type": "uint256"
        },
        {
          "name": "destToken",
          "type": "address"
        }
      ],
      "name": "queryKyberOB",
      "outputs": [
        {
          "name": "",
          "type": "uint256"
        },
        {
          "name": "",
          "type": "uint256"
        }
      ],
      "payable": false,
      "stateMutability": "nonpayable",
      "type": "function",
      "signature": "0x5e83189e"
    }
  ],
  "bytecode": "0x6060604052341561000f57600080fd5b6040516020806102498339810160405280805160008054600160a060020a03909216600160a060020a031990921691909117905550506101f5806100546000396000f30060606040526004361061004b5763ffffffff7c01000000000000000000000000000000000000000000000000000000006000350416635e83189e8114610050578063ec5568891461009e575b600080fd5b341561005b57600080fd5b61008673ffffffffffffffffffffffffffffffffffffffff60043581169060243590604435166100da565b60405191825260208201526040908101905180910390f35b34156100a957600080fd5b6100b16101ad565b60405173ffffffffffffffffffffffffffffffffffffffff909116815260200160405180910390f35b6000805481908190819073ffffffffffffffffffffffffffffffffffffffff1663809a9e5588878985604051604001526040517c010000000000000000000000000000000000000000000000000000000063ffffffff861602815273ffffffffffffffffffffffffffffffffffffffff938416600482015291909216602482015260448101919091526064016040805180830381600087803b151561017e57600080fd5b6102c65a03f1151561018f57600080fd5b50505060405180519060200180519199919850909650505050505050565b60005473ffffffffffffffffffffffffffffffffffffffff16815600a165627a7a723058205d519e018733dc6fbfc96e0fea3433ce95c91ef9bfeb953d4bcb8ce5b9fdb6b40029",
  "source": "pragma solidity ^0.4.18;\r\nimport \"../examples/Trade.sol\";\r\nimport \"./zxService.sol\";\r\n\r\n\r\n/// @title Relayer that allows user interaction  with Kyber Network and 0x \r\ncontract Relayer{\r\n\r\n    event Rates(address indexed sender, uint minConversionRate, uint slippageRate);\r\n    \r\n    KyberNetworkProxy public proxy;\r\n    ERC20 constant internal ETH_TOKEN_ADDRESS = ERC20(0x00eeeeeeeeeeeeeeeeeeeeeeeeeeeeeeeeeeeeeeee);\r\n\r\n    function Relayer(KyberNetworkProxy _proxy) public {\r\n        proxy = _proxy;\r\n    }\r\n\r\n    /// @dev should query KyberOB.sol \r\n    /// @param srcToken source token contract address\r\n    /// @param srcQty amount of source tokens\r\n    /// @param destToken destination token contract address\r\n    function queryKyberOB(\r\n        ERC20 srcToken,\r\n        uint srcQty,\r\n        ERC20 destToken\r\n    ) public returns (uint, uint) {\r\n        uint minConversionRate;\r\n        uint slippageRate;\r\n        // Get the minimum conversion rate\r\n        (minConversionRate, slippageRate) = proxy.getExpectedRate(srcToken,destToken, srcQty);\r\n        //changge return type to match to compile TODO\r\n        return (minConversionRate, slippageRate);\r\n        // Log the event\r\n        // Rates(msg.sender, minConversionRate, slippageRate);\r\n    }\r\n\r\n}\r\n",
  "sourcePath": "C:/Users/phangjunyu/desktop/ethsg-lenXe/kyber/contracts/ethSG/relayer.sol",
  "compiler": {
    "name": "solc",
    "version": "0.4.18+commit.9cf6e910.Emscripten.clang"
  },
  "schemaVersion": "3.0.0-beta.1",
  "updatedAt": "2018-12-08T20:25:56.246Z"
}