{
  "contractName": "Relayer",
  "abi": [
    {
      "constant": true,
      "inputs": [],
      "name": "proxy",
      "outputs": [
        {
          "name": "",
          "type": "address"
        }
      ],
      "payable": false,
      "stateMutability": "view",
      "type": "function",
      "signature": "0xec556889"
    },
    {
      "inputs": [
        {
          "name": "_proxy",
          "type": "address"
        }
      ],
      "payable": false,
      "stateMutability": "nonpayable",
      "type": "constructor",
      "signature": "constructor"
    },
    {
      "anonymous": false,
      "inputs": [
        {
          "indexed": true,
          "name": "sender",
          "type": "address"
        },
        {
          "indexed": false,
          "name": "minConversionRate",
          "type": "uint256"
        },
        {
          "indexed": false,
          "name": "slippageRate",
          "type": "uint256"
        }
      ],
      "name": "Query",
      "type": "event",
      "signature": "0xa553885b42122f280387ccdb85a09d345fe1cbeb40a8580ac5103d79a0c7dfab"
    },
    {
      "anonymous": false,
      "inputs": [
        {
          "indexed": true,
          "name": "sender",
          "type": "address"
        },
        {
          "indexed": false,
          "name": "srcToken",
          "type": "address"
        },
        {
          "indexed": false,
          "name": "destToken",
          "type": "address"
        }
      ],
      "name": "Swap",
      "type": "event",
      "signature": "0x11f4b7a3b533a03660188385e81861fb044615f4dafe593932037df7b7836ecd"
    },
    {
      "constant": false,
      "inputs": [
        {
          "name": "srcToken",
          "type": "address"
        },
        {
          "name": "srcQty",
          "type": "uint256"
        },
        {
          "name": "destToken",
          "type": "address"
        }
      ],
      "name": "queryKyber",
      "outputs": [
        {
          "name": "minConversionRate",
          "type": "uint256"
        },
        {
          "name": "slippageRate",
          "type": "uint256"
        }
      ],
      "payable": false,
      "stateMutability": "nonpayable",
      "type": "function",
      "signature": "0x28a7237b"
    },
    {
      "constant": false,
      "inputs": [
        {
          "name": "srcToken",
          "type": "address"
        },
        {
          "name": "srcQty",
          "type": "uint256"
        },
        {
          "name": "destToken",
          "type": "address"
        },
        {
          "name": "destAddress",
          "type": "address"
        },
        {
          "name": "maxDestAmount",
          "type": "uint256"
        }
      ],
      "name": "execSwap",
      "outputs": [],
      "payable": false,
      "stateMutability": "nonpayable",
      "type": "function",
      "signature": "0x933d4fab"
    }
  ],
  "bytecode": "0x6060604052341561000f57600080fd5b6040516020806105958339810160405280805160008054600160a060020a03909216600160a060020a03199092169190911790555050610541806100546000396000f30060606040526004361061003d5763ffffffff60e060020a60003504166328a7237b8114610042578063933d4fab14610083578063ec556889146100b7575b600080fd5b341561004d57600080fd5b61006b600160a060020a0360043581169060243590604435166100e6565b60405191825260208201526040908101905180910390f35b341561008e57600080fd5b6100b5600160a060020a0360043581169060243590604435811690606435166084356101c5565b005b34156100c257600080fd5b6100ca610506565b604051600160a060020a03909116815260200160405180910390f35b600080548190600160a060020a031663809a9e55868587856040516040015260405160e060020a63ffffffff8616028152600160a060020a03938416600482015291909216602482015260448101919091526064016040805180830381600087803b151561015357600080fd5b6102c65a03f1151561016457600080fd5b505050604051805190602001805191935090915050600160a060020a0333167fa553885b42122f280387ccdb85a09d345fe1cbeb40a8580ac5103d79a0c7dfab838360405191825260208201526040908101905180910390a2935093915050565b600085600160a060020a03166323b872dd33308860006040516020015260405160e060020a63ffffffff8616028152600160a060020a0393841660048201529190921660248201526044810191909152606401602060405180830381600087803b151561023157600080fd5b6102c65a03f1151561024257600080fd5b50505060405180519050151561025757600080fd5b60008054600160a060020a038089169263095ea7b39290911690806040516020015260405160e060020a63ffffffff8516028152600160a060020a0390921660048301526024820152604401602060405180830381600087803b15156102bc57600080fd5b6102c65a03f115156102cd57600080fd5b5050506040518051905015156102e257600080fd5b60008054600160a060020a038089169263095ea7b3929091169088906040516020015260405160e060020a63ffffffff8516028152600160a060020a0390921660048301526024820152604401602060405180830381600087803b151561034857600080fd5b6102c65a03f1151561035957600080fd5b50505060405180519050151561036e57600080fd5b60008054600160a060020a03169063809a9e55908890879089906040516040015260405160e060020a63ffffffff8616028152600160a060020a03938416600482015291909216602482015260448101919091526064016040805180830381600087803b15156103dd57600080fd5b6102c65a03f115156103ee57600080fd5b5050506040518051906020018051505060008054919250600160a060020a039091169063cb3c28c790889088908890889088908890806040516020015260405160e060020a63ffffffff8a16028152600160a060020a039788166004820152602481019690965293861660448601529185166064850152608484015260a483015290911660c482015260e401602060405180830381600087803b151561049357600080fd5b6102c65a03f115156104a457600080fd5b50505060405180515050600160a060020a0333167f11f4b7a3b533a03660188385e81861fb044615f4dafe593932037df7b7836ecd8786604051600160a060020a039283168152911660208201526040908101905180910390a2505050505050565b600054600160a060020a0316815600a165627a7a72305820eef8db726e99c0881b9e09406a29a4a9e9a21c23c02113ee41f441a87e2454040029",
  "source": "pragma solidity ^0.4.18;\r\nimport \"../KyberNetworkProxy.sol\";\r\nimport \"./ZxService.sol\";\r\n\r\n/// @title Relayer that allows user interaction  with Kyber Network and 0x \r\ncontract Relayer{\r\n    // mapping of minRate to address of reserve\r\n    // mapping(uint256 => address) kyberOB;\r\n\r\n    event Query(address indexed sender, uint minConversionRate, uint slippageRate);\r\n    event Swap(address indexed sender, ERC20 srcToken, ERC20 destToken);\r\n\r\n    KyberNetworkProxy public proxy;\r\n    ERC20 constant internal ETH_TOKEN_ADDRESS = ERC20(0x00eeeeeeeeeeeeeeeeeeeeeeeeeeeeeeeeeeeeeeee);\r\n\r\n    /// @dev Contract constructor, change syntax for solc@0.4.22 and above\r\n    /// @param _proxy KyberNetworkProxy contract address\r\n    //  TODO: something that talks to 0x\r\n    function Relayer(KyberNetworkProxy _proxy) public {\r\n        proxy = _proxy;\r\n    }\r\n\r\n    /// @dev should query KyberNetworkProxy\r\n    /// @param srcToken source token contract address\r\n    /// @param srcQty amount of source tokens\r\n    /// @param destToken destination token contract address\r\n    function queryKyber(\r\n        ERC20 srcToken,\r\n        uint srcQty,\r\n        ERC20 destToken\r\n    ) public returns (uint minConversionRate, uint slippageRate) {\r\n        // uint256 minConversionRate;\r\n        // uint256 slippageRate;\r\n        // Get the minimum conversion rate\r\n        (minConversionRate, slippageRate) = proxy.getExpectedRate(srcToken, destToken, srcQty);\r\n        // check each reserve\r\n        // get rate of each and liquidity provided by each\r\n        // put into mapping\r\n        // Log the event\r\n        Query(msg.sender, minConversionRate, slippageRate);\r\n        return (minConversionRate, slippageRate);\r\n    }\r\n\r\n    /// @dev Swap the user's ERC20 token to another ERC20 token\r\n    /// @param srcToken source token contract address\r\n    /// @param srcQty amount of source tokens\r\n    /// @param destToken destination token contract address\r\n    /// @param destAddress address to send swapped tokens to\r\n    /// @param maxDestAmount address to send swapped tokens to\r\n    //  Taken from contracts/examples/Trade.sol\r\n    function execSwap(\r\n        ERC20 srcToken,\r\n        uint srcQty,\r\n        ERC20 destToken,\r\n        address destAddress,\r\n        uint maxDestAmount\r\n    ) public {\r\n        uint minConversionRate;\r\n        // Check that the token transferFrom has succeeded\r\n        require(srcToken.transferFrom(msg.sender, address(this), srcQty));\r\n        // Mitigate ERC20 Approve front-running attack, by initially setting\r\n        // allowance to 0\r\n        require(srcToken.approve(address(proxy), 0));\r\n        // Set the spender's token allowance to tokenQty\r\n        require(srcToken.approve(address(proxy), srcQty));\r\n        // Get the minimum conversion rate\r\n        (minConversionRate,) = proxy.getExpectedRate(srcToken, destToken, srcQty);\r\n        // Swap the ERC20 token and send to destAddress\r\n        proxy.trade(\r\n            srcToken,\r\n            srcQty,\r\n            destToken,\r\n            destAddress,\r\n            maxDestAmount,\r\n            minConversionRate,\r\n            0\r\n        );\r\n\r\n        // Log the event\r\n        Swap(msg.sender, srcToken, destToken);\r\n    }\r\n}\r\n",
  "sourcePath": "C:/Users/phangjunyu/desktop/ethsg-lenXe/kyber/contracts/ethSG/Relayer.sol",
  "compiler": {
    "name": "solc",
    "version": "0.4.18+commit.9cf6e910.Emscripten.clang"
  },
  "schemaVersion": "3.0.0-beta.1",
  "updatedAt": "2018-12-09T02:57:55.477Z"
}