{
  "contractName": "SwapEtherToToken",
  "abi": [
    {
      "constant": true,
      "inputs": [],
      "name": "proxy",
      "outputs": [
        {
          "name": "",
          "type": "address"
        }
      ],
      "payable": false,
      "stateMutability": "view",
      "type": "function",
      "signature": "0xec556889"
    },
    {
      "inputs": [
        {
          "name": "_proxy",
          "type": "address"
        }
      ],
      "payable": false,
      "stateMutability": "nonpayable",
      "type": "constructor",
      "signature": "constructor"
    },
    {
      "anonymous": false,
      "inputs": [
        {
          "indexed": true,
          "name": "sender",
          "type": "address"
        },
        {
          "indexed": false,
          "name": "destToken",
          "type": "address"
        },
        {
          "indexed": false,
          "name": "amount",
          "type": "uint256"
        }
      ],
      "name": "Swap",
      "type": "event",
      "signature": "0xea368a40e9570069bb8e6511d668293ad2e1f03b0d982431fd223de9f3b70ca6"
    },
    {
      "constant": false,
      "inputs": [
        {
          "name": "token",
          "type": "address"
        },
        {
          "name": "destAddress",
          "type": "address"
        }
      ],
      "name": "execSwap",
      "outputs": [],
      "payable": true,
      "stateMutability": "payable",
      "type": "function",
      "signature": "0x5eab968d"
    }
  ],
  "bytecode": "0x6060604052341561000f57600080fd5b60405160208061030f8339810160405280805160008054600160a060020a03909216600160a060020a031990921691909117905550506102bb806100546000396000f3006060604052600436106100325763ffffffff60e060020a6000350416635eab968d8114610037578063ec55688914610053575b600080fd5b610051600160a060020a0360043581169060243516610082565b005b341561005e57600080fd5b610066610280565b604051600160a060020a03909116815260200160405180910390f35b600080548190600160a060020a031663809a9e5573eeeeeeeeeeeeeeeeeeeeeeeeeeeeeeeeeeeeeeee8634856040516040015260405160e060020a63ffffffff8616028152600160a060020a03938416600482015291909216602482015260448101919091526064016040805180830381600087803b151561010357600080fd5b6102c65a03f1151561011457600080fd5b5050506040518051906020018051505060008054919350600160a060020a0390911690637a2a0456903490879086906040516020015260405160e060020a63ffffffff8616028152600160a060020a03909216600483015260248201526044016020604051808303818588803b151561018c57600080fd5b6125ee5a03f1151561019d57600080fd5b505050506040518051915050600160a060020a03841663a9059cbb848360006040516020015260405160e060020a63ffffffff8516028152600160a060020a0390921660048301526024820152604401602060405180830381600087803b151561020657600080fd5b6102c65a03f1151561021757600080fd5b50505060405180519050151561022c57600080fd5b33600160a060020a03167fea368a40e9570069bb8e6511d668293ad2e1f03b0d982431fd223de9f3b70ca68583604051600160a060020a03909216825260208201526040908101905180910390a250505050565b600054600160a060020a0316815600a165627a7a7230582087f4dcd94f6491c3ea5d3aadf3866e5ee9d8ab582f9f1b9794585fe269887d410029",
  "source": "pragma solidity ^0.4.18;\r\n\r\nimport \"../KyberNetworkProxy.sol\";\r\n\r\n\r\ncontract SwapEtherToToken {\r\n    event Swap(address indexed sender, ERC20 destToken, uint amount);\r\n\r\n    KyberNetworkProxy public proxy;\r\n    ERC20 constant internal ETH_TOKEN_ADDRESS = ERC20(0x00eeeeeeeeeeeeeeeeeeeeeeeeeeeeeeeeeeeeeeee);\r\n\r\n    //@dev Contract contstructor\r\n    //@param _proxy KyberNetworkProxy contract address\r\n    function SwapEtherToToken(KyberNetworkProxy _proxy) public {\r\n        proxy = _proxy;\r\n    }\r\n\r\n    //@dev Swap the user's ETH to ERC20 token\r\n    //@param token destination token contract address\r\n    //@param destAddress address to send swapped tokens to\r\n    function execSwap(ERC20 token, address destAddress) public payable {\r\n        uint minConversionRate;\r\n\r\n        // Get the minimum conversion rate\r\n        (minConversionRate,) = proxy.getExpectedRate(ETH_TOKEN_ADDRESS, token, msg.value);\r\n\r\n        // Swap the ETH to ERC20 token\r\n        uint destAmount = proxy.swapEtherToToken.value(msg.value)(token, minConversionRate);\r\n\r\n        // Send the swapped tokens to the destination address\r\n        require(token.transfer(destAddress, destAmount));\r\n\r\n        // Log the event\r\n        Swap(msg.sender, token, destAmount);\r\n    }\r\n}\r\n",
  "sourcePath": "C:/Users/phangjunyu/desktop/ethsg-lenXe/kyber/contracts/examples/SwapEtherToToken.sol",
  "compiler": {
    "name": "solc",
    "version": "0.4.18+commit.9cf6e910.Emscripten.clang"
  },
  "schemaVersion": "3.0.0-beta.1",
  "updatedAt": "2018-12-08T20:25:56.215Z"
}