{
  "contractName": "SwapTokenToToken",
  "abi": [
    {
      "constant": true,
      "inputs": [],
      "name": "proxy",
      "outputs": [
        {
          "name": "",
          "type": "address"
        }
      ],
      "payable": false,
      "stateMutability": "view",
      "type": "function",
      "signature": "0xec556889"
    },
    {
      "inputs": [
        {
          "name": "_proxy",
          "type": "address"
        }
      ],
      "payable": false,
      "stateMutability": "nonpayable",
      "type": "constructor",
      "signature": "constructor"
    },
    {
      "anonymous": false,
      "inputs": [
        {
          "indexed": true,
          "name": "sender",
          "type": "address"
        },
        {
          "indexed": false,
          "name": "srcToken",
          "type": "address"
        },
        {
          "indexed": false,
          "name": "destToken",
          "type": "address"
        },
        {
          "indexed": false,
          "name": "amount",
          "type": "uint256"
        }
      ],
      "name": "Swap",
      "type": "event",
      "signature": "0xffebebfb273923089a3ed6bac0fd4686ac740307859becadeb82f998e30db614"
    },
    {
      "constant": false,
      "inputs": [
        {
          "name": "srcToken",
          "type": "address"
        },
        {
          "name": "srcQty",
          "type": "uint256"
        },
        {
          "name": "destToken",
          "type": "address"
        },
        {
          "name": "destAddress",
          "type": "address"
        }
      ],
      "name": "execSwap",
      "outputs": [],
      "payable": false,
      "stateMutability": "nonpayable",
      "type": "function",
      "signature": "0x5d47135c"
    }
  ],
  "bytecode": "0x6060604052341561000f57600080fd5b6040516020806104f28339810160405280805160008054600160a060020a03909216600160a060020a0319909216919091179055505061049e806100546000396000f3006060604052600436106100325763ffffffff60e060020a6000350416635d47135c8114610037578063ec55688914610068575b600080fd5b341561004257600080fd5b610066600160a060020a036004358116906024359060443581169060643516610097565b005b341561007357600080fd5b61007b610463565b604051600160a060020a03909116815260200160405180910390f35b60008085600160a060020a03166323b872dd33308860006040516020015260405160e060020a63ffffffff8616028152600160a060020a0393841660048201529190921660248201526044810191909152606401602060405180830381600087803b151561010457600080fd5b6102c65a03f1151561011557600080fd5b50505060405180519050151561012a57600080fd5b60008054600160a060020a038089169263095ea7b39290911690806040516020015260405160e060020a63ffffffff8516028152600160a060020a0390921660048301526024820152604401602060405180830381600087803b151561018f57600080fd5b6102c65a03f115156101a057600080fd5b5050506040518051905015156101b557600080fd5b60008054600160a060020a038089169263095ea7b3929091169088906040516020015260405160e060020a63ffffffff8516028152600160a060020a0390921660048301526024820152604401602060405180830381600087803b151561021b57600080fd5b6102c65a03f1151561022c57600080fd5b50505060405180519050151561024157600080fd5b60008054600160a060020a03169063809a9e5590889073eeeeeeeeeeeeeeeeeeeeeeeeeeeeeeeeeeeeeeee9089906040516040015260405160e060020a63ffffffff8616028152600160a060020a03938416600482015291909216602482015260448101919091526064016040805180830381600087803b15156102c457600080fd5b6102c65a03f115156102d557600080fd5b5050506040518051906020018051505060008054919350600160a060020a0390911690637409e2eb9088908890889087906040516020015260405160e060020a63ffffffff8716028152600160a060020a0394851660048201526024810193909352921660448201526064810191909152608401602060405180830381600087803b151561036257600080fd5b6102c65a03f1151561037357600080fd5b5050506040518051915050600160a060020a03841663a9059cbb848360006040516020015260405160e060020a63ffffffff8516028152600160a060020a0390921660048301526024820152604401602060405180830381600087803b15156103db57600080fd5b6102c65a03f115156103ec57600080fd5b50505060405180519050151561040157600080fd5b33600160a060020a03167fffebebfb273923089a3ed6bac0fd4686ac740307859becadeb82f998e30db614878684604051600160a060020a039384168152919092166020820152604080820192909252606001905180910390a2505050505050565b600054600160a060020a0316815600a165627a7a7230582028e63553fbc8137b5f39fd4718033e93f06e770dba60c80dba9e7c0bc1c27dbd0029",
  "source": "pragma solidity ^0.4.18;\r\n\r\nimport \"../KyberNetworkProxy.sol\";\r\n\r\n\r\ncontract SwapTokenToToken {\r\n    event Swap(address indexed sender, ERC20 srcToken, ERC20 destToken, uint amount);\r\n\r\n    KyberNetworkProxy public proxy;\r\n    ERC20 constant internal ETH_TOKEN_ADDRESS = ERC20(0x00eeeeeeeeeeeeeeeeeeeeeeeeeeeeeeeeeeeeeeee);\r\n\r\n    //@dev Contract contstructor\r\n    //@param _proxy KyberNetworkProxy contract address\r\n    function SwapTokenToToken(KyberNetworkProxy _proxy) public {\r\n        proxy = _proxy;\r\n    }\r\n\r\n    //@dev Swap the user's ERC20 token to another ERC20 token\r\n    //@param srcToken source token contract address\r\n    //@param srcQty amount of source tokens\r\n    //@param destToken destination token contract address\r\n    //@param destAddress address to send swapped tokens to\r\n    function execSwap(ERC20 srcToken, uint srcQty, ERC20 destToken, address destAddress) public {\r\n        uint minConversionRate;\r\n\r\n        // Check that the token transferFrom has succeeded\r\n        require(srcToken.transferFrom(msg.sender, address(this), srcQty));\r\n\r\n        // Mitigate ERC20 Approve front-running attack, by initially setting\r\n        // allowance to 0\r\n        require(srcToken.approve(address(proxy), 0));\r\n\r\n        // Set the spender's token allowance to tokenQty\r\n        require(srcToken.approve(address(proxy), srcQty));\r\n\r\n        // Get the minimum conversion rate\r\n        (minConversionRate,) = proxy.getExpectedRate(srcToken, ETH_TOKEN_ADDRESS, srcQty);\r\n\r\n        // Swap the ERC20 token to ETH\r\n        uint destAmount = proxy.swapTokenToToken(srcToken, srcQty, destToken, minConversionRate);\r\n\r\n        // Send the swapped tokens to the destination address\r\n        require(destToken.transfer(destAddress, destAmount));\r\n\r\n        // Log the event\r\n        Swap(msg.sender, srcToken, destToken, destAmount);\r\n    }\r\n}\r\n",
  "sourcePath": "C:/Users/phangjunyu/desktop/ethsg-lenXe/kyber/contracts/examples/SwapTokenToToken.sol",
  "compiler": {
    "name": "solc",
    "version": "0.4.18+commit.9cf6e910.Emscripten.clang"
  },
  "schemaVersion": "3.0.0-beta.1",
  "updatedAt": "2018-12-09T02:57:55.473Z"
}