{
  "contractName": "SwapTokenToEther",
  "abi": [
    {
      "constant": true,
      "inputs": [],
      "name": "proxy",
      "outputs": [
        {
          "name": "",
          "type": "address"
        }
      ],
      "payable": false,
      "stateMutability": "view",
      "type": "function",
      "signature": "0xec556889"
    },
    {
      "inputs": [
        {
          "name": "_proxy",
          "type": "address"
        }
      ],
      "payable": false,
      "stateMutability": "nonpayable",
      "type": "constructor",
      "signature": "constructor"
    },
    {
      "payable": true,
      "stateMutability": "payable",
      "type": "fallback"
    },
    {
      "anonymous": false,
      "inputs": [
        {
          "indexed": true,
          "name": "sender",
          "type": "address"
        },
        {
          "indexed": false,
          "name": "srcToken",
          "type": "address"
        },
        {
          "indexed": false,
          "name": "amount",
          "type": "uint256"
        }
      ],
      "name": "Swap",
      "type": "event",
      "signature": "0xea368a40e9570069bb8e6511d668293ad2e1f03b0d982431fd223de9f3b70ca6"
    },
    {
      "constant": false,
      "inputs": [
        {
          "name": "token",
          "type": "address"
        },
        {
          "name": "tokenQty",
          "type": "uint256"
        },
        {
          "name": "destAddress",
          "type": "address"
        }
      ],
      "name": "execSwap",
      "outputs": [],
      "payable": false,
      "stateMutability": "nonpayable",
      "type": "function",
      "signature": "0x5c3c6068"
    }
  ],
  "bytecode": "0x6060604052341561000f57600080fd5b60405160208061047c8339810160405280805160008054600160a060020a03909216600160a060020a03199092169190911790555050610428806100546000396000f3006060604052600436106100325763ffffffff60e060020a6000350416635c3c60688114610034578063ec5568891461005d575b005b341561003f57600080fd5b610032600160a060020a03600435811690602435906044351661008c565b341561006857600080fd5b6100706103ed565b604051600160a060020a03909116815260200160405180910390f35b60008084600160a060020a03166323b872dd33308760006040516020015260405160e060020a63ffffffff8616028152600160a060020a0393841660048201529190921660248201526044810191909152606401602060405180830381600087803b15156100f957600080fd5b6102c65a03f1151561010a57600080fd5b50505060405180519050151561011f57600080fd5b60008054600160a060020a038088169263095ea7b39290911690806040516020015260405160e060020a63ffffffff8516028152600160a060020a0390921660048301526024820152604401602060405180830381600087803b151561018457600080fd5b6102c65a03f1151561019557600080fd5b5050506040518051905015156101aa57600080fd5b60008054600160a060020a038088169263095ea7b3929091169087906040516020015260405160e060020a63ffffffff8516028152600160a060020a0390921660048301526024820152604401602060405180830381600087803b151561021057600080fd5b6102c65a03f1151561022157600080fd5b50505060405180519050151561023657600080fd5b60008054600160a060020a03169063809a9e5590879073eeeeeeeeeeeeeeeeeeeeeeeeeeeeeeeeeeeeeeee9088906040516040015260405160e060020a63ffffffff8616028152600160a060020a03938416600482015291909216602482015260448101919091526064016040805180830381600087803b15156102b957600080fd5b6102c65a03f115156102ca57600080fd5b5050506040518051906020018051505060008054919350600160a060020a0390911690633bba21dc908790879086906040516020015260405160e060020a63ffffffff8616028152600160a060020a03909316600484015260248301919091526044820152606401602060405180830381600087803b151561034b57600080fd5b6102c65a03f1151561035c57600080fd5b5050506040518051915050600160a060020a03831681156108fc0282604051600060405180830381858888f19350505050151561039857600080fd5b33600160a060020a03167fea368a40e9570069bb8e6511d668293ad2e1f03b0d982431fd223de9f3b70ca68683604051600160a060020a03909216825260208201526040908101905180910390a25050505050565b600054600160a060020a0316815600a165627a7a723058209bc0bb2f9799b0dd29c2376f62382abeb04b4e8e46cf5708841a01fd843b17ac0029",
  "source": "pragma solidity ^0.4.18;\r\n\r\nimport \"../KyberNetworkProxy.sol\";\r\n\r\n\r\ncontract SwapTokenToEther {\r\n    event Swap(address indexed sender, ERC20 srcToken, uint amount);\r\n\r\n    KyberNetworkProxy public proxy;\r\n    ERC20 constant internal ETH_TOKEN_ADDRESS = ERC20(0x00eeeeeeeeeeeeeeeeeeeeeeeeeeeeeeeeeeeeeeee);\r\n\r\n    //@dev Contract contstructor\r\n    //@param _proxy KyberNetworkProxy contract address\r\n    function SwapTokenToEther(KyberNetworkProxy _proxy) public {\r\n        proxy = _proxy;\r\n    }\r\n\r\n    //@dev Fallback payable function\r\n    function() public payable { }\r\n\r\n    //@dev Swap the user's ERC20 token to ETH\r\n    //@param token source token contract address\r\n    //@param tokenQty amount of source tokens\r\n    //@param destAddress address to send swapped ETH to\r\n    function execSwap(ERC20 token, uint tokenQty, address destAddress) public {\r\n        uint minConversionRate;\r\n\r\n        // Check that the token transferFrom has succeeded\r\n        require(token.transferFrom(msg.sender, address(this), tokenQty));\r\n\r\n        // Mitigate ERC20 Approve front-running attack, by initially setting\r\n        // allowance to 0\r\n        require(token.approve(address(proxy), 0));\r\n\r\n        // Set the spender's token allowance to tokenQty\r\n        require(token.approve(address(proxy), tokenQty));\r\n\r\n        // Get the minimum conversion rate\r\n        (minConversionRate,) = proxy.getExpectedRate(token, ETH_TOKEN_ADDRESS, tokenQty);\r\n\r\n        // Swap the ERC20 token to ETH\r\n        uint destAmount = proxy.swapTokenToEther(token, tokenQty, minConversionRate);\r\n\r\n        // Send the swapped ETH to the destination address\r\n        destAddress.transfer(destAmount);\r\n\r\n        // Log the event\r\n        Swap(msg.sender, token, destAmount);\r\n    }\r\n}\r\n",
  "sourcePath": "C:/Users/phangjunyu/desktop/ethsg-lenXe/kyber/contracts/examples/SwapTokenToEther.sol",
  "compiler": {
    "name": "solc",
    "version": "0.4.18+commit.9cf6e910.Emscripten.clang"
  },
  "schemaVersion": "3.0.0-beta.1",
  "updatedAt": "2018-12-09T02:57:55.469Z"
}