{
  "contractName": "Trade",
  "abi": [
    {
      "constant": true,
      "inputs": [],
      "name": "proxy",
      "outputs": [
        {
          "name": "",
          "type": "address"
        }
      ],
      "payable": false,
      "stateMutability": "view",
      "type": "function",
      "signature": "0xec556889"
    },
    {
      "inputs": [
        {
          "name": "_proxy",
          "type": "address"
        }
      ],
      "payable": false,
      "stateMutability": "nonpayable",
      "type": "constructor",
      "signature": "constructor"
    },
    {
      "anonymous": false,
      "inputs": [
        {
          "indexed": true,
          "name": "sender",
          "type": "address"
        },
        {
          "indexed": false,
          "name": "srcToken",
          "type": "address"
        },
        {
          "indexed": false,
          "name": "destToken",
          "type": "address"
        }
      ],
      "name": "Swap",
      "type": "event",
      "signature": "0x11f4b7a3b533a03660188385e81861fb044615f4dafe593932037df7b7836ecd"
    },
    {
      "constant": false,
      "inputs": [
        {
          "name": "srcToken",
          "type": "address"
        },
        {
          "name": "srcQty",
          "type": "uint256"
        },
        {
          "name": "destToken",
          "type": "address"
        },
        {
          "name": "destAddress",
          "type": "address"
        },
        {
          "name": "maxDestAmount",
          "type": "uint256"
        }
      ],
      "name": "execSwap",
      "outputs": [],
      "payable": false,
      "stateMutability": "nonpayable",
      "type": "function",
      "signature": "0x933d4fab"
    }
  ],
  "bytecode": "0x6060604052341561000f57600080fd5b60405160208061046a8339810160405280805160008054600160a060020a03909216600160a060020a03199092169190911790555050610416806100546000396000f3006060604052600436106100325763ffffffff60e060020a600035041663933d4fab8114610037578063ec5568891461006b575b600080fd5b341561004257600080fd5b610069600160a060020a03600435811690602435906044358116906064351660843561009a565b005b341561007657600080fd5b61007e6103db565b604051600160a060020a03909116815260200160405180910390f35b600085600160a060020a03166323b872dd33308860006040516020015260405160e060020a63ffffffff8616028152600160a060020a0393841660048201529190921660248201526044810191909152606401602060405180830381600087803b151561010657600080fd5b6102c65a03f1151561011757600080fd5b50505060405180519050151561012c57600080fd5b60008054600160a060020a038089169263095ea7b39290911690806040516020015260405160e060020a63ffffffff8516028152600160a060020a0390921660048301526024820152604401602060405180830381600087803b151561019157600080fd5b6102c65a03f115156101a257600080fd5b5050506040518051905015156101b757600080fd5b60008054600160a060020a038089169263095ea7b3929091169088906040516020015260405160e060020a63ffffffff8516028152600160a060020a0390921660048301526024820152604401602060405180830381600087803b151561021d57600080fd5b6102c65a03f1151561022e57600080fd5b50505060405180519050151561024357600080fd5b60008054600160a060020a03169063809a9e55908890879089906040516040015260405160e060020a63ffffffff8616028152600160a060020a03938416600482015291909216602482015260448101919091526064016040805180830381600087803b15156102b257600080fd5b6102c65a03f115156102c357600080fd5b5050506040518051906020018051505060008054919250600160a060020a039091169063cb3c28c790889088908890889088908890806040516020015260405160e060020a63ffffffff8a16028152600160a060020a039788166004820152602481019690965293861660448601529185166064850152608484015260a483015290911660c482015260e401602060405180830381600087803b151561036857600080fd5b6102c65a03f1151561037957600080fd5b50505060405180515050600160a060020a0333167f11f4b7a3b533a03660188385e81861fb044615f4dafe593932037df7b7836ecd8786604051600160a060020a039283168152911660208201526040908101905180910390a2505050505050565b600054600160a060020a0316815600a165627a7a723058207169072c255ef96242b5658e5ec43f28a1cadb61d1304c0fe7d475d925113c910029",
  "source": "pragma solidity ^0.4.18;\r\n\r\nimport \"../KyberNetworkProxy.sol\";\r\n\r\n\r\ncontract Trade {\r\n    event Swap(address indexed sender, ERC20 srcToken, ERC20 destToken);\r\n\r\n    KyberNetworkProxy public proxy;\r\n    ERC20 constant internal ETH_TOKEN_ADDRESS = ERC20(0x00eeeeeeeeeeeeeeeeeeeeeeeeeeeeeeeeeeeeeeee);\r\n\r\n    //@dev Contract contstructor\r\n    //@param _proxy KyberNetworkProxy contract address\r\n    function Trade(KyberNetworkProxy _proxy) public {\r\n        proxy = _proxy;\r\n    }\r\n\r\n    //@dev Swap the user's ERC20 token to another ERC20 token\r\n    //@param srcToken source token contract address\r\n    //@param srcQty amount of source tokens\r\n    //@param destToken destination token contract address\r\n    //@param destAddress address to send swapped tokens to\r\n    //@param maxDestAmount address to send swapped tokens to\r\n    function execSwap(\r\n        ERC20 srcToken,\r\n        uint srcQty,\r\n        ERC20 destToken,\r\n        address destAddress,\r\n        uint maxDestAmount\r\n    ) public {\r\n        uint minConversionRate;\r\n\r\n        // Check that the token transferFrom has succeeded\r\n        require(srcToken.transferFrom(msg.sender, address(this), srcQty));\r\n\r\n        // Mitigate ERC20 Approve front-running attack, by initially setting\r\n        // allowance to 0\r\n        require(srcToken.approve(address(proxy), 0));\r\n\r\n        // Set the spender's token allowance to tokenQty\r\n        require(srcToken.approve(address(proxy), srcQty));\r\n\r\n        // Get the minimum conversion rate\r\n        (minConversionRate,) = proxy.getExpectedRate(srcToken, destToken, srcQty);\r\n\r\n        // Swap the ERC20 token and send to destAddress\r\n        proxy.trade(\r\n            srcToken,\r\n            srcQty,\r\n            destToken,\r\n            destAddress,\r\n            maxDestAmount,\r\n            minConversionRate,\r\n            0\r\n        );\r\n\r\n        // Log the event\r\n        Swap(msg.sender, srcToken, destToken);\r\n    }\r\n}\r\n",
  "sourcePath": "C:/Users/phangjunyu/desktop/ethsg-lenXe/kyber/contracts/examples/Trade.sol",
  "compiler": {
    "name": "solc",
    "version": "0.4.18+commit.9cf6e910.Emscripten.clang"
  },
  "schemaVersion": "3.0.0-beta.1",
  "updatedAt": "2018-12-09T02:57:55.477Z"
}