{
  "contractName": "UtilMath",
  "abi": [
    {
      "constant": true,
      "inputs": [],
      "name": "BIG_NUMBER",
      "outputs": [
        {
          "name": "",
          "type": "uint256"
        }
      ],
      "payable": false,
      "stateMutability": "view",
      "type": "function"
    },
    {
      "constant": true,
      "inputs": [
        {
          "name": "x",
          "type": "uint256"
        },
        {
          "name": "y",
          "type": "uint256"
        }
      ],
      "name": "checkMultOverflow",
      "outputs": [
        {
          "name": "",
          "type": "bool"
        }
      ],
      "payable": false,
      "stateMutability": "pure",
      "type": "function"
    },
    {
      "constant": true,
      "inputs": [
        {
          "name": "p",
          "type": "uint256"
        },
        {
          "name": "q",
          "type": "uint256"
        },
        {
          "name": "precision",
          "type": "uint256"
        }
      ],
      "name": "compactFraction",
      "outputs": [
        {
          "name": "",
          "type": "uint256"
        },
        {
          "name": "",
          "type": "uint256"
        }
      ],
      "payable": false,
      "stateMutability": "pure",
      "type": "function"
    },
    {
      "constant": true,
      "inputs": [
        {
          "name": "p",
          "type": "uint256"
        },
        {
          "name": "q",
          "type": "uint256"
        },
        {
          "name": "precision",
          "type": "uint256"
        }
      ],
      "name": "exp",
      "outputs": [
        {
          "name": "",
          "type": "uint256"
        }
      ],
      "payable": false,
      "stateMutability": "pure",
      "type": "function"
    },
    {
      "constant": true,
      "inputs": [
        {
          "name": "p",
          "type": "uint256"
        },
        {
          "name": "q",
          "type": "uint256"
        }
      ],
      "name": "countLeadingZeros",
      "outputs": [
        {
          "name": "",
          "type": "uint256"
        }
      ],
      "payable": false,
      "stateMutability": "pure",
      "type": "function"
    },
    {
      "constant": true,
      "inputs": [
        {
          "name": "x",
          "type": "uint256"
        },
        {
          "name": "numPrecisionBits",
          "type": "uint256"
        }
      ],
      "name": "log2ForSmallNumber",
      "outputs": [
        {
          "name": "",
          "type": "uint256"
        }
      ],
      "payable": false,
      "stateMutability": "pure",
      "type": "function"
    },
    {
      "constant": true,
      "inputs": [
        {
          "name": "p",
          "type": "uint256"
        },
        {
          "name": "q",
          "type": "uint256"
        },
        {
          "name": "numPrecisionBits",
          "type": "uint256"
        }
      ],
      "name": "logBase2",
      "outputs": [
        {
          "name": "",
          "type": "uint256"
        }
      ],
      "payable": false,
      "stateMutability": "pure",
      "type": "function"
    },
    {
      "constant": true,
      "inputs": [
        {
          "name": "p",
          "type": "uint256"
        },
        {
          "name": "q",
          "type": "uint256"
        },
        {
          "name": "numPrecisionBits",
          "type": "uint256"
        }
      ],
      "name": "ln",
      "outputs": [
        {
          "name": "",
          "type": "uint256"
        }
      ],
      "payable": false,
      "stateMutability": "pure",
      "type": "function"
    }
  ],
  "bytecode": "0x6060604052341561000f57600080fd5b6105268061001e6000396000f30060606040526004361061008d5763ffffffff7c0100000000000000000000000000000000000000000000000000000000600035041663275acbe381146100925780632f4fda30146100c05780635111249e146100d35780638369ff08146101005780638401824f14610119578063869d7d931461014d578063a0dbde9d14610166578063b5debaf514610182575b600080fd5b341561009d57600080fd5b6100ae60043560243560443561019e565b60405190815260200160405180910390f35b34156100cb57600080fd5b6100ae6101f1565b34156100de57600080fd5b6100ec6004356024356101f9565b604051901515815260200160405180910390f35b341561010b57600080fd5b6100ae600435602435610224565b341561012457600080fd5b6101356004356024356044356102a2565b60405191825260208201526040908101905180910390f35b341561015857600080fd5b6100ae6004356024356102e7565b341561017157600080fd5b6100ae600435602435604435610370565b341561018d57600080fd5b6100ae600435602435604435610423565b6000690177c17eb2ae5edd211c69021e19e0c9bab2400000826101c2878787610370565b90506101ce83826101f9565b156101d857600080fd5b818184028115156101e557fe5b04979650505050505050565b60c860020a81565b600081151561020a5750600061021e565b828283850281151561021857fe5b04141590505b92915050565b600080600283810a90810281838188108015906102415750828811155b151561024c57600080fd5b607d871061025957600080fd5b50855b6000811115610296578388890281151561027257fe5b04975060028204915082881061028d57600288049750938101935b6000190161025c565b50929695505050505050565b6000808283028410156102b95750839050826102df565b6102da83868115156102c757fe5b0484868115156102d357fe5b04856102a2565b915091505b935093915050565b60007f800000000000000000000000000000000000000000000000000000000000000060ff5b6000811261036257838283860281151561032357fe5b041461033457600282049150610359565b60008285028681151561034357fe5b04111561035257809250610368565b6002820491505b6000190161030d565b60001992505b505092915050565b600080600283900a81808688111561038f5761038c88886102e7565b93505b61039988846101f9565b156103a357600080fd5b6103ad84846101f9565b156103b757600080fd5b6103c5600285900a886101f9565b156103cf57600080fd5b600284900a87028884028115156103e257fe5b0491506103ef8287610224565b905060c860020a848402111561040457600080fd5b60c860020a81111561041557600080fd5b919092020195945050505050565b6000806001808083805b61043784896101f9565b15610444578196506104ed565b61044e83866101f9565b1561045b578196506104ed565b84830288850281151561046a57fe5b04820191508082141561047f578196506104ed565b5060019094019380610491848b6101f9565b1561049e578196506104ed565b6104a8838a6101f9565b156104b5578196506104ed565b6104bf85876101f9565b156104cc578196506104ed565b9385029392890292918802916104e384848a6102a2565b909450925061042d565b50505050505093925050505600a165627a7a7230582083df1a2551f10d713e3a2cc7eeeb73bc45aaa234af81e76cc058797ae79b57c60029",
  "source": "pragma solidity 0.4.18;\r\n\r\n\r\ncontract UtilMath {\r\n    uint public constant BIG_NUMBER = (uint(1)<<uint(200));\r\n\r\n    function checkMultOverflow(uint x, uint y) public pure returns(bool) {\r\n        if (y == 0) return false;\r\n        return (((x*y) / y) != x);\r\n    }\r\n\r\n    function compactFraction(uint p, uint q, uint precision) public pure returns (uint, uint) {\r\n        if (q < precision * precision) return (p, q);\r\n        return compactFraction(p/precision, q/precision, precision);\r\n    }\r\n\r\n    /* solhint-disable code-complexity */\r\n    function exp(uint p, uint q, uint precision) public pure returns (uint) {\r\n        uint n = 0;\r\n        uint nFact = 1;\r\n        uint currentP = 1;\r\n        uint currentQ = 1;\r\n\r\n        uint sum = 0;\r\n        uint prevSum = 0;\r\n\r\n        while (true) {\r\n            if (checkMultOverflow(currentP, precision)) return sum;\r\n            if (checkMultOverflow(currentQ, nFact)) return sum;\r\n\r\n            sum += (currentP * precision) / (currentQ * nFact);\r\n\r\n            if (sum == prevSum) return sum;\r\n            prevSum = sum;\r\n\r\n            n++;\r\n\r\n            if (checkMultOverflow(currentP, p)) return sum;\r\n            if (checkMultOverflow(currentQ, q)) return sum;\r\n            if (checkMultOverflow(nFact, n)) return sum;\r\n\r\n            currentP *= p;\r\n            currentQ *= q;\r\n            nFact *= n;\r\n\r\n            (currentP, currentQ) = compactFraction(currentP, currentQ, precision);\r\n        }\r\n    }\r\n    /* solhint-enable code-complexity */\r\n\r\n    function countLeadingZeros(uint p, uint q) public pure returns (uint) {\r\n        uint denomator = (uint(1)<<255);\r\n        for (int i = 255; i >= 0; i--) {\r\n            if ((q*denomator)/denomator != q) {\r\n                // overflow\r\n                denomator = denomator/2;\r\n                continue;\r\n            }\r\n            if (p/(q*denomator) > 0) return uint(i);\r\n            denomator = denomator/2;\r\n        }\r\n\r\n        return uint(-1);\r\n    }\r\n\r\n    // log2 for a number that it in [1,2)\r\n    function log2ForSmallNumber(uint x, uint numPrecisionBits) public pure returns (uint) {\r\n        uint res = 0;\r\n        uint one = (uint(1)<<numPrecisionBits);\r\n        uint two = 2 * one;\r\n        uint addition = one;\r\n\r\n        require((x >= one) && (x <= two));\r\n        require(numPrecisionBits < 125);\r\n\r\n        for (uint i = numPrecisionBits; i > 0; i--) {\r\n            x = (x*x) / one;\r\n            addition = addition/2;\r\n            if (x >= two) {\r\n                x = x/2;\r\n                res += addition;\r\n            }\r\n        }\r\n\r\n        return res;\r\n    }\r\n\r\n    function logBase2 (uint p, uint q, uint numPrecisionBits) public pure returns (uint) {\r\n        uint n = 0;\r\n        uint precision = (uint(1)<<numPrecisionBits);\r\n\r\n        if (p > q) {\r\n            n = countLeadingZeros(p, q);\r\n        }\r\n\r\n        require(!checkMultOverflow(p, precision));\r\n        require(!checkMultOverflow(n, precision));\r\n        require(!checkMultOverflow(uint(1)<<n, q));\r\n\r\n        uint y = p * precision / (q * (uint(1)<<n));\r\n        uint log2Small = log2ForSmallNumber(y, numPrecisionBits);\r\n\r\n        require(n*precision <= BIG_NUMBER);\r\n        require(log2Small <= BIG_NUMBER);\r\n\r\n        return n * precision + log2Small;\r\n    }\r\n\r\n    function ln(uint p, uint q, uint numPrecisionBits) public pure returns (uint) {\r\n        uint ln2Numerator   = 6931471805599453094172;\r\n        uint ln2Denomerator = 10000000000000000000000;\r\n\r\n        uint log2x = logBase2(p, q, numPrecisionBits);\r\n\r\n        require(!checkMultOverflow(ln2Numerator, log2x));\r\n\r\n        return ln2Numerator * log2x / ln2Denomerator;\r\n    }\r\n}\r\n\r\n\r\ncontract LiquidityFormula is UtilMath {\r\n    function pE(uint r, uint pMIn, uint e, uint precision) public pure returns (uint) {\r\n        uint expRE = exp(r*e, precision*precision, precision);\r\n        require(!checkMultOverflow(expRE, pMIn));\r\n        return pMIn*expRE / precision;\r\n    }\r\n\r\n    function deltaTFunc(uint r, uint pMIn, uint e, uint deltaE, uint precision) public pure returns (uint) {\r\n        uint pe = pE(r, pMIn, e, precision);\r\n        uint rpe = r * pe;\r\n        uint erdeltaE = exp(r*deltaE, precision*precision, precision);\r\n\r\n        require(erdeltaE >= precision);\r\n        require(!checkMultOverflow(erdeltaE - precision, precision));\r\n        require(!checkMultOverflow((erdeltaE - precision)*precision, precision));\r\n        require(!checkMultOverflow((erdeltaE - precision)*precision*precision, precision));\r\n        require(!checkMultOverflow(rpe, erdeltaE));\r\n        require(!checkMultOverflow(r, pe));\r\n\r\n        return (erdeltaE - precision) * precision * precision * precision / (rpe*erdeltaE);\r\n    }\r\n\r\n    function deltaEFunc(uint r, uint pMIn, uint e, uint deltaT, uint precision, uint numPrecisionBits)\r\n        public pure\r\n        returns (uint)\r\n    {\r\n        uint pe = pE(r, pMIn, e, precision);\r\n        uint rpe = r * pe;\r\n        uint lnPart = ln(precision*precision + rpe*deltaT/precision, precision*precision, numPrecisionBits);\r\n\r\n        require(!checkMultOverflow(r, pe));\r\n        require(!checkMultOverflow(precision, precision));\r\n        require(!checkMultOverflow(rpe, deltaT));\r\n        require(!checkMultOverflow(lnPart, precision));\r\n\r\n        return lnPart * precision / r;\r\n    }\r\n}\r\n",
  "sourcePath": "C:\\Users\\phangjunyu\\desktop\\ethsg-lenXe\\kyber\\contracts\\LiquidityFormula.sol",
  "compiler": {
    "name": "solc",
    "version": "0.4.18+commit.9cf6e910.Emscripten.clang"
  },
  "schemaVersion": "3.0.0-beta.1",
  "updatedAt": "2018-12-09T02:56:40.175Z"
}