{
  "contractName": "Utils2",
  "abi": [
    {
      "constant": true,
      "inputs": [
        {
          "name": "token",
          "type": "address"
        },
        {
          "name": "user",
          "type": "address"
        }
      ],
      "name": "getBalance",
      "outputs": [
        {
          "name": "",
          "type": "uint256"
        }
      ],
      "payable": false,
      "stateMutability": "view",
      "type": "function"
    }
  ],
  "bytecode": "0x6060604052341561000f57600080fd5b6101b48061001e6000396000f3006060604052600436106100405763ffffffff7c0100000000000000000000000000000000000000000000000000000000600035041663d4fac45d8114610045575b600080fd5b341561005057600080fd5b61007773ffffffffffffffffffffffffffffffffffffffff60043581169060243516610089565b60405190815260200160405180910390f35b600073ffffffffffffffffffffffffffffffffffffffff831673eeeeeeeeeeeeeeeeeeeeeeeeeeeeeeeeeeeeeeee14156100db575073ffffffffffffffffffffffffffffffffffffffff811631610182565b8273ffffffffffffffffffffffffffffffffffffffff166370a08231836000604051602001526040517c010000000000000000000000000000000000000000000000000000000063ffffffff841602815273ffffffffffffffffffffffffffffffffffffffff9091166004820152602401602060405180830381600087803b151561016557600080fd5b6102c65a03f1151561017657600080fd5b50505060405180519150505b929150505600a165627a7a723058201c098df67f747e952109a144a94aadb2767803ca4162014a025ae4cd150d2f170029",
  "source": "pragma solidity 0.4.18;\r\n\r\n\r\nimport \"./Utils.sol\";\r\n\r\n\r\ncontract Utils2 is Utils {\r\n\r\n    /// @dev get the balance of a user.\r\n    /// @param token The token type\r\n    /// @return The balance\r\n    function getBalance(ERC20 token, address user) public view returns(uint) {\r\n        if (token == ETH_TOKEN_ADDRESS)\r\n            return user.balance;\r\n        else\r\n            return token.balanceOf(user);\r\n    }\r\n\r\n    function getDecimalsSafe(ERC20 token) internal returns(uint) {\r\n\r\n        if (decimals[token] == 0) {\r\n            setDecimals(token);\r\n        }\r\n\r\n        return decimals[token];\r\n    }\r\n\r\n    function calcDestAmount(ERC20 src, ERC20 dest, uint srcAmount, uint rate) internal view returns(uint) {\r\n        return calcDstQty(srcAmount, getDecimals(src), getDecimals(dest), rate);\r\n    }\r\n\r\n    function calcSrcAmount(ERC20 src, ERC20 dest, uint destAmount, uint rate) internal view returns(uint) {\r\n        return calcSrcQty(destAmount, getDecimals(src), getDecimals(dest), rate);\r\n    }\r\n\r\n    function calcRateFromQty(uint srcAmount, uint destAmount, uint srcDecimals, uint dstDecimals)\r\n        internal pure returns(uint)\r\n    {\r\n        require(srcAmount <= MAX_QTY);\r\n        require(destAmount <= MAX_QTY);\r\n\r\n        if (dstDecimals >= srcDecimals) {\r\n            require((dstDecimals - srcDecimals) <= MAX_DECIMALS);\r\n            return (destAmount * PRECISION / ((10 ** (dstDecimals - srcDecimals)) * srcAmount));\r\n        } else {\r\n            require((srcDecimals - dstDecimals) <= MAX_DECIMALS);\r\n            return (destAmount * PRECISION * (10 ** (srcDecimals - dstDecimals)) / srcAmount);\r\n        }\r\n    }\r\n}\r\n",
  "sourcePath": "C:\\Users\\phangjunyu\\desktop\\ethsg-lenXe\\kyber\\contracts\\Utils2.sol",
  "compiler": {
    "name": "solc",
    "version": "0.4.18+commit.9cf6e910.Emscripten.clang"
  },
  "schemaVersion": "3.0.0-beta.1",
  "updatedAt": "2018-12-09T02:56:40.195Z"
}