{
  "contractName": "VolumeImbalanceRecorder",
  "abi": [
    {
      "constant": false,
      "inputs": [
        {
          "name": "alerter",
          "type": "address"
        }
      ],
      "name": "removeAlerter",
      "outputs": [],
      "payable": false,
      "stateMutability": "nonpayable",
      "type": "function"
    },
    {
      "constant": true,
      "inputs": [],
      "name": "pendingAdmin",
      "outputs": [
        {
          "name": "",
          "type": "address"
        }
      ],
      "payable": false,
      "stateMutability": "view",
      "type": "function"
    },
    {
      "constant": true,
      "inputs": [],
      "name": "getOperators",
      "outputs": [
        {
          "name": "",
          "type": "address[]"
        }
      ],
      "payable": false,
      "stateMutability": "view",
      "type": "function"
    },
    {
      "constant": false,
      "inputs": [
        {
          "name": "token",
          "type": "address"
        },
        {
          "name": "amount",
          "type": "uint256"
        },
        {
          "name": "sendTo",
          "type": "address"
        }
      ],
      "name": "withdrawToken",
      "outputs": [],
      "payable": false,
      "stateMutability": "nonpayable",
      "type": "function"
    },
    {
      "constant": false,
      "inputs": [
        {
          "name": "newAlerter",
          "type": "address"
        }
      ],
      "name": "addAlerter",
      "outputs": [],
      "payable": false,
      "stateMutability": "nonpayable",
      "type": "function"
    },
    {
      "constant": false,
      "inputs": [
        {
          "name": "newAdmin",
          "type": "address"
        }
      ],
      "name": "transferAdmin",
      "outputs": [],
      "payable": false,
      "stateMutability": "nonpayable",
      "type": "function"
    },
    {
      "constant": false,
      "inputs": [],
      "name": "claimAdmin",
      "outputs": [],
      "payable": false,
      "stateMutability": "nonpayable",
      "type": "function"
    },
    {
      "constant": false,
      "inputs": [
        {
          "name": "newAdmin",
          "type": "address"
        }
      ],
      "name": "transferAdminQuickly",
      "outputs": [],
      "payable": false,
      "stateMutability": "nonpayable",
      "type": "function"
    },
    {
      "constant": true,
      "inputs": [],
      "name": "getAlerters",
      "outputs": [
        {
          "name": "",
          "type": "address[]"
        }
      ],
      "payable": false,
      "stateMutability": "view",
      "type": "function"
    },
    {
      "constant": false,
      "inputs": [
        {
          "name": "newOperator",
          "type": "address"
        }
      ],
      "name": "addOperator",
      "outputs": [],
      "payable": false,
      "stateMutability": "nonpayable",
      "type": "function"
    },
    {
      "constant": true,
      "inputs": [
        {
          "name": "",
          "type": "address"
        },
        {
          "name": "",
          "type": "uint256"
        }
      ],
      "name": "tokenImbalanceData",
      "outputs": [
        {
          "name": "",
          "type": "uint256"
        }
      ],
      "payable": false,
      "stateMutability": "view",
      "type": "function"
    },
    {
      "constant": false,
      "inputs": [
        {
          "name": "operator",
          "type": "address"
        }
      ],
      "name": "removeOperator",
      "outputs": [],
      "payable": false,
      "stateMutability": "nonpayable",
      "type": "function"
    },
    {
      "constant": false,
      "inputs": [
        {
          "name": "amount",
          "type": "uint256"
        },
        {
          "name": "sendTo",
          "type": "address"
        }
      ],
      "name": "withdrawEther",
      "outputs": [],
      "payable": false,
      "stateMutability": "nonpayable",
      "type": "function"
    },
    {
      "constant": true,
      "inputs": [],
      "name": "admin",
      "outputs": [
        {
          "name": "",
          "type": "address"
        }
      ],
      "payable": false,
      "stateMutability": "view",
      "type": "function"
    },
    {
      "inputs": [
        {
          "name": "_admin",
          "type": "address"
        }
      ],
      "payable": false,
      "stateMutability": "nonpayable",
      "type": "constructor"
    },
    {
      "anonymous": false,
      "inputs": [
        {
          "indexed": false,
          "name": "token",
          "type": "address"
        },
        {
          "indexed": false,
          "name": "amount",
          "type": "uint256"
        },
        {
          "indexed": false,
          "name": "sendTo",
          "type": "address"
        }
      ],
      "name": "TokenWithdraw",
      "type": "event"
    },
    {
      "anonymous": false,
      "inputs": [
        {
          "indexed": false,
          "name": "amount",
          "type": "uint256"
        },
        {
          "indexed": false,
          "name": "sendTo",
          "type": "address"
        }
      ],
      "name": "EtherWithdraw",
      "type": "event"
    },
    {
      "anonymous": false,
      "inputs": [
        {
          "indexed": false,
          "name": "pendingAdmin",
          "type": "address"
        }
      ],
      "name": "TransferAdminPending",
      "type": "event"
    },
    {
      "anonymous": false,
      "inputs": [
        {
          "indexed": false,
          "name": "newAdmin",
          "type": "address"
        },
        {
          "indexed": false,
          "name": "previousAdmin",
          "type": "address"
        }
      ],
      "name": "AdminClaimed",
      "type": "event"
    },
    {
      "anonymous": false,
      "inputs": [
        {
          "indexed": false,
          "name": "newAlerter",
          "type": "address"
        },
        {
          "indexed": false,
          "name": "isAdd",
          "type": "bool"
        }
      ],
      "name": "AlerterAdded",
      "type": "event"
    },
    {
      "anonymous": false,
      "inputs": [
        {
          "indexed": false,
          "name": "newOperator",
          "type": "address"
        },
        {
          "indexed": false,
          "name": "isAdd",
          "type": "bool"
        }
      ],
      "name": "OperatorAdded",
      "type": "event"
    },
    {
      "constant": false,
      "inputs": [
        {
          "name": "token",
          "type": "address"
        },
        {
          "name": "minimalRecordResolution",
          "type": "uint256"
        },
        {
          "name": "maxPerBlockImbalance",
          "type": "uint256"
        },
        {
          "name": "maxTotalImbalance",
          "type": "uint256"
        }
      ],
      "name": "setTokenControlInfo",
      "outputs": [],
      "payable": false,
      "stateMutability": "nonpayable",
      "type": "function"
    },
    {
      "constant": true,
      "inputs": [
        {
          "name": "token",
          "type": "address"
        }
      ],
      "name": "getTokenControlInfo",
      "outputs": [
        {
          "name": "",
          "type": "uint256"
        },
        {
          "name": "",
          "type": "uint256"
        },
        {
          "name": "",
          "type": "uint256"
        }
      ],
      "payable": false,
      "stateMutability": "view",
      "type": "function"
    }
  ],
  "bytecode": "0x6060604052341561000f57600080fd5b604051602080610e6a8339810160405280805160008054600160a060020a03191633600160a060020a039081169190911790915590925082161515905061005557600080fd5b60008054600160a060020a03909216600160a060020a0319909216919091179055610de5806100856000396000f3006060604052600436106100e55763ffffffff7c010000000000000000000000000000000000000000000000000000000060003504166301a12fd381146100ea578063267822471461010b57806327a099d81461013a5780633ccdbb28146101a0578063408ee7fe146101c957806375829def146101e857806377f50f97146102075780637acc86781461021a5780637c423f54146102395780639870d7fe1461024c578063a80c609e1461026b578063ac8a584a1461029f578063bfee3569146102be578063ce56c454146102e6578063e7d4fd9114610308578063f851a4401461034b575b600080fd5b34156100f557600080fd5b610109600160a060020a036004351661035e565b005b341561011657600080fd5b61011e6104ce565b604051600160a060020a03909116815260200160405180910390f35b341561014557600080fd5b61014d6104dd565b60405160208082528190810183818151815260200191508051906020019060200280838360005b8381101561018c578082015183820152602001610174565b505050509050019250505060405180910390f35b34156101ab57600080fd5b610109600160a060020a036004358116906024359060443516610546565b34156101d457600080fd5b610109600160a060020a0360043516610656565b34156101f357600080fd5b610109600160a060020a0360043516610752565b341561021257600080fd5b6101096107ed565b341561022557600080fd5b610109600160a060020a0360043516610887565b341561024457600080fd5b61014d610969565b341561025757600080fd5b610109600160a060020a03600435166109cf565b341561027657600080fd5b61028d600160a060020a0360043516602435610a9f565b60405190815260200160405180910390f35b34156102aa57600080fd5b610109600160a060020a0360043516610abc565b34156102c957600080fd5b610109600160a060020a0360043516602435604435606435610c28565b34156102f157600080fd5b610109600435600160a060020a0360243516610c96565b341561031357600080fd5b610327600160a060020a0360043516610d29565b60405180848152602001838152602001828152602001935050505060405180910390f35b341561035657600080fd5b61011e610d51565b6000805433600160a060020a0390811691161461037a57600080fd5b600160a060020a03821660009081526003602052604090205460ff1615156103a157600080fd5b50600160a060020a0381166000908152600360205260408120805460ff191690555b6005548110156104ca5781600160a060020a03166005828154811015156103e657fe5b600091825260209091200154600160a060020a031614156104c25760058054600019810190811061041357fe5b60009182526020909120015460058054600160a060020a03909216918390811061043957fe5b60009182526020909120018054600160a060020a031916600160a060020a03929092169190911790556005805490610475906000198301610d60565b507f5611bf3e417d124f97bf2c788843ea8bb502b66079fbee02158ef30b172cb762826000604051600160a060020a039092168252151560208201526040908101905180910390a16104ca565b6001016103c3565b5050565b600154600160a060020a031681565b6104e5610d89565b600480548060200260200160405190810160405280929190818152602001828054801561053b57602002820191906000526020600020905b8154600160a060020a0316815260019091019060200180831161051d575b505050505090505b90565b60005433600160a060020a0390811691161461056157600080fd5b82600160a060020a031663a9059cbb82846000604051602001526040517c010000000000000000000000000000000000000000000000000000000063ffffffff8516028152600160a060020a0390921660048301526024820152604401602060405180830381600087803b15156105d757600080fd5b6102c65a03f115156105e857600080fd5b5050506040518051905015156105fd57600080fd5b7f72cb8a894ddb372ceec3d2a7648d86f17d5a15caae0e986c53109b8a9a9385e6838383604051600160a060020a03938416815260208101929092529091166040808301919091526060909101905180910390a1505050565b60005433600160a060020a0390811691161461067157600080fd5b600160a060020a03811660009081526003602052604090205460ff161561069757600080fd5b600554603290106106a757600080fd5b7f5611bf3e417d124f97bf2c788843ea8bb502b66079fbee02158ef30b172cb762816001604051600160a060020a039092168252151560208201526040908101905180910390a1600160a060020a0381166000908152600360205260409020805460ff1916600190811790915560058054909181016107268382610d60565b5060009182526020909120018054600160a060020a031916600160a060020a0392909216919091179055565b60005433600160a060020a0390811691161461076d57600080fd5b600160a060020a038116151561078257600080fd5b6001547f3b81caf78fa51ecbc8acb482fd7012a277b428d9b80f9d156e8a54107496cc4090600160a060020a0316604051600160a060020a03909116815260200160405180910390a160018054600160a060020a031916600160a060020a0392909216919091179055565b60015433600160a060020a0390811691161461080857600080fd5b6001546000547f65da1cfc2c2e81576ad96afb24a581f8e109b7a403b35cbd3243a1c99efdb9ed91600160a060020a039081169116604051600160a060020a039283168152911660208201526040908101905180910390a16001805460008054600160a060020a0319908116600160a060020a03841617909155169055565b60005433600160a060020a039081169116146108a257600080fd5b600160a060020a03811615156108b757600080fd5b7f3b81caf78fa51ecbc8acb482fd7012a277b428d9b80f9d156e8a54107496cc4081604051600160a060020a03909116815260200160405180910390a16000547f65da1cfc2c2e81576ad96afb24a581f8e109b7a403b35cbd3243a1c99efdb9ed908290600160a060020a0316604051600160a060020a039283168152911660208201526040908101905180910390a160008054600160a060020a031916600160a060020a0392909216919091179055565b610971610d89565b600580548060200260200160405190810160405280929190818152602001828054801561053b57602002820191906000526020600020908154600160a060020a0316815260019091019060200180831161051d575050505050905090565b60005433600160a060020a039081169116146109ea57600080fd5b600160a060020a03811660009081526002602052604090205460ff1615610a1057600080fd5b60045460329010610a2057600080fd5b7f091a7a4b85135fdd7e8dbc18b12fabe5cc191ea867aa3c2e1a24a102af61d58b816001604051600160a060020a039092168252151560208201526040908101905180910390a1600160a060020a0381166000908152600260205260409020805460ff1916600190811790915560048054909181016107268382610d60565b600760209081526000928352604080842090915290825290205481565b6000805433600160a060020a03908116911614610ad857600080fd5b600160a060020a03821660009081526002602052604090205460ff161515610aff57600080fd5b50600160a060020a0381166000908152600260205260408120805460ff191690555b6004548110156104ca5781600160a060020a0316600482815481101515610b4457fe5b600091825260209091200154600160a060020a03161415610c2057600480546000198101908110610b7157fe5b60009182526020909120015460048054600160a060020a039092169183908110610b9757fe5b60009182526020909120018054600160a060020a031916600160a060020a0392909216919091179055600480546000190190610bd39082610d60565b507f091a7a4b85135fdd7e8dbc18b12fabe5cc191ea867aa3c2e1a24a102af61d58b826000604051600160a060020a039092168252151560208201526040908101905180910390a16104ca565b600101610b21565b60005433600160a060020a03908116911614610c4357600080fd5b606060405190810160409081528482526020808301859052818301849052600160a060020a0387166000908152600690915220815181556020820151816001015560408201516002909101555050505050565b60005433600160a060020a03908116911614610cb157600080fd5b600160a060020a03811682156108fc0283604051600060405180830381858888f193505050501515610ce257600080fd5b7fec47e7ed86c86774d1a72c19f35c639911393fe7c1a34031fdbd260890da90de8282604051918252600160a060020a031660208201526040908101905180910390a15050565b600160a060020a03166000908152600660205260409020805460018201546002909201549092565b600054600160a060020a031681565b815481835581811511610d8457600083815260209020610d84918101908301610d9b565b505050565b60206040519081016040526000815290565b61054391905b80821115610db55760008155600101610da1565b50905600a165627a7a72305820e2b6c4f33e649ac8fe8a9f4aa84a598fa0557d1bd8cb17601b579c6c9a48cde50029",
  "source": "pragma solidity 0.4.18;\r\n\r\n\r\nimport \"./ERC20Interface.sol\";\r\nimport \"./Withdrawable.sol\";\r\n\r\n\r\ncontract VolumeImbalanceRecorder is Withdrawable {\r\n\r\n    uint constant internal SLIDING_WINDOW_SIZE = 5;\r\n    uint constant internal POW_2_64 = 2 ** 64;\r\n\r\n    struct TokenControlInfo {\r\n        uint minimalRecordResolution; // can be roughly 1 cent\r\n        uint maxPerBlockImbalance; // in twei resolution\r\n        uint maxTotalImbalance; // max total imbalance (between rate updates)\r\n                            // before halting trade\r\n    }\r\n\r\n    mapping(address => TokenControlInfo) internal tokenControlInfo;\r\n\r\n    struct TokenImbalanceData {\r\n        int  lastBlockBuyUnitsImbalance;\r\n        uint lastBlock;\r\n\r\n        int  totalBuyUnitsImbalance;\r\n        uint lastRateUpdateBlock;\r\n    }\r\n\r\n    mapping(address => mapping(uint=>uint)) public tokenImbalanceData;\r\n\r\n    function VolumeImbalanceRecorder(address _admin) public {\r\n        require(_admin != address(0));\r\n        admin = _admin;\r\n    }\r\n\r\n    function setTokenControlInfo(\r\n        ERC20 token,\r\n        uint minimalRecordResolution,\r\n        uint maxPerBlockImbalance,\r\n        uint maxTotalImbalance\r\n    )\r\n        public\r\n        onlyAdmin\r\n    {\r\n        tokenControlInfo[token] =\r\n            TokenControlInfo(\r\n                minimalRecordResolution,\r\n                maxPerBlockImbalance,\r\n                maxTotalImbalance\r\n            );\r\n    }\r\n\r\n    function getTokenControlInfo(ERC20 token) public view returns(uint, uint, uint) {\r\n        return (tokenControlInfo[token].minimalRecordResolution,\r\n                tokenControlInfo[token].maxPerBlockImbalance,\r\n                tokenControlInfo[token].maxTotalImbalance);\r\n    }\r\n\r\n    function addImbalance(\r\n        ERC20 token,\r\n        int buyAmount,\r\n        uint rateUpdateBlock,\r\n        uint currentBlock\r\n    )\r\n        internal\r\n    {\r\n        uint currentBlockIndex = currentBlock % SLIDING_WINDOW_SIZE;\r\n        int recordedBuyAmount = int(buyAmount / int(tokenControlInfo[token].minimalRecordResolution));\r\n\r\n        int prevImbalance = 0;\r\n\r\n        TokenImbalanceData memory currentBlockData =\r\n            decodeTokenImbalanceData(tokenImbalanceData[token][currentBlockIndex]);\r\n\r\n        // first scenario - this is not the first tx in the current block\r\n        if (currentBlockData.lastBlock == currentBlock) {\r\n            if (uint(currentBlockData.lastRateUpdateBlock) == rateUpdateBlock) {\r\n                // just increase imbalance\r\n                currentBlockData.lastBlockBuyUnitsImbalance += recordedBuyAmount;\r\n                currentBlockData.totalBuyUnitsImbalance += recordedBuyAmount;\r\n            } else {\r\n                // imbalance was changed in the middle of the block\r\n                prevImbalance = getImbalanceInRange(token, rateUpdateBlock, currentBlock);\r\n                currentBlockData.totalBuyUnitsImbalance = int(prevImbalance) + recordedBuyAmount;\r\n                currentBlockData.lastBlockBuyUnitsImbalance += recordedBuyAmount;\r\n                currentBlockData.lastRateUpdateBlock = uint(rateUpdateBlock);\r\n            }\r\n        } else {\r\n            // first tx in the current block\r\n            int currentBlockImbalance;\r\n            (prevImbalance, currentBlockImbalance) = getImbalanceSinceRateUpdate(token, rateUpdateBlock, currentBlock);\r\n\r\n            currentBlockData.lastBlockBuyUnitsImbalance = recordedBuyAmount;\r\n            currentBlockData.lastBlock = uint(currentBlock);\r\n            currentBlockData.lastRateUpdateBlock = uint(rateUpdateBlock);\r\n            currentBlockData.totalBuyUnitsImbalance = int(prevImbalance) + recordedBuyAmount;\r\n        }\r\n\r\n        tokenImbalanceData[token][currentBlockIndex] = encodeTokenImbalanceData(currentBlockData);\r\n    }\r\n\r\n    function setGarbageToVolumeRecorder(ERC20 token) internal {\r\n        for (uint i = 0; i < SLIDING_WINDOW_SIZE; i++) {\r\n            tokenImbalanceData[token][i] = 0x1;\r\n        }\r\n    }\r\n\r\n    function getImbalanceInRange(ERC20 token, uint startBlock, uint endBlock) internal view returns(int buyImbalance) {\r\n        // check the imbalance in the sliding window\r\n        require(startBlock <= endBlock);\r\n\r\n        buyImbalance = 0;\r\n\r\n        for (uint windowInd = 0; windowInd < SLIDING_WINDOW_SIZE; windowInd++) {\r\n            TokenImbalanceData memory perBlockData = decodeTokenImbalanceData(tokenImbalanceData[token][windowInd]);\r\n\r\n            if (perBlockData.lastBlock <= endBlock && perBlockData.lastBlock >= startBlock) {\r\n                buyImbalance += int(perBlockData.lastBlockBuyUnitsImbalance);\r\n            }\r\n        }\r\n    }\r\n\r\n    function getImbalanceSinceRateUpdate(ERC20 token, uint rateUpdateBlock, uint currentBlock)\r\n        internal view\r\n        returns(int buyImbalance, int currentBlockImbalance)\r\n    {\r\n        buyImbalance = 0;\r\n        currentBlockImbalance = 0;\r\n        uint latestBlock = 0;\r\n        int imbalanceInRange = 0;\r\n        uint startBlock = rateUpdateBlock;\r\n        uint endBlock = currentBlock;\r\n\r\n        for (uint windowInd = 0; windowInd < SLIDING_WINDOW_SIZE; windowInd++) {\r\n            TokenImbalanceData memory perBlockData = decodeTokenImbalanceData(tokenImbalanceData[token][windowInd]);\r\n\r\n            if (perBlockData.lastBlock <= endBlock && perBlockData.lastBlock >= startBlock) {\r\n                imbalanceInRange += perBlockData.lastBlockBuyUnitsImbalance;\r\n            }\r\n\r\n            if (perBlockData.lastRateUpdateBlock != rateUpdateBlock) continue;\r\n            if (perBlockData.lastBlock < latestBlock) continue;\r\n\r\n            latestBlock = perBlockData.lastBlock;\r\n            buyImbalance = perBlockData.totalBuyUnitsImbalance;\r\n            if (uint(perBlockData.lastBlock) == currentBlock) {\r\n                currentBlockImbalance = perBlockData.lastBlockBuyUnitsImbalance;\r\n            }\r\n        }\r\n\r\n        if (buyImbalance == 0) {\r\n            buyImbalance = imbalanceInRange;\r\n        }\r\n    }\r\n\r\n    function getImbalance(ERC20 token, uint rateUpdateBlock, uint currentBlock)\r\n        internal view\r\n        returns(int totalImbalance, int currentBlockImbalance)\r\n    {\r\n\r\n        int resolution = int(tokenControlInfo[token].minimalRecordResolution);\r\n\r\n        (totalImbalance, currentBlockImbalance) =\r\n            getImbalanceSinceRateUpdate(\r\n                token,\r\n                rateUpdateBlock,\r\n                currentBlock);\r\n\r\n        totalImbalance *= resolution;\r\n        currentBlockImbalance *= resolution;\r\n    }\r\n\r\n    function getMaxPerBlockImbalance(ERC20 token) internal view returns(uint) {\r\n        return tokenControlInfo[token].maxPerBlockImbalance;\r\n    }\r\n\r\n    function getMaxTotalImbalance(ERC20 token) internal view returns(uint) {\r\n        return tokenControlInfo[token].maxTotalImbalance;\r\n    }\r\n\r\n    function encodeTokenImbalanceData(TokenImbalanceData data) internal pure returns(uint) {\r\n        // check for overflows\r\n        require(data.lastBlockBuyUnitsImbalance < int(POW_2_64 / 2));\r\n        require(data.lastBlockBuyUnitsImbalance > int(-1 * int(POW_2_64) / 2));\r\n        require(data.lastBlock < POW_2_64);\r\n        require(data.totalBuyUnitsImbalance < int(POW_2_64 / 2));\r\n        require(data.totalBuyUnitsImbalance > int(-1 * int(POW_2_64) / 2));\r\n        require(data.lastRateUpdateBlock < POW_2_64);\r\n\r\n        // do encoding\r\n        uint result = uint(data.lastBlockBuyUnitsImbalance) & (POW_2_64 - 1);\r\n        result |= data.lastBlock * POW_2_64;\r\n        result |= (uint(data.totalBuyUnitsImbalance) & (POW_2_64 - 1)) * POW_2_64 * POW_2_64;\r\n        result |= data.lastRateUpdateBlock * POW_2_64 * POW_2_64 * POW_2_64;\r\n\r\n        return result;\r\n    }\r\n\r\n    function decodeTokenImbalanceData(uint input) internal pure returns(TokenImbalanceData) {\r\n        TokenImbalanceData memory data;\r\n\r\n        data.lastBlockBuyUnitsImbalance = int(int64(input & (POW_2_64 - 1)));\r\n        data.lastBlock = uint(uint64((input / POW_2_64) & (POW_2_64 - 1)));\r\n        data.totalBuyUnitsImbalance = int(int64((input / (POW_2_64 * POW_2_64)) & (POW_2_64 - 1)));\r\n        data.lastRateUpdateBlock = uint(uint64((input / (POW_2_64 * POW_2_64 * POW_2_64))));\r\n\r\n        return data;\r\n    }\r\n}\r\n",
  "sourcePath": "C:\\Users\\phangjunyu\\desktop\\ethsg-lenXe\\kyber\\contracts\\VolumeImbalanceRecorder.sol",
  "compiler": {
    "name": "solc",
    "version": "0.4.18+commit.9cf6e910.Emscripten.clang"
  },
  "schemaVersion": "3.0.0-beta.1",
  "updatedAt": "2018-12-09T02:56:40.195Z"
}