{
  "contractName": "WhiteList",
  "abi": [
    {
      "constant": false,
      "inputs": [
        {
          "name": "alerter",
          "type": "address"
        }
      ],
      "name": "removeAlerter",
      "outputs": [],
      "payable": false,
      "stateMutability": "nonpayable",
      "type": "function",
      "signature": "0x01a12fd3"
    },
    {
      "constant": true,
      "inputs": [],
      "name": "kgtToken",
      "outputs": [
        {
          "name": "",
          "type": "address"
        }
      ],
      "payable": false,
      "stateMutability": "view",
      "type": "function",
      "signature": "0x0bc5f216"
    },
    {
      "constant": true,
      "inputs": [],
      "name": "pendingAdmin",
      "outputs": [
        {
          "name": "",
          "type": "address"
        }
      ],
      "payable": false,
      "stateMutability": "view",
      "type": "function",
      "signature": "0x26782247"
    },
    {
      "constant": true,
      "inputs": [],
      "name": "getOperators",
      "outputs": [
        {
          "name": "",
          "type": "address[]"
        }
      ],
      "payable": false,
      "stateMutability": "view",
      "type": "function",
      "signature": "0x27a099d8"
    },
    {
      "constant": false,
      "inputs": [
        {
          "name": "token",
          "type": "address"
        },
        {
          "name": "amount",
          "type": "uint256"
        },
        {
          "name": "sendTo",
          "type": "address"
        }
      ],
      "name": "withdrawToken",
      "outputs": [],
      "payable": false,
      "stateMutability": "nonpayable",
      "type": "function",
      "signature": "0x3ccdbb28"
    },
    {
      "constant": false,
      "inputs": [
        {
          "name": "newAlerter",
          "type": "address"
        }
      ],
      "name": "addAlerter",
      "outputs": [],
      "payable": false,
      "stateMutability": "nonpayable",
      "type": "function",
      "signature": "0x408ee7fe"
    },
    {
      "constant": true,
      "inputs": [],
      "name": "kgtHolderCategory",
      "outputs": [
        {
          "name": "",
          "type": "uint256"
        }
      ],
      "payable": false,
      "stateMutability": "view",
      "type": "function",
      "signature": "0x70cc5e45"
    },
    {
      "constant": true,
      "inputs": [
        {
          "name": "",
          "type": "address"
        }
      ],
      "name": "userCategory",
      "outputs": [
        {
          "name": "",
          "type": "uint256"
        }
      ],
      "payable": false,
      "stateMutability": "view",
      "type": "function",
      "signature": "0x73172488"
    },
    {
      "constant": false,
      "inputs": [
        {
          "name": "newAdmin",
          "type": "address"
        }
      ],
      "name": "transferAdmin",
      "outputs": [],
      "payable": false,
      "stateMutability": "nonpayable",
      "type": "function",
      "signature": "0x75829def"
    },
    {
      "constant": false,
      "inputs": [],
      "name": "claimAdmin",
      "outputs": [],
      "payable": false,
      "stateMutability": "nonpayable",
      "type": "function",
      "signature": "0x77f50f97"
    },
    {
      "constant": false,
      "inputs": [
        {
          "name": "newAdmin",
          "type": "address"
        }
      ],
      "name": "transferAdminQuickly",
      "outputs": [],
      "payable": false,
      "stateMutability": "nonpayable",
      "type": "function",
      "signature": "0x7acc8678"
    },
    {
      "constant": true,
      "inputs": [],
      "name": "getAlerters",
      "outputs": [
        {
          "name": "",
          "type": "address[]"
        }
      ],
      "payable": false,
      "stateMutability": "view",
      "type": "function",
      "signature": "0x7c423f54"
    },
    {
      "constant": false,
      "inputs": [
        {
          "name": "newOperator",
          "type": "address"
        }
      ],
      "name": "addOperator",
      "outputs": [],
      "payable": false,
      "stateMutability": "nonpayable",
      "type": "function",
      "signature": "0x9870d7fe"
    },
    {
      "constant": false,
      "inputs": [
        {
          "name": "operator",
          "type": "address"
        }
      ],
      "name": "removeOperator",
      "outputs": [],
      "payable": false,
      "stateMutability": "nonpayable",
      "type": "function",
      "signature": "0xac8a584a"
    },
    {
      "constant": true,
      "inputs": [],
      "name": "weiPerSgd",
      "outputs": [
        {
          "name": "",
          "type": "uint256"
        }
      ],
      "payable": false,
      "stateMutability": "view",
      "type": "function",
      "signature": "0xbdd5f8da"
    },
    {
      "constant": false,
      "inputs": [
        {
          "name": "amount",
          "type": "uint256"
        },
        {
          "name": "sendTo",
          "type": "address"
        }
      ],
      "name": "withdrawEther",
      "outputs": [],
      "payable": false,
      "stateMutability": "nonpayable",
      "type": "function",
      "signature": "0xce56c454"
    },
    {
      "constant": true,
      "inputs": [],
      "name": "admin",
      "outputs": [
        {
          "name": "",
          "type": "address"
        }
      ],
      "payable": false,
      "stateMutability": "view",
      "type": "function",
      "signature": "0xf851a440"
    },
    {
      "constant": true,
      "inputs": [
        {
          "name": "",
          "type": "uint256"
        }
      ],
      "name": "categoryCap",
      "outputs": [
        {
          "name": "",
          "type": "uint256"
        }
      ],
      "payable": false,
      "stateMutability": "view",
      "type": "function",
      "signature": "0xf8b367c1"
    },
    {
      "inputs": [
        {
          "name": "_admin",
          "type": "address"
        },
        {
          "name": "_kgtToken",
          "type": "address"
        }
      ],
      "payable": false,
      "stateMutability": "nonpayable",
      "type": "constructor",
      "signature": "constructor"
    },
    {
      "anonymous": false,
      "inputs": [
        {
          "indexed": false,
          "name": "user",
          "type": "address"
        },
        {
          "indexed": false,
          "name": "category",
          "type": "uint256"
        }
      ],
      "name": "UserCategorySet",
      "type": "event",
      "signature": "0x0aeb0f7989a09b8cccf58cea1aefa196ccf738cb14781d6910448dd5649d0e6e"
    },
    {
      "anonymous": false,
      "inputs": [
        {
          "indexed": false,
          "name": "category",
          "type": "uint256"
        },
        {
          "indexed": false,
          "name": "sgdCap",
          "type": "uint256"
        }
      ],
      "name": "CategoryCapSet",
      "type": "event",
      "signature": "0xfe29fc12cc077f523b5141f4461f4379616a4f0198063967ff0d3968842df4d5"
    },
    {
      "anonymous": false,
      "inputs": [
        {
          "indexed": false,
          "name": "rate",
          "type": "uint256"
        }
      ],
      "name": "SgdToWeiRateSet",
      "type": "event",
      "signature": "0x7b1f1f835b071dffe96e01b6d92e82ab769940e14897658192a350bd734b1e60"
    },
    {
      "anonymous": false,
      "inputs": [
        {
          "indexed": false,
          "name": "token",
          "type": "address"
        },
        {
          "indexed": false,
          "name": "amount",
          "type": "uint256"
        },
        {
          "indexed": false,
          "name": "sendTo",
          "type": "address"
        }
      ],
      "name": "TokenWithdraw",
      "type": "event",
      "signature": "0x72cb8a894ddb372ceec3d2a7648d86f17d5a15caae0e986c53109b8a9a9385e6"
    },
    {
      "anonymous": false,
      "inputs": [
        {
          "indexed": false,
          "name": "amount",
          "type": "uint256"
        },
        {
          "indexed": false,
          "name": "sendTo",
          "type": "address"
        }
      ],
      "name": "EtherWithdraw",
      "type": "event",
      "signature": "0xec47e7ed86c86774d1a72c19f35c639911393fe7c1a34031fdbd260890da90de"
    },
    {
      "anonymous": false,
      "inputs": [
        {
          "indexed": false,
          "name": "pendingAdmin",
          "type": "address"
        }
      ],
      "name": "TransferAdminPending",
      "type": "event",
      "signature": "0x3b81caf78fa51ecbc8acb482fd7012a277b428d9b80f9d156e8a54107496cc40"
    },
    {
      "anonymous": false,
      "inputs": [
        {
          "indexed": false,
          "name": "newAdmin",
          "type": "address"
        },
        {
          "indexed": false,
          "name": "previousAdmin",
          "type": "address"
        }
      ],
      "name": "AdminClaimed",
      "type": "event",
      "signature": "0x65da1cfc2c2e81576ad96afb24a581f8e109b7a403b35cbd3243a1c99efdb9ed"
    },
    {
      "anonymous": false,
      "inputs": [
        {
          "indexed": false,
          "name": "newAlerter",
          "type": "address"
        },
        {
          "indexed": false,
          "name": "isAdd",
          "type": "bool"
        }
      ],
      "name": "AlerterAdded",
      "type": "event",
      "signature": "0x5611bf3e417d124f97bf2c788843ea8bb502b66079fbee02158ef30b172cb762"
    },
    {
      "anonymous": false,
      "inputs": [
        {
          "indexed": false,
          "name": "newOperator",
          "type": "address"
        },
        {
          "indexed": false,
          "name": "isAdd",
          "type": "bool"
        }
      ],
      "name": "OperatorAdded",
      "type": "event",
      "signature": "0x091a7a4b85135fdd7e8dbc18b12fabe5cc191ea867aa3c2e1a24a102af61d58b"
    },
    {
      "constant": true,
      "inputs": [
        {
          "name": "user",
          "type": "address"
        }
      ],
      "name": "getUserCapInWei",
      "outputs": [
        {
          "name": "",
          "type": "uint256"
        }
      ],
      "payable": false,
      "stateMutability": "view",
      "type": "function",
      "signature": "0x6432679f"
    },
    {
      "constant": false,
      "inputs": [
        {
          "name": "user",
          "type": "address"
        },
        {
          "name": "category",
          "type": "uint256"
        }
      ],
      "name": "setUserCategory",
      "outputs": [],
      "payable": false,
      "stateMutability": "nonpayable",
      "type": "function",
      "signature": "0x16603758"
    },
    {
      "constant": false,
      "inputs": [
        {
          "name": "category",
          "type": "uint256"
        },
        {
          "name": "sgdCap",
          "type": "uint256"
        }
      ],
      "name": "setCategoryCap",
      "outputs": [],
      "payable": false,
      "stateMutability": "nonpayable",
      "type": "function",
      "signature": "0x4576a635"
    },
    {
      "constant": false,
      "inputs": [
        {
          "name": "_sgdToWeiRate",
          "type": "uint256"
        }
      ],
      "name": "setSgdToEthRate",
      "outputs": [],
      "payable": false,
      "stateMutability": "nonpayable",
      "type": "function",
      "signature": "0x6f512e61"
    },
    {
      "constant": true,
      "inputs": [
        {
          "name": "user",
          "type": "address"
        }
      ],
      "name": "getUserCategory",
      "outputs": [
        {
          "name": "",
          "type": "uint256"
        }
      ],
      "payable": false,
      "stateMutability": "view",
      "type": "function",
      "signature": "0xdc4bc06e"
    }
  ],
  "bytecode": "0x6060604052341561000f57600080fd5b6040516040806110df833981016040528080519190602001805160008054600160a060020a03191633600160a060020a039081169190911790915590925083161515905061005c57600080fd5b600160a060020a038116151561007157600080fd5b60098054600160a060020a03928316600160a060020a03199182161790915560008054939092169216919091179055611030806100af6000396000f3006060604052600436106101195763ffffffff60e060020a60003504166301a12fd3811461011e5780630bc5f2161461013f578063166037581461016e578063267822471461019057806327a099d8146101a35780633ccdbb2814610209578063408ee7fe146102325780634576a635146102515780636432679f1461026a5780636f512e611461029b57806370cc5e45146102b157806373172488146102c457806375829def146102e357806377f50f97146103025780637acc8678146103155780637c423f54146103345780639870d7fe14610347578063ac8a584a14610366578063bdd5f8da14610385578063ce56c45414610398578063dc4bc06e146103ba578063f851a440146103d9578063f8b367c1146103ec575b600080fd5b341561012957600080fd5b61013d600160a060020a0360043516610402565b005b341561014a57600080fd5b610152610572565b604051600160a060020a03909116815260200160405180910390f35b341561017957600080fd5b61013d600160a060020a0360043516602435610581565b341561019b57600080fd5b61015261060e565b34156101ae57600080fd5b6101b661061d565b60405160208082528190810183818151815260200191508051906020019060200280838360005b838110156101f55780820151838201526020016101dd565b505050509050019250505060405180910390f35b341561021457600080fd5b61013d600160a060020a036004358116906024359060443516610686565b341561023d57600080fd5b61013d600160a060020a036004351661077d565b341561025c57600080fd5b61013d600435602435610879565b341561027557600080fd5b610289600160a060020a03600435166108f2565b60405190815260200160405180910390f35b34156102a657600080fd5b61013d600435610919565b34156102bc57600080fd5b61028961097b565b34156102cf57600080fd5b610289600160a060020a0360043516610980565b34156102ee57600080fd5b61013d600160a060020a0360043516610992565b341561030d57600080fd5b61013d610a2d565b341561032057600080fd5b61013d600160a060020a0360043516610ac7565b341561033f57600080fd5b6101b6610ba9565b341561035257600080fd5b61013d600160a060020a0360043516610c0f565b341561037157600080fd5b61013d600160a060020a0360043516610cdf565b341561039057600080fd5b610289610e4b565b34156103a357600080fd5b61013d600435600160a060020a0360243516610e51565b34156103c557600080fd5b610289600160a060020a0360043516610ee4565b34156103e457600080fd5b610152610f8a565b34156103f757600080fd5b610289600435610f99565b6000805433600160a060020a0390811691161461041e57600080fd5b600160a060020a03821660009081526003602052604090205460ff16151561044557600080fd5b50600160a060020a0381166000908152600360205260408120805460ff191690555b60055481101561056e5781600160a060020a031660058281548110151561048a57fe5b600091825260209091200154600160a060020a03161415610566576005805460001981019081106104b757fe5b60009182526020909120015460058054600160a060020a0390921691839081106104dd57fe5b60009182526020909120018054600160a060020a031916600160a060020a03929092169190911790556005805490610519906000198301610fab565b507f5611bf3e417d124f97bf2c788843ea8bb502b66079fbee02158ef30b172cb762826000604051600160a060020a039092168252151560208201526040908101905180910390a161056e565b600101610467565b5050565b600954600160a060020a031681565b600160a060020a03331660009081526002602052604090205460ff1615156105a857600080fd5b600160a060020a038216600090815260076020526040908190208290557f0aeb0f7989a09b8cccf58cea1aefa196ccf738cb14781d6910448dd5649d0e6e908390839051600160a060020a03909216825260208201526040908101905180910390a15050565b600154600160a060020a031681565b610625610fd4565b600480548060200260200160405190810160405280929190818152602001828054801561067b57602002820191906000526020600020905b8154600160a060020a0316815260019091019060200180831161065d575b505050505090505b90565b60005433600160a060020a039081169116146106a157600080fd5b82600160a060020a031663a9059cbb828460006040516020015260405160e060020a63ffffffff8516028152600160a060020a0390921660048301526024820152604401602060405180830381600087803b15156106fe57600080fd5b6102c65a03f1151561070f57600080fd5b50505060405180519050151561072457600080fd5b7f72cb8a894ddb372ceec3d2a7648d86f17d5a15caae0e986c53109b8a9a9385e6838383604051600160a060020a03938416815260208101929092529091166040808301919091526060909101905180910390a1505050565b60005433600160a060020a0390811691161461079857600080fd5b600160a060020a03811660009081526003602052604090205460ff16156107be57600080fd5b600554603290106107ce57600080fd5b7f5611bf3e417d124f97bf2c788843ea8bb502b66079fbee02158ef30b172cb762816001604051600160a060020a039092168252151560208201526040908101905180910390a1600160a060020a0381166000908152600360205260409020805460ff19166001908117909155600580549091810161084d8382610fab565b5060009182526020909120018054600160a060020a031916600160a060020a0392909216919091179055565b600160a060020a03331660009081526002602052604090205460ff1615156108a057600080fd5b600082815260086020526040908190208290557ffe29fc12cc077f523b5141f4461f4379616a4f0198063967ff0d3968842df4d590839083905191825260208201526040908101905180910390a15050565b6000806108fe83610ee4565b60065460009182526008602052604090912054029392505050565b600160a060020a03331660009081526002602052604090205460ff16151561094057600080fd5b60068190557f7b1f1f835b071dffe96e01b6d92e82ab769940e14897658192a350bd734b1e608160405190815260200160405180910390a150565b600281565b60076020526000908152604090205481565b60005433600160a060020a039081169116146109ad57600080fd5b600160a060020a03811615156109c257600080fd5b6001547f3b81caf78fa51ecbc8acb482fd7012a277b428d9b80f9d156e8a54107496cc4090600160a060020a0316604051600160a060020a03909116815260200160405180910390a160018054600160a060020a031916600160a060020a0392909216919091179055565b60015433600160a060020a03908116911614610a4857600080fd5b6001546000547f65da1cfc2c2e81576ad96afb24a581f8e109b7a403b35cbd3243a1c99efdb9ed91600160a060020a039081169116604051600160a060020a039283168152911660208201526040908101905180910390a16001805460008054600160a060020a0319908116600160a060020a03841617909155169055565b60005433600160a060020a03908116911614610ae257600080fd5b600160a060020a0381161515610af757600080fd5b7f3b81caf78fa51ecbc8acb482fd7012a277b428d9b80f9d156e8a54107496cc4081604051600160a060020a03909116815260200160405180910390a16000547f65da1cfc2c2e81576ad96afb24a581f8e109b7a403b35cbd3243a1c99efdb9ed908290600160a060020a0316604051600160a060020a039283168152911660208201526040908101905180910390a160008054600160a060020a031916600160a060020a0392909216919091179055565b610bb1610fd4565b600580548060200260200160405190810160405280929190818152602001828054801561067b57602002820191906000526020600020908154600160a060020a0316815260019091019060200180831161065d575050505050905090565b60005433600160a060020a03908116911614610c2a57600080fd5b600160a060020a03811660009081526002602052604090205460ff1615610c5057600080fd5b60045460329010610c6057600080fd5b7f091a7a4b85135fdd7e8dbc18b12fabe5cc191ea867aa3c2e1a24a102af61d58b816001604051600160a060020a039092168252151560208201526040908101905180910390a1600160a060020a0381166000908152600260205260409020805460ff19166001908117909155600480549091810161084d8382610fab565b6000805433600160a060020a03908116911614610cfb57600080fd5b600160a060020a03821660009081526002602052604090205460ff161515610d2257600080fd5b50600160a060020a0381166000908152600260205260408120805460ff191690555b60045481101561056e5781600160a060020a0316600482815481101515610d6757fe5b600091825260209091200154600160a060020a03161415610e4357600480546000198101908110610d9457fe5b60009182526020909120015460048054600160a060020a039092169183908110610dba57fe5b60009182526020909120018054600160a060020a031916600160a060020a0392909216919091179055600480546000190190610df69082610fab565b507f091a7a4b85135fdd7e8dbc18b12fabe5cc191ea867aa3c2e1a24a102af61d58b826000604051600160a060020a039092168252151560208201526040908101905180910390a161056e565b600101610d44565b60065481565b60005433600160a060020a03908116911614610e6c57600080fd5b600160a060020a03811682156108fc0283604051600060405180830381858888f193505050501515610e9d57600080fd5b7fec47e7ed86c86774d1a72c19f35c639911393fe7c1a34031fdbd260890da90de8282604051918252600160a060020a031660208201526040908101905180910390a15050565b600160a060020a038116600090815260076020526040812054801515610f8457600954600090600160a060020a03166370a0823185836040516020015260405160e060020a63ffffffff8416028152600160a060020a039091166004820152602401602060405180830381600087803b1515610f5f57600080fd5b6102c65a03f11515610f7057600080fd5b505050604051805190501115610f84575060025b92915050565b600054600160a060020a031681565b60086020526000908152604090205481565b815481835581811511610fcf57600083815260209020610fcf918101908301610fe6565b505050565b60206040519081016040526000815290565b61068391905b808211156110005760008155600101610fec565b50905600a165627a7a723058200b387c64f632466eb181d6b834b5ceab6cf0de817deb12a0d0f3d5c4663da7460029",
  "source": "pragma solidity 0.4.18;\r\n\r\n\r\nimport \"./Withdrawable.sol\";\r\nimport \"./WhiteListInterface.sol\";\r\nimport \"./ERC20Interface.sol\";\r\n\r\n\r\ncontract WhiteList is WhiteListInterface, Withdrawable {\r\n\r\n    uint public weiPerSgd; // amount of weis in 1 singapore dollar\r\n    mapping (address=>uint) public userCategory; // each user has a category defining cap on trade. 0 for standard.\r\n    mapping (uint=>uint)    public categoryCap;  // will define cap on trade amount per category in singapore Dollar.\r\n    uint constant public kgtHolderCategory = 2;\r\n    ERC20 public kgtToken;\r\n\r\n    function WhiteList(address _admin, ERC20 _kgtToken) public {\r\n        require(_admin != address(0));\r\n        require(_kgtToken != address(0));\r\n        kgtToken = _kgtToken;\r\n        admin = _admin;\r\n    }\r\n\r\n    function getUserCapInWei(address user) external view returns (uint) {\r\n        uint category = getUserCategory(user);\r\n        return (categoryCap[category] * weiPerSgd);\r\n    }\r\n\r\n    event UserCategorySet(address user, uint category);\r\n\r\n    function setUserCategory(address user, uint category) public onlyOperator {\r\n        userCategory[user] = category;\r\n        UserCategorySet(user, category);\r\n    }\r\n\r\n    event CategoryCapSet (uint category, uint sgdCap);\r\n\r\n    function setCategoryCap(uint category, uint sgdCap) public onlyOperator {\r\n        categoryCap[category] = sgdCap;\r\n        CategoryCapSet(category, sgdCap);\r\n    }\r\n\r\n    event SgdToWeiRateSet (uint rate);\r\n\r\n    function setSgdToEthRate(uint _sgdToWeiRate) public onlyOperator {\r\n        weiPerSgd = _sgdToWeiRate;\r\n        SgdToWeiRateSet(_sgdToWeiRate);\r\n    }\r\n\r\n    function getUserCategory (address user) public view returns(uint) {\r\n        uint category = userCategory[user];\r\n        if (category == 0) {\r\n            //0 = default category. means category wasn't set.\r\n            if (kgtToken.balanceOf(user) > 0) {\r\n                category = kgtHolderCategory;\r\n            }\r\n        }\r\n        return category;\r\n    }\r\n}\r\n",
  "sourcePath": "C:/Users/phangjunyu/desktop/ethsg-lenXe/kyber/contracts/WhiteList.sol",
  "compiler": {
    "name": "solc",
    "version": "0.4.18+commit.9cf6e910.Emscripten.clang"
  },
  "schemaVersion": "3.0.0-beta.1",
  "updatedAt": "2018-12-09T02:57:55.443Z"
}