{
  "contractName": "zxService",
  "abi": [
    {
      "inputs": [],
      "payable": false,
      "stateMutability": "nonpayable",
      "type": "constructor"
    },
    {
      "constant": false,
      "inputs": [
        {
          "name": "srcToken",
          "type": "address"
        },
        {
          "name": "srcQty",
          "type": "uint256"
        },
        {
          "name": "destToken",
          "type": "address"
        }
      ],
      "name": "queryzxOB",
      "outputs": [],
      "payable": false,
      "stateMutability": "nonpayable",
      "type": "function"
    },
    {
      "constant": false,
      "inputs": [
        {
          "name": "srcToken",
          "type": "address"
        },
        {
          "name": "srcQty",
          "type": "uint256"
        },
        {
          "name": "destToken",
          "type": "address"
        }
      ],
      "name": "execSwapzx",
      "outputs": [],
      "payable": false,
      "stateMutability": "nonpayable",
      "type": "function"
    },
    {
      "constant": false,
      "inputs": [
        {
          "name": "srcToken",
          "type": "address"
        },
        {
          "name": "srcQty",
          "type": "uint256"
        },
        {
          "name": "destToken",
          "type": "address"
        }
      ],
      "name": "postzxOB",
      "outputs": [],
      "payable": false,
      "stateMutability": "nonpayable",
      "type": "function"
    },
    {
      "constant": false,
      "inputs": [],
      "name": "watchzxOB",
      "outputs": [],
      "payable": false,
      "stateMutability": "nonpayable",
      "type": "function"
    }
  ],
  "bytecode": "0x6060604052341561000f57600080fd5b6101128061001e6000396000f300606060405260043610605c5763ffffffff7c010000000000000000000000000000000000000000000000000000000060003504166305a3dafd81146061578063cd6ccfb2146073578063dad7cb861460a6578063ee2476531460a6575b600080fd5b3415606b57600080fd5b607160d9565b005b3415607d57600080fd5b607173ffffffffffffffffffffffffffffffffffffffff600435811690602435906044351660db565b341560b057600080fd5b607173ffffffffffffffffffffffffffffffffffffffff600435811690602435906044351660e1565b565b60e160d9565b5050505600a165627a7a723058203a33574f0fa2d2c0010edac437f7a3df2ad770c7beb383d6d117bafa631c8ae40029",
  "source": "pragma solidity ^0.4.18;\r\nimport \"../KyberNetworkProxy.sol\";\r\n\r\ncontract zxService{\r\n\r\n    function zxService() public {\r\n        //constructor\r\n    }\r\n\r\n    function queryzxOB(\r\n        ERC20 srcToken, \r\n        uint srcQty, \r\n        ERC20 destToken) public{\r\n\r\n    }\r\n\r\n    function execSwapzx(\r\n        ERC20 srcToken, \r\n        uint srcQty, \r\n        ERC20 destToken) public{\r\n            \r\n\r\n            //should emit an Event\r\n    }\r\n\r\n    function postzxOB(\r\n        ERC20 srcToken, \r\n        uint srcQty, \r\n        ERC20 destToken) public{\r\n            //should emit an event\r\n            //call watch0xOB to start watching the chain\r\n            watchzxOB();\r\n    }\r\n\r\n\r\n    function watchzxOB() public {\r\n        //listener to watch for event and return to UI\r\n    }\r\n}",
  "sourcePath": "C:\\Users\\phangjunyu\\desktop\\ethsg-lenXe\\kyber\\contracts\\ethSG\\zxService.sol",
  "compiler": {
    "name": "solc",
    "version": "0.4.18+commit.9cf6e910.Emscripten.clang"
  },
  "schemaVersion": "3.0.0-beta.1",
  "updatedAt": "2018-12-08T20:25:19.987Z"
}