{
  "contractName": "ZxService",
  "abi": [
    {
      "inputs": [],
      "payable": false,
      "stateMutability": "nonpayable",
      "type": "constructor"
    },
    {
      "constant": false,
      "inputs": [
        {
          "name": "srcToken",
          "type": "address"
        },
        {
          "name": "srcQty",
          "type": "uint256"
        },
        {
          "name": "destToken",
          "type": "address"
        }
      ],
      "name": "queryZxOB",
      "outputs": [],
      "payable": false,
      "stateMutability": "nonpayable",
      "type": "function"
    },
    {
      "constant": false,
      "inputs": [
        {
          "name": "srcToken",
          "type": "address"
        },
        {
          "name": "srcQty",
          "type": "uint256"
        },
        {
          "name": "destToken",
          "type": "address"
        }
      ],
      "name": "execSwapZx",
      "outputs": [],
      "payable": false,
      "stateMutability": "nonpayable",
      "type": "function"
    },
    {
      "constant": false,
      "inputs": [],
      "name": "watchZxOB",
      "outputs": [],
      "payable": false,
      "stateMutability": "nonpayable",
      "type": "function"
    },
    {
      "constant": false,
      "inputs": [
        {
          "name": "srcToken",
          "type": "address"
        },
        {
          "name": "srcQty",
          "type": "uint256"
        },
        {
          "name": "destToken",
          "type": "address"
        }
      ],
      "name": "postZxOB",
      "outputs": [],
      "payable": false,
      "stateMutability": "nonpayable",
      "type": "function"
    }
  ],
  "bytecode": "0x6060604052341561000f57600080fd5b6101128061001e6000396000f300606060405260043610605c5763ffffffff7c01000000000000000000000000000000000000000000000000000000006000350416630e1b208b81146061578063abc5f2ff146073578063d68e619b1460a6578063ef83e7811460a6575b600080fd5b3415606b57600080fd5b607160d9565b005b3415607d57600080fd5b607173ffffffffffffffffffffffffffffffffffffffff600435811690602435906044351660db565b341560b057600080fd5b607173ffffffffffffffffffffffffffffffffffffffff600435811690602435906044351660e1565b565b60e160d9565b5050505600a165627a7a72305820e83e837fb9e49c5d42e9c28785898c4259d2879d0972f73f609069f05f2e31410029",
  "source": "pragma solidity ^0.4.18;\r\n\r\nimport \"../KyberNetworkProxy.sol\";\r\n\r\ncontract ZxService{\r\n\r\n    function ZxService(){\r\n        //constructor\r\n    }\r\n\r\n    function queryZxOB(\r\n        ERC20 srcToken, \r\n        uint srcQty, \r\n        ERC20 destToken) public{\r\n\r\n    }\r\n\r\n    function execSwapZx(\r\n        ERC20 srcToken, \r\n        uint srcQty, \r\n        ERC20 destToken) public{\r\n            \r\n\r\n            //should emit an Event\r\n    }\r\n\r\n\r\n    function watchZxOB(){\r\n        //listener to watch for event and return to UI\r\n    }\r\n\r\n    function postZxOB(\r\n        ERC20 srcToken, \r\n        uint srcQty, \r\n        ERC20 destToken) public{\r\n      //should emit an event\r\n      //call watch0xOB to start watching the chain\r\n      watchZxOB();\r\n    }\r\n\r\n\r\n\r\n}\r\n\r\n",
  "sourcePath": "C:\\Users\\phangjunyu\\desktop\\ethsg-lenXe\\kyber\\contracts\\ethSG\\ZxService.sol",
  "compiler": {
    "name": "solc",
    "version": "0.4.18+commit.9cf6e910.Emscripten.clang"
  },
  "schemaVersion": "3.0.0-beta.1",
  "updatedAt": "2018-12-09T02:56:40.214Z"
}